{
	"blockscout-verified/11155111/0x4f4D8dFCebb3a78a9eBFd12dBa928197cFe78E78/Sale/Sale.sol": {
		"SuperStarTokenSale": {
			"abi": [
				{
					"inputs": [
						{
							"internalType": "address payable",
							"name": "_wallet",
							"type": "address"
						},
						{
							"internalType": "contract IERC20",
							"name": "_starToken",
							"type": "address"
						}
					],
					"stateMutability": "nonpayable",
					"type": "constructor"
				},
				{
					"inputs": [
						{
							"internalType": "address",
							"name": "owner",
							"type": "address"
						}
					],
					"name": "OwnableInvalidOwner",
					"type": "error"
				},
				{
					"inputs": [
						{
							"internalType": "address",
							"name": "account",
							"type": "address"
						}
					],
					"name": "OwnableUnauthorizedAccount",
					"type": "error"
				},
				{
					"anonymous": false,
					"inputs": [
						{
							"indexed": true,
							"internalType": "address",
							"name": "previousOwner",
							"type": "address"
						},
						{
							"indexed": true,
							"internalType": "address",
							"name": "newOwner",
							"type": "address"
						}
					],
					"name": "OwnershipTransferred",
					"type": "event"
				},
				{
					"anonymous": false,
					"inputs": [],
					"name": "SaleEnded",
					"type": "event"
				},
				{
					"anonymous": false,
					"inputs": [
						{
							"indexed": true,
							"internalType": "address",
							"name": "buyer",
							"type": "address"
						},
						{
							"indexed": false,
							"internalType": "uint256",
							"name": "tokensClaimed",
							"type": "uint256"
						}
					],
					"name": "TokensClaimed",
					"type": "event"
				},
				{
					"anonymous": false,
					"inputs": [
						{
							"indexed": true,
							"internalType": "address",
							"name": "buyer",
							"type": "address"
						},
						{
							"indexed": false,
							"internalType": "uint256",
							"name": "amount",
							"type": "uint256"
						}
					],
					"name": "TokensPurchased",
					"type": "event"
				},
				{
					"inputs": [],
					"name": "buyTokens",
					"outputs": [],
					"stateMutability": "payable",
					"type": "function"
				},
				{
					"inputs": [],
					"name": "claimTokens",
					"outputs": [],
					"stateMutability": "nonpayable",
					"type": "function"
				},
				{
					"inputs": [
						{
							"internalType": "uint256",
							"name": "_amount",
							"type": "uint256"
						}
					],
					"name": "depositTokens",
					"outputs": [],
					"stateMutability": "nonpayable",
					"type": "function"
				},
				{
					"inputs": [],
					"name": "endSale",
					"outputs": [],
					"stateMutability": "nonpayable",
					"type": "function"
				},
				{
					"inputs": [],
					"name": "owner",
					"outputs": [
						{
							"internalType": "address",
							"name": "",
							"type": "address"
						}
					],
					"stateMutability": "view",
					"type": "function"
				},
				{
					"inputs": [
						{
							"internalType": "address",
							"name": "",
							"type": "address"
						}
					],
					"name": "purchasedTokens",
					"outputs": [
						{
							"internalType": "uint256",
							"name": "",
							"type": "uint256"
						}
					],
					"stateMutability": "view",
					"type": "function"
				},
				{
					"inputs": [],
					"name": "rate",
					"outputs": [
						{
							"internalType": "uint256",
							"name": "",
							"type": "uint256"
						}
					],
					"stateMutability": "view",
					"type": "function"
				},
				{
					"inputs": [],
					"name": "renounceOwnership",
					"outputs": [],
					"stateMutability": "nonpayable",
					"type": "function"
				},
				{
					"inputs": [],
					"name": "saleEnded",
					"outputs": [
						{
							"internalType": "bool",
							"name": "",
							"type": "bool"
						}
					],
					"stateMutability": "view",
					"type": "function"
				},
				{
					"inputs": [],
					"name": "starToken",
					"outputs": [
						{
							"internalType": "contract IERC20",
							"name": "",
							"type": "address"
						}
					],
					"stateMutability": "view",
					"type": "function"
				},
				{
					"inputs": [
						{
							"internalType": "address",
							"name": "newOwner",
							"type": "address"
						}
					],
					"name": "transferOwnership",
					"outputs": [],
					"stateMutability": "nonpayable",
					"type": "function"
				},
				{
					"inputs": [],
					"name": "wallet",
					"outputs": [
						{
							"internalType": "address payable",
							"name": "",
							"type": "address"
						}
					],
					"stateMutability": "view",
					"type": "function"
				},
				{
					"inputs": [],
					"name": "withdrawFunds",
					"outputs": [],
					"stateMutability": "nonpayable",
					"type": "function"
				},
				{
					"inputs": [
						{
							"internalType": "uint256",
							"name": "_amount",
							"type": "uint256"
						}
					],
					"name": "withdrawTokens",
					"outputs": [],
					"stateMutability": "nonpayable",
					"type": "function"
				}
			],
			"devdoc": {
				"errors": {
					"OwnableInvalidOwner(address)": [
						{
							"details": "The owner is not a valid owner account. (eg. `address(0)`)"
						}
					],
					"OwnableUnauthorizedAccount(address)": [
						{
							"details": "The caller account is not authorized to perform an operation."
						}
					]
				},
				"kind": "dev",
				"methods": {
					"owner()": {
						"details": "Returns the address of the current owner."
					},
					"renounceOwnership()": {
						"details": "Leaves the contract without owner. It will not be possible to call `onlyOwner` functions. Can only be called by the current owner. NOTE: Renouncing ownership will leave the contract without an owner, thereby disabling any functionality that is only available to the owner."
					},
					"transferOwnership(address)": {
						"details": "Transfers ownership of the contract to a new account (`newOwner`). Can only be called by the current owner."
					}
				},
				"version": 1
			},
			"evm": {
				"assembly": "    /* \"blockscout-verified/11155111/0x4f4D8dFCebb3a78a9eBFd12dBa928197cFe78E78/Sale/Sale.sol\":287:2813  contract SuperStarTokenSale is Ownable {... */\n  mstore(0x40, 0x80)\n    /* \"blockscout-verified/11155111/0x4f4D8dFCebb3a78a9eBFd12dBa928197cFe78E78/Sale/Sale.sol\":824:1207  constructor(address payable _wallet, IERC20 _starToken) Ownable(msg.sender) {... */\n  callvalue\n  dup1\n  iszero\n  tag_1\n  jumpi\n  revert(0x00, 0x00)\ntag_1:\n  pop\n  mload(0x40)\n  sub(codesize, bytecodeSize)\n  dup1\n  bytecodeSize\n  dup4\n  codecopy\n  dup2\n  dup2\n  add\n  0x40\n  mstore\n  dup2\n  add\n  swap1\n  tag_2\n  swap2\n  swap1\n  tag_3\n  jump\t// in\ntag_2:\n    /* \"blockscout-verified/11155111/0x4f4D8dFCebb3a78a9eBFd12dBa928197cFe78E78/Sale/Sale.sol\":888:898  msg.sender */\n  caller\n    /* \"@openzeppelin/contracts/access/Ownable.sol\":1297:1298  0 */\n  0x00\n    /* \"@openzeppelin/contracts/access/Ownable.sol\":1273:1299  initialOwner == address(0) */\n  0xffffffffffffffffffffffffffffffffffffffff\n  and\n    /* \"@openzeppelin/contracts/access/Ownable.sol\":1273:1285  initialOwner */\n  dup2\n    /* \"@openzeppelin/contracts/access/Ownable.sol\":1273:1299  initialOwner == address(0) */\n  0xffffffffffffffffffffffffffffffffffffffff\n  and\n  sub\n    /* \"@openzeppelin/contracts/access/Ownable.sol\":1269:1364  if (initialOwner == address(0)) {... */\n  tag_7\n  jumpi\n    /* \"@openzeppelin/contracts/access/Ownable.sol\":1350:1351  0 */\n  0x00\n    /* \"@openzeppelin/contracts/access/Ownable.sol\":1322:1353  OwnableInvalidOwner(address(0)) */\n  mload(0x40)\n  0x1e4fbdf700000000000000000000000000000000000000000000000000000000\n  dup2\n  mstore\n  0x04\n  add\n  tag_8\n  swap2\n  swap1\n  tag_9\n  jump\t// in\ntag_8:\n  mload(0x40)\n  dup1\n  swap2\n  sub\n  swap1\n  revert\n    /* \"@openzeppelin/contracts/access/Ownable.sol\":1269:1364  if (initialOwner == address(0)) {... */\ntag_7:\n    /* \"@openzeppelin/contracts/access/Ownable.sol\":1373:1405  _transferOwnership(initialOwner) */\n  tag_10\n    /* \"@openzeppelin/contracts/access/Ownable.sol\":1392:1404  initialOwner */\n  dup2\n    /* \"@openzeppelin/contracts/access/Ownable.sol\":1373:1391  _transferOwnership */\n  shl(0x20, tag_11)\n    /* \"@openzeppelin/contracts/access/Ownable.sol\":1373:1405  _transferOwnership(initialOwner) */\n  0x20\n  shr\n  jump\t// in\ntag_10:\n    /* \"@openzeppelin/contracts/access/Ownable.sol\":1225:1412  constructor(address initialOwner) {... */\n  pop\n    /* \"blockscout-verified/11155111/0x4f4D8dFCebb3a78a9eBFd12dBa928197cFe78E78/Sale/Sale.sol\":938:939  0 */\n  0x00\n    /* \"blockscout-verified/11155111/0x4f4D8dFCebb3a78a9eBFd12dBa928197cFe78E78/Sale/Sale.sol\":919:940  _wallet != address(0) */\n  0xffffffffffffffffffffffffffffffffffffffff\n  and\n    /* \"blockscout-verified/11155111/0x4f4D8dFCebb3a78a9eBFd12dBa928197cFe78E78/Sale/Sale.sol\":919:926  _wallet */\n  dup3\n    /* \"blockscout-verified/11155111/0x4f4D8dFCebb3a78a9eBFd12dBa928197cFe78E78/Sale/Sale.sol\":919:940  _wallet != address(0) */\n  0xffffffffffffffffffffffffffffffffffffffff\n  and\n  sub\n    /* \"blockscout-verified/11155111/0x4f4D8dFCebb3a78a9eBFd12dBa928197cFe78E78/Sale/Sale.sol\":911:976  require(_wallet != address(0), \"Wallet address must not be zero\") */\n  tag_13\n  jumpi\n  mload(0x40)\n  0x08c379a000000000000000000000000000000000000000000000000000000000\n  dup2\n  mstore\n  0x04\n  add\n  tag_14\n  swap1\n  tag_15\n  jump\t// in\ntag_14:\n  mload(0x40)\n  dup1\n  swap2\n  sub\n  swap1\n  revert\ntag_13:\n    /* \"blockscout-verified/11155111/0x4f4D8dFCebb3a78a9eBFd12dBa928197cFe78E78/Sale/Sale.sol\":1026:1027  0 */\n  0x00\n    /* \"blockscout-verified/11155111/0x4f4D8dFCebb3a78a9eBFd12dBa928197cFe78E78/Sale/Sale.sol\":995:1028  address(_starToken) != address(0) */\n  0xffffffffffffffffffffffffffffffffffffffff\n  and\n    /* \"blockscout-verified/11155111/0x4f4D8dFCebb3a78a9eBFd12dBa928197cFe78E78/Sale/Sale.sol\":1003:1013  _starToken */\n  dup2\n    /* \"blockscout-verified/11155111/0x4f4D8dFCebb3a78a9eBFd12dBa928197cFe78E78/Sale/Sale.sol\":995:1028  address(_starToken) != address(0) */\n  0xffffffffffffffffffffffffffffffffffffffff\n  and\n  sub\n    /* \"blockscout-verified/11155111/0x4f4D8dFCebb3a78a9eBFd12dBa928197cFe78E78/Sale/Sale.sol\":987:1063  require(address(_starToken) != address(0), \"Token address must not be zero\") */\n  tag_16\n  jumpi\n  mload(0x40)\n  0x08c379a000000000000000000000000000000000000000000000000000000000\n  dup2\n  mstore\n  0x04\n  add\n  tag_17\n  swap1\n  tag_18\n  jump\t// in\ntag_17:\n  mload(0x40)\n  dup1\n  swap2\n  sub\n  swap1\n  revert\ntag_16:\n    /* \"blockscout-verified/11155111/0x4f4D8dFCebb3a78a9eBFd12dBa928197cFe78E78/Sale/Sale.sol\":1083:1090  _wallet */\n  dup2\n    /* \"blockscout-verified/11155111/0x4f4D8dFCebb3a78a9eBFd12dBa928197cFe78E78/Sale/Sale.sol\":1074:1080  wallet */\n  0x03\n  0x00\n    /* \"blockscout-verified/11155111/0x4f4D8dFCebb3a78a9eBFd12dBa928197cFe78E78/Sale/Sale.sol\":1074:1090  wallet = _wallet */\n  0x0100\n  exp\n  dup2\n  sload\n  dup2\n  0xffffffffffffffffffffffffffffffffffffffff\n  mul\n  not\n  and\n  swap1\n  dup4\n  0xffffffffffffffffffffffffffffffffffffffff\n  and\n  mul\n  or\n  swap1\n  sstore\n  pop\n    /* \"blockscout-verified/11155111/0x4f4D8dFCebb3a78a9eBFd12dBa928197cFe78E78/Sale/Sale.sol\":1113:1123  _starToken */\n  dup1\n    /* \"blockscout-verified/11155111/0x4f4D8dFCebb3a78a9eBFd12dBa928197cFe78E78/Sale/Sale.sol\":1101:1110  starToken */\n  0x01\n  0x00\n    /* \"blockscout-verified/11155111/0x4f4D8dFCebb3a78a9eBFd12dBa928197cFe78E78/Sale/Sale.sol\":1101:1123  starToken = _starToken */\n  0x0100\n  exp\n  dup2\n  sload\n  dup2\n  0xffffffffffffffffffffffffffffffffffffffff\n  mul\n  not\n  and\n  swap1\n  dup4\n  0xffffffffffffffffffffffffffffffffffffffff\n  and\n  mul\n  or\n  swap1\n  sstore\n  pop\n    /* \"blockscout-verified/11155111/0x4f4D8dFCebb3a78a9eBFd12dBa928197cFe78E78/Sale/Sale.sol\":1141:1146  10000 */\n  0x2710\n    /* \"blockscout-verified/11155111/0x4f4D8dFCebb3a78a9eBFd12dBa928197cFe78E78/Sale/Sale.sol\":1134:1138  rate */\n  0x02\n    /* \"blockscout-verified/11155111/0x4f4D8dFCebb3a78a9eBFd12dBa928197cFe78E78/Sale/Sale.sol\":1134:1146  rate = 10000 */\n  dup2\n  swap1\n  sstore\n  pop\n    /* \"blockscout-verified/11155111/0x4f4D8dFCebb3a78a9eBFd12dBa928197cFe78E78/Sale/Sale.sol\":1194:1199  false */\n  0x00\n    /* \"blockscout-verified/11155111/0x4f4D8dFCebb3a78a9eBFd12dBa928197cFe78E78/Sale/Sale.sol\":1182:1191  saleEnded */\n  0x03\n  0x14\n    /* \"blockscout-verified/11155111/0x4f4D8dFCebb3a78a9eBFd12dBa928197cFe78E78/Sale/Sale.sol\":1182:1199  saleEnded = false */\n  0x0100\n  exp\n  dup2\n  sload\n  dup2\n  0xff\n  mul\n  not\n  and\n  swap1\n  dup4\n  iszero\n  iszero\n  mul\n  or\n  swap1\n  sstore\n  pop\n    /* \"blockscout-verified/11155111/0x4f4D8dFCebb3a78a9eBFd12dBa928197cFe78E78/Sale/Sale.sol\":824:1207  constructor(address payable _wallet, IERC20 _starToken) Ownable(msg.sender) {... */\n  pop\n  pop\n    /* \"blockscout-verified/11155111/0x4f4D8dFCebb3a78a9eBFd12dBa928197cFe78E78/Sale/Sale.sol\":287:2813  contract SuperStarTokenSale is Ownable {... */\n  jump(tag_19)\n    /* \"@openzeppelin/contracts/access/Ownable.sol\":2912:3099  function _transferOwnership(address newOwner) internal virtual {... */\ntag_11:\n    /* \"@openzeppelin/contracts/access/Ownable.sol\":2985:3001  address oldOwner */\n  0x00\n    /* \"@openzeppelin/contracts/access/Ownable.sol\":3004:3010  _owner */\n  0x00\n  0x00\n  swap1\n  sload\n  swap1\n  0x0100\n  exp\n  swap1\n  div\n  0xffffffffffffffffffffffffffffffffffffffff\n  and\n    /* \"@openzeppelin/contracts/access/Ownable.sol\":2985:3010  address oldOwner = _owner */\n  swap1\n  pop\n    /* \"@openzeppelin/contracts/access/Ownable.sol\":3029:3037  newOwner */\n  dup2\n    /* \"@openzeppelin/contracts/access/Ownable.sol\":3020:3026  _owner */\n  0x00\n  0x00\n    /* \"@openzeppelin/contracts/access/Ownable.sol\":3020:3037  _owner = newOwner */\n  0x0100\n  exp\n  dup2\n  sload\n  dup2\n  0xffffffffffffffffffffffffffffffffffffffff\n  mul\n  not\n  and\n  swap1\n  dup4\n  0xffffffffffffffffffffffffffffffffffffffff\n  and\n  mul\n  or\n  swap1\n  sstore\n  pop\n    /* \"@openzeppelin/contracts/access/Ownable.sol\":3083:3091  newOwner */\n  dup2\n    /* \"@openzeppelin/contracts/access/Ownable.sol\":3052:3092  OwnershipTransferred(oldOwner, newOwner) */\n  0xffffffffffffffffffffffffffffffffffffffff\n  and\n    /* \"@openzeppelin/contracts/access/Ownable.sol\":3073:3081  oldOwner */\n  dup2\n    /* \"@openzeppelin/contracts/access/Ownable.sol\":3052:3092  OwnershipTransferred(oldOwner, newOwner) */\n  0xffffffffffffffffffffffffffffffffffffffff\n  and\n  0x8be0079c531659141344cd1fd0a4f28419497f9722a3daafe3b4186f6b6457e0\n  mload(0x40)\n  mload(0x40)\n  dup1\n  swap2\n  sub\n  swap1\n  log3\n    /* \"@openzeppelin/contracts/access/Ownable.sol\":2975:3099  {... */\n  pop\n    /* \"@openzeppelin/contracts/access/Ownable.sol\":2912:3099  function _transferOwnership(address newOwner) internal virtual {... */\n  pop\n  jump\t// out\n    /* \"#utility.yul\":88:205   */\ntag_22:\n    /* \"#utility.yul\":197:198   */\n  0x00\n    /* \"#utility.yul\":194:195   */\n  0x00\n    /* \"#utility.yul\":187:199   */\n  revert\n    /* \"#utility.yul\":334:460   */\ntag_24:\n    /* \"#utility.yul\":371:378   */\n  0x00\n    /* \"#utility.yul\":411:453   */\n  0xffffffffffffffffffffffffffffffffffffffff\n    /* \"#utility.yul\":404:409   */\n  dup3\n    /* \"#utility.yul\":400:454   */\n  and\n    /* \"#utility.yul\":389:454   */\n  swap1\n  pop\n    /* \"#utility.yul\":334:460   */\n  swap2\n  swap1\n  pop\n  jump\t// out\n    /* \"#utility.yul\":466:570   */\ntag_25:\n    /* \"#utility.yul\":511:518   */\n  0x00\n    /* \"#utility.yul\":540:564   */\n  tag_44\n    /* \"#utility.yul\":558:563   */\n  dup3\n    /* \"#utility.yul\":540:564   */\n  tag_24\n  jump\t// in\ntag_44:\n    /* \"#utility.yul\":529:564   */\n  swap1\n  pop\n    /* \"#utility.yul\":466:570   */\n  swap2\n  swap1\n  pop\n  jump\t// out\n    /* \"#utility.yul\":576:714   */\ntag_26:\n    /* \"#utility.yul\":657:689   */\n  tag_46\n    /* \"#utility.yul\":683:688   */\n  dup2\n    /* \"#utility.yul\":657:689   */\n  tag_25\n  jump\t// in\ntag_46:\n    /* \"#utility.yul\":650:655   */\n  dup2\n    /* \"#utility.yul\":647:690   */\n  eq\n    /* \"#utility.yul\":637:708   */\n  tag_47\n  jumpi\n    /* \"#utility.yul\":704:705   */\n  0x00\n    /* \"#utility.yul\":701:702   */\n  0x00\n    /* \"#utility.yul\":694:706   */\n  revert\n    /* \"#utility.yul\":637:708   */\ntag_47:\n    /* \"#utility.yul\":576:714   */\n  pop\n  jump\t// out\n    /* \"#utility.yul\":720:879   */\ntag_27:\n    /* \"#utility.yul\":785:790   */\n  0x00\n    /* \"#utility.yul\":816:822   */\n  dup2\n    /* \"#utility.yul\":810:823   */\n  mload\n    /* \"#utility.yul\":801:823   */\n  swap1\n  pop\n    /* \"#utility.yul\":832:873   */\n  tag_49\n    /* \"#utility.yul\":867:872   */\n  dup2\n    /* \"#utility.yul\":832:873   */\n  tag_26\n  jump\t// in\ntag_49:\n    /* \"#utility.yul\":720:879   */\n  swap3\n  swap2\n  pop\n  pop\n  jump\t// out\n    /* \"#utility.yul\":885:981   */\ntag_28:\n    /* \"#utility.yul\":922:929   */\n  0x00\n    /* \"#utility.yul\":951:975   */\n  tag_51\n    /* \"#utility.yul\":969:974   */\n  dup3\n    /* \"#utility.yul\":951:975   */\n  tag_24\n  jump\t// in\ntag_51:\n    /* \"#utility.yul\":940:975   */\n  swap1\n  pop\n    /* \"#utility.yul\":885:981   */\n  swap2\n  swap1\n  pop\n  jump\t// out\n    /* \"#utility.yul\":987:1097   */\ntag_29:\n    /* \"#utility.yul\":1038:1045   */\n  0x00\n    /* \"#utility.yul\":1067:1091   */\n  tag_53\n    /* \"#utility.yul\":1085:1090   */\n  dup3\n    /* \"#utility.yul\":1067:1091   */\n  tag_28\n  jump\t// in\ntag_53:\n    /* \"#utility.yul\":1056:1091   */\n  swap1\n  pop\n    /* \"#utility.yul\":987:1097   */\n  swap2\n  swap1\n  pop\n  jump\t// out\n    /* \"#utility.yul\":1103:1253   */\ntag_30:\n    /* \"#utility.yul\":1190:1228   */\n  tag_55\n    /* \"#utility.yul\":1222:1227   */\n  dup2\n    /* \"#utility.yul\":1190:1228   */\n  tag_29\n  jump\t// in\ntag_55:\n    /* \"#utility.yul\":1183:1188   */\n  dup2\n    /* \"#utility.yul\":1180:1229   */\n  eq\n    /* \"#utility.yul\":1170:1247   */\n  tag_56\n  jumpi\n    /* \"#utility.yul\":1243:1244   */\n  0x00\n    /* \"#utility.yul\":1240:1241   */\n  0x00\n    /* \"#utility.yul\":1233:1245   */\n  revert\n    /* \"#utility.yul\":1170:1247   */\ntag_56:\n    /* \"#utility.yul\":1103:1253   */\n  pop\n  jump\t// out\n    /* \"#utility.yul\":1259:1430   */\ntag_31:\n    /* \"#utility.yul\":1330:1335   */\n  0x00\n    /* \"#utility.yul\":1361:1367   */\n  dup2\n    /* \"#utility.yul\":1355:1368   */\n  mload\n    /* \"#utility.yul\":1346:1368   */\n  swap1\n  pop\n    /* \"#utility.yul\":1377:1424   */\n  tag_58\n    /* \"#utility.yul\":1418:1423   */\n  dup2\n    /* \"#utility.yul\":1377:1424   */\n  tag_30\n  jump\t// in\ntag_58:\n    /* \"#utility.yul\":1259:1430   */\n  swap3\n  swap2\n  pop\n  pop\n  jump\t// out\n    /* \"#utility.yul\":1436:1987   */\ntag_3:\n    /* \"#utility.yul\":1537:1543   */\n  0x00\n    /* \"#utility.yul\":1545:1551   */\n  0x00\n    /* \"#utility.yul\":1594:1596   */\n  0x40\n    /* \"#utility.yul\":1582:1591   */\n  dup4\n    /* \"#utility.yul\":1573:1580   */\n  dup6\n    /* \"#utility.yul\":1569:1592   */\n  sub\n    /* \"#utility.yul\":1565:1597   */\n  slt\n    /* \"#utility.yul\":1562:1681   */\n  iszero\n  tag_60\n  jumpi\n    /* \"#utility.yul\":1600:1679   */\n  tag_61\n  tag_22\n  jump\t// in\ntag_61:\n    /* \"#utility.yul\":1562:1681   */\ntag_60:\n    /* \"#utility.yul\":1720:1721   */\n  0x00\n    /* \"#utility.yul\":1745:1817   */\n  tag_62\n    /* \"#utility.yul\":1809:1816   */\n  dup6\n    /* \"#utility.yul\":1800:1806   */\n  dup3\n    /* \"#utility.yul\":1789:1798   */\n  dup7\n    /* \"#utility.yul\":1785:1807   */\n  add\n    /* \"#utility.yul\":1745:1817   */\n  tag_27\n  jump\t// in\ntag_62:\n    /* \"#utility.yul\":1735:1817   */\n  swap3\n  pop\n    /* \"#utility.yul\":1691:1827   */\n  pop\n    /* \"#utility.yul\":1866:1868   */\n  0x20\n    /* \"#utility.yul\":1892:1970   */\n  tag_63\n    /* \"#utility.yul\":1962:1969   */\n  dup6\n    /* \"#utility.yul\":1953:1959   */\n  dup3\n    /* \"#utility.yul\":1942:1951   */\n  dup7\n    /* \"#utility.yul\":1938:1960   */\n  add\n    /* \"#utility.yul\":1892:1970   */\n  tag_31\n  jump\t// in\ntag_63:\n    /* \"#utility.yul\":1882:1970   */\n  swap2\n  pop\n    /* \"#utility.yul\":1837:1980   */\n  pop\n    /* \"#utility.yul\":1436:1987   */\n  swap3\n  pop\n  swap3\n  swap1\n  pop\n  jump\t// out\n    /* \"#utility.yul\":1993:2111   */\ntag_32:\n    /* \"#utility.yul\":2080:2104   */\n  tag_65\n    /* \"#utility.yul\":2098:2103   */\n  dup2\n    /* \"#utility.yul\":2080:2104   */\n  tag_28\n  jump\t// in\ntag_65:\n    /* \"#utility.yul\":2075:2078   */\n  dup3\n    /* \"#utility.yul\":2068:2105   */\n  mstore\n    /* \"#utility.yul\":1993:2111   */\n  pop\n  pop\n  jump\t// out\n    /* \"#utility.yul\":2117:2339   */\ntag_9:\n    /* \"#utility.yul\":2210:2214   */\n  0x00\n    /* \"#utility.yul\":2248:2250   */\n  0x20\n    /* \"#utility.yul\":2237:2246   */\n  dup3\n    /* \"#utility.yul\":2233:2251   */\n  add\n    /* \"#utility.yul\":2225:2251   */\n  swap1\n  pop\n    /* \"#utility.yul\":2261:2332   */\n  tag_67\n    /* \"#utility.yul\":2329:2330   */\n  0x00\n    /* \"#utility.yul\":2318:2327   */\n  dup4\n    /* \"#utility.yul\":2314:2331   */\n  add\n    /* \"#utility.yul\":2305:2311   */\n  dup5\n    /* \"#utility.yul\":2261:2332   */\n  tag_32\n  jump\t// in\ntag_67:\n    /* \"#utility.yul\":2117:2339   */\n  swap3\n  swap2\n  pop\n  pop\n  jump\t// out\n    /* \"#utility.yul\":2345:2514   */\ntag_33:\n    /* \"#utility.yul\":2429:2440   */\n  0x00\n    /* \"#utility.yul\":2463:2469   */\n  dup3\n    /* \"#utility.yul\":2458:2461   */\n  dup3\n    /* \"#utility.yul\":2451:2470   */\n  mstore\n    /* \"#utility.yul\":2503:2507   */\n  0x20\n    /* \"#utility.yul\":2498:2501   */\n  dup3\n    /* \"#utility.yul\":2494:2508   */\n  add\n    /* \"#utility.yul\":2479:2508   */\n  swap1\n  pop\n    /* \"#utility.yul\":2345:2514   */\n  swap3\n  swap2\n  pop\n  pop\n  jump\t// out\n    /* \"#utility.yul\":2520:2701   */\ntag_34:\n    /* \"#utility.yul\":2660:2693   */\n  0x57616c6c65742061646472657373206d757374206e6f74206265207a65726f00\n    /* \"#utility.yul\":2656:2657   */\n  0x00\n    /* \"#utility.yul\":2648:2654   */\n  dup3\n    /* \"#utility.yul\":2644:2658   */\n  add\n    /* \"#utility.yul\":2637:2694   */\n  mstore\n    /* \"#utility.yul\":2520:2701   */\n  pop\n  jump\t// out\n    /* \"#utility.yul\":2707:3073   */\ntag_35:\n    /* \"#utility.yul\":2849:2852   */\n  0x00\n    /* \"#utility.yul\":2870:2937   */\n  tag_71\n    /* \"#utility.yul\":2934:2936   */\n  0x1f\n    /* \"#utility.yul\":2929:2932   */\n  dup4\n    /* \"#utility.yul\":2870:2937   */\n  tag_33\n  jump\t// in\ntag_71:\n    /* \"#utility.yul\":2863:2937   */\n  swap2\n  pop\n    /* \"#utility.yul\":2946:3039   */\n  tag_72\n    /* \"#utility.yul\":3035:3038   */\n  dup3\n    /* \"#utility.yul\":2946:3039   */\n  tag_34\n  jump\t// in\ntag_72:\n    /* \"#utility.yul\":3064:3066   */\n  0x20\n    /* \"#utility.yul\":3059:3062   */\n  dup3\n    /* \"#utility.yul\":3055:3067   */\n  add\n    /* \"#utility.yul\":3048:3067   */\n  swap1\n  pop\n    /* \"#utility.yul\":2707:3073   */\n  swap2\n  swap1\n  pop\n  jump\t// out\n    /* \"#utility.yul\":3079:3498   */\ntag_15:\n    /* \"#utility.yul\":3245:3249   */\n  0x00\n    /* \"#utility.yul\":3283:3285   */\n  0x20\n    /* \"#utility.yul\":3272:3281   */\n  dup3\n    /* \"#utility.yul\":3268:3286   */\n  add\n    /* \"#utility.yul\":3260:3286   */\n  swap1\n  pop\n    /* \"#utility.yul\":3332:3341   */\n  dup2\n    /* \"#utility.yul\":3326:3330   */\n  dup2\n    /* \"#utility.yul\":3322:3342   */\n  sub\n    /* \"#utility.yul\":3318:3319   */\n  0x00\n    /* \"#utility.yul\":3307:3316   */\n  dup4\n    /* \"#utility.yul\":3303:3320   */\n  add\n    /* \"#utility.yul\":3296:3343   */\n  mstore\n    /* \"#utility.yul\":3360:3491   */\n  tag_74\n    /* \"#utility.yul\":3486:3490   */\n  dup2\n    /* \"#utility.yul\":3360:3491   */\n  tag_35\n  jump\t// in\ntag_74:\n    /* \"#utility.yul\":3352:3491   */\n  swap1\n  pop\n    /* \"#utility.yul\":3079:3498   */\n  swap2\n  swap1\n  pop\n  jump\t// out\n    /* \"#utility.yul\":3504:3684   */\ntag_36:\n    /* \"#utility.yul\":3644:3676   */\n  0x546f6b656e2061646472657373206d757374206e6f74206265207a65726f0000\n    /* \"#utility.yul\":3640:3641   */\n  0x00\n    /* \"#utility.yul\":3632:3638   */\n  dup3\n    /* \"#utility.yul\":3628:3642   */\n  add\n    /* \"#utility.yul\":3621:3677   */\n  mstore\n    /* \"#utility.yul\":3504:3684   */\n  pop\n  jump\t// out\n    /* \"#utility.yul\":3690:4056   */\ntag_37:\n    /* \"#utility.yul\":3832:3835   */\n  0x00\n    /* \"#utility.yul\":3853:3920   */\n  tag_77\n    /* \"#utility.yul\":3917:3919   */\n  0x1e\n    /* \"#utility.yul\":3912:3915   */\n  dup4\n    /* \"#utility.yul\":3853:3920   */\n  tag_33\n  jump\t// in\ntag_77:\n    /* \"#utility.yul\":3846:3920   */\n  swap2\n  pop\n    /* \"#utility.yul\":3929:4022   */\n  tag_78\n    /* \"#utility.yul\":4018:4021   */\n  dup3\n    /* \"#utility.yul\":3929:4022   */\n  tag_36\n  jump\t// in\ntag_78:\n    /* \"#utility.yul\":4047:4049   */\n  0x20\n    /* \"#utility.yul\":4042:4045   */\n  dup3\n    /* \"#utility.yul\":4038:4050   */\n  add\n    /* \"#utility.yul\":4031:4050   */\n  swap1\n  pop\n    /* \"#utility.yul\":3690:4056   */\n  swap2\n  swap1\n  pop\n  jump\t// out\n    /* \"#utility.yul\":4062:4481   */\ntag_18:\n    /* \"#utility.yul\":4228:4232   */\n  0x00\n    /* \"#utility.yul\":4266:4268   */\n  0x20\n    /* \"#utility.yul\":4255:4264   */\n  dup3\n    /* \"#utility.yul\":4251:4269   */\n  add\n    /* \"#utility.yul\":4243:4269   */\n  swap1\n  pop\n    /* \"#utility.yul\":4315:4324   */\n  dup2\n    /* \"#utility.yul\":4309:4313   */\n  dup2\n    /* \"#utility.yul\":4305:4325   */\n  sub\n    /* \"#utility.yul\":4301:4302   */\n  0x00\n    /* \"#utility.yul\":4290:4299   */\n  dup4\n    /* \"#utility.yul\":4286:4303   */\n  add\n    /* \"#utility.yul\":4279:4326   */\n  mstore\n    /* \"#utility.yul\":4343:4474   */\n  tag_80\n    /* \"#utility.yul\":4469:4473   */\n  dup2\n    /* \"#utility.yul\":4343:4474   */\n  tag_37\n  jump\t// in\ntag_80:\n    /* \"#utility.yul\":4335:4474   */\n  swap1\n  pop\n    /* \"#utility.yul\":4062:4481   */\n  swap2\n  swap1\n  pop\n  jump\t// out\n    /* \"blockscout-verified/11155111/0x4f4D8dFCebb3a78a9eBFd12dBa928197cFe78E78/Sale/Sale.sol\":287:2813  contract SuperStarTokenSale is Ownable {... */\ntag_19:\n  dataSize(sub_0)\n  dup1\n  dataOffset(sub_0)\n  0x00\n  codecopy\n  0x00\n  return\nstop\n\nsub_0: assembly {\n        /* \"blockscout-verified/11155111/0x4f4D8dFCebb3a78a9eBFd12dBa928197cFe78E78/Sale/Sale.sol\":287:2813  contract SuperStarTokenSale is Ownable {... */\n      mstore(0x40, 0x80)\n      jumpi(tag_1, lt(calldatasize, 0x04))\n      shr(0xe0, calldataload(0x00))\n      dup1\n      0x715018a6\n      gt\n      tag_16\n      jumpi\n      dup1\n      0xb7ca51e8\n      gt\n      tag_17\n      jumpi\n      dup1\n      0xb7ca51e8\n      eq\n      tag_12\n      jumpi\n      dup1\n      0xd0febe4c\n      eq\n      tag_13\n      jumpi\n      dup1\n      0xdd49756e\n      eq\n      tag_14\n      jumpi\n      dup1\n      0xf2fde38b\n      eq\n      tag_15\n      jumpi\n      jump(tag_1)\n    tag_17:\n      dup1\n      0x715018a6\n      eq\n      tag_9\n      jumpi\n      dup1\n      0x8da5cb5b\n      eq\n      tag_10\n      jumpi\n      dup1\n      0x9b8906ae\n      eq\n      tag_11\n      jumpi\n      jump(tag_1)\n    tag_16:\n      dup1\n      0x380d831b\n      gt\n      tag_18\n      jumpi\n      dup1\n      0x380d831b\n      eq\n      tag_5\n      jumpi\n      dup1\n      0x48c54b9d\n      eq\n      tag_6\n      jumpi\n      dup1\n      0x4bae6f3f\n      eq\n      tag_7\n      jumpi\n      dup1\n      0x521eb273\n      eq\n      tag_8\n      jumpi\n      jump(tag_1)\n    tag_18:\n      dup1\n      0x24600fc3\n      eq\n      tag_2\n      jumpi\n      dup1\n      0x2c4e722e\n      eq\n      tag_3\n      jumpi\n      dup1\n      0x315a095d\n      eq\n      tag_4\n      jumpi\n    tag_1:\n      revert(0x00, 0x00)\n        /* \"blockscout-verified/11155111/0x4f4D8dFCebb3a78a9eBFd12dBa928197cFe78E78/Sale/Sale.sol\":2628:2810  function withdrawFunds() external onlyOwner {... */\n    tag_2:\n      callvalue\n      dup1\n      iszero\n      tag_19\n      jumpi\n      revert(0x00, 0x00)\n    tag_19:\n      pop\n      tag_20\n      tag_21\n      jump\t// in\n    tag_20:\n      stop\n        /* \"blockscout-verified/11155111/0x4f4D8dFCebb3a78a9eBFd12dBa928197cFe78E78/Sale/Sale.sol\":398:417  uint256 public rate */\n    tag_3:\n      callvalue\n      dup1\n      iszero\n      tag_22\n      jumpi\n      revert(0x00, 0x00)\n    tag_22:\n      pop\n      tag_23\n      tag_24\n      jump\t// in\n    tag_23:\n      mload(0x40)\n      tag_25\n      swap2\n      swap1\n      tag_26\n      jump\t// in\n    tag_25:\n      mload(0x40)\n      dup1\n      swap2\n      sub\n      swap1\n      return\n        /* \"blockscout-verified/11155111/0x4f4D8dFCebb3a78a9eBFd12dBa928197cFe78E78/Sale/Sale.sol\":1423:1605  function withdrawTokens(uint256 _amount) external onlyOwner {... */\n    tag_4:\n      callvalue\n      dup1\n      iszero\n      tag_27\n      jumpi\n      revert(0x00, 0x00)\n    tag_27:\n      pop\n      tag_28\n      0x04\n      dup1\n      calldatasize\n      sub\n      dup2\n      add\n      swap1\n      tag_29\n      swap2\n      swap1\n      tag_30\n      jump\t// in\n    tag_29:\n      tag_31\n      jump\t// in\n    tag_28:\n      stop\n        /* \"blockscout-verified/11155111/0x4f4D8dFCebb3a78a9eBFd12dBa928197cFe78E78/Sale/Sale.sol\":1613:1769  function endSale() external onlyOwner {... */\n    tag_5:\n      callvalue\n      dup1\n      iszero\n      tag_32\n      jumpi\n      revert(0x00, 0x00)\n    tag_32:\n      pop\n      tag_33\n      tag_34\n      jump\t// in\n    tag_33:\n      stop\n        /* \"blockscout-verified/11155111/0x4f4D8dFCebb3a78a9eBFd12dBa928197cFe78E78/Sale/Sale.sol\":2248:2620  function claimTokens() external {... */\n    tag_6:\n      callvalue\n      dup1\n      iszero\n      tag_35\n      jumpi\n      revert(0x00, 0x00)\n    tag_35:\n      pop\n      tag_36\n      tag_37\n      jump\t// in\n    tag_36:\n      stop\n        /* \"blockscout-verified/11155111/0x4f4D8dFCebb3a78a9eBFd12dBa928197cFe78E78/Sale/Sale.sol\":490:540  mapping(address => uint256) public purchasedTokens */\n    tag_7:\n      callvalue\n      dup1\n      iszero\n      tag_38\n      jumpi\n      revert(0x00, 0x00)\n    tag_38:\n      pop\n      tag_39\n      0x04\n      dup1\n      calldatasize\n      sub\n      dup2\n      add\n      swap1\n      tag_40\n      swap2\n      swap1\n      tag_41\n      jump\t// in\n    tag_40:\n      tag_42\n      jump\t// in\n    tag_39:\n      mload(0x40)\n      tag_43\n      swap2\n      swap1\n      tag_26\n      jump\t// in\n    tag_43:\n      mload(0x40)\n      dup1\n      swap2\n      sub\n      swap1\n      return\n        /* \"blockscout-verified/11155111/0x4f4D8dFCebb3a78a9eBFd12dBa928197cFe78E78/Sale/Sale.sol\":424:453  address payable public wallet */\n    tag_8:\n      callvalue\n      dup1\n      iszero\n      tag_44\n      jumpi\n      revert(0x00, 0x00)\n    tag_44:\n      pop\n      tag_45\n      tag_46\n      jump\t// in\n    tag_45:\n      mload(0x40)\n      tag_47\n      swap2\n      swap1\n      tag_48\n      jump\t// in\n    tag_47:\n      mload(0x40)\n      dup1\n      swap2\n      sub\n      swap1\n      return\n        /* \"@openzeppelin/contracts/access/Ownable.sol\":2293:2394  function renounceOwnership() public virtual onlyOwner {... */\n    tag_9:\n      callvalue\n      dup1\n      iszero\n      tag_49\n      jumpi\n      revert(0x00, 0x00)\n    tag_49:\n      pop\n      tag_50\n      tag_51\n      jump\t// in\n    tag_50:\n      stop\n        /* \"@openzeppelin/contracts/access/Ownable.sol\":1638:1723  function owner() public view virtual returns (address) {... */\n    tag_10:\n      callvalue\n      dup1\n      iszero\n      tag_52\n      jumpi\n      revert(0x00, 0x00)\n    tag_52:\n      pop\n      tag_53\n      tag_54\n      jump\t// in\n    tag_53:\n      mload(0x40)\n      tag_55\n      swap2\n      swap1\n      tag_56\n      jump\t// in\n    tag_55:\n      mload(0x40)\n      dup1\n      swap2\n      sub\n      swap1\n      return\n        /* \"blockscout-verified/11155111/0x4f4D8dFCebb3a78a9eBFd12dBa928197cFe78E78/Sale/Sale.sol\":462:483  bool public saleEnded */\n    tag_11:\n      callvalue\n      dup1\n      iszero\n      tag_57\n      jumpi\n      revert(0x00, 0x00)\n    tag_57:\n      pop\n      tag_58\n      tag_59\n      jump\t// in\n    tag_58:\n      mload(0x40)\n      tag_60\n      swap2\n      swap1\n      tag_61\n      jump\t// in\n    tag_60:\n      mload(0x40)\n      dup1\n      swap2\n      sub\n      swap1\n      return\n        /* \"blockscout-verified/11155111/0x4f4D8dFCebb3a78a9eBFd12dBa928197cFe78E78/Sale/Sale.sol\":368:391  IERC20 public starToken */\n    tag_12:\n      callvalue\n      dup1\n      iszero\n      tag_62\n      jumpi\n      revert(0x00, 0x00)\n    tag_62:\n      pop\n      tag_63\n      tag_64\n      jump\t// in\n    tag_63:\n      mload(0x40)\n      tag_65\n      swap2\n      swap1\n      tag_66\n      jump\t// in\n    tag_65:\n      mload(0x40)\n      dup1\n      swap2\n      sub\n      swap1\n      return\n        /* \"blockscout-verified/11155111/0x4f4D8dFCebb3a78a9eBFd12dBa928197cFe78E78/Sale/Sale.sol\":1777:2240  function buyTokens() external payable onlyWhenSaleActive {... */\n    tag_13:\n      tag_67\n      tag_68\n      jump\t// in\n    tag_67:\n      stop\n        /* \"blockscout-verified/11155111/0x4f4D8dFCebb3a78a9eBFd12dBa928197cFe78E78/Sale/Sale.sol\":1215:1415  function depositTokens(uint256 _amount) external onlyOwner {... */\n    tag_14:\n      callvalue\n      dup1\n      iszero\n      tag_69\n      jumpi\n      revert(0x00, 0x00)\n    tag_69:\n      pop\n      tag_70\n      0x04\n      dup1\n      calldatasize\n      sub\n      dup2\n      add\n      swap1\n      tag_71\n      swap2\n      swap1\n      tag_30\n      jump\t// in\n    tag_71:\n      tag_72\n      jump\t// in\n    tag_70:\n      stop\n        /* \"@openzeppelin/contracts/access/Ownable.sol\":2543:2758  function transferOwnership(address newOwner) public virtual onlyOwner {... */\n    tag_15:\n      callvalue\n      dup1\n      iszero\n      tag_73\n      jumpi\n      revert(0x00, 0x00)\n    tag_73:\n      pop\n      tag_74\n      0x04\n      dup1\n      calldatasize\n      sub\n      dup2\n      add\n      swap1\n      tag_75\n      swap2\n      swap1\n      tag_41\n      jump\t// in\n    tag_75:\n      tag_76\n      jump\t// in\n    tag_74:\n      stop\n        /* \"blockscout-verified/11155111/0x4f4D8dFCebb3a78a9eBFd12dBa928197cFe78E78/Sale/Sale.sol\":2628:2810  function withdrawFunds() external onlyOwner {... */\n    tag_21:\n        /* \"@openzeppelin/contracts/access/Ownable.sol\":1531:1544  _checkOwner() */\n      tag_78\n        /* \"@openzeppelin/contracts/access/Ownable.sol\":1531:1542  _checkOwner */\n      tag_79\n        /* \"@openzeppelin/contracts/access/Ownable.sol\":1531:1544  _checkOwner() */\n      jump\t// in\n    tag_78:\n        /* \"blockscout-verified/11155111/0x4f4D8dFCebb3a78a9eBFd12dBa928197cFe78E78/Sale/Sale.sol\":2684:2696  bool success */\n      0x00\n        /* \"blockscout-verified/11155111/0x4f4D8dFCebb3a78a9eBFd12dBa928197cFe78E78/Sale/Sale.sol\":2702:2708  wallet */\n      0x03\n      0x00\n      swap1\n      sload\n      swap1\n      0x0100\n      exp\n      swap1\n      div\n      0xffffffffffffffffffffffffffffffffffffffff\n      and\n        /* \"blockscout-verified/11155111/0x4f4D8dFCebb3a78a9eBFd12dBa928197cFe78E78/Sale/Sale.sol\":2702:2713  wallet.call */\n      0xffffffffffffffffffffffffffffffffffffffff\n      and\n        /* \"blockscout-verified/11155111/0x4f4D8dFCebb3a78a9eBFd12dBa928197cFe78E78/Sale/Sale.sol\":2721:2742  address(this).balance */\n      selfbalance\n        /* \"blockscout-verified/11155111/0x4f4D8dFCebb3a78a9eBFd12dBa928197cFe78E78/Sale/Sale.sol\":2702:2747  wallet.call{value: address(this).balance}(\"\") */\n      mload(0x40)\n      tag_81\n      swap1\n      tag_82\n      jump\t// in\n    tag_81:\n      0x00\n      mload(0x40)\n      dup1\n      dup4\n      sub\n      dup2\n      dup6\n      dup8\n      gas\n      call\n      swap3\n      pop\n      pop\n      pop\n      returndatasize\n      dup1\n      0x00\n      dup2\n      eq\n      tag_85\n      jumpi\n      mload(0x40)\n      swap2\n      pop\n      and(add(returndatasize, 0x3f), not(0x1f))\n      dup3\n      add\n      0x40\n      mstore\n      returndatasize\n      dup3\n      mstore\n      returndatasize\n      0x00\n      0x20\n      dup5\n      add\n      returndatacopy\n      jump(tag_84)\n    tag_85:\n      0x60\n      swap2\n      pop\n    tag_84:\n      pop\n        /* \"blockscout-verified/11155111/0x4f4D8dFCebb3a78a9eBFd12dBa928197cFe78E78/Sale/Sale.sol\":2683:2747  (bool success, ) = wallet.call{value: address(this).balance}(\"\") */\n      pop\n      swap1\n      pop\n        /* \"blockscout-verified/11155111/0x4f4D8dFCebb3a78a9eBFd12dBa928197cFe78E78/Sale/Sale.sol\":2766:2773  success */\n      dup1\n        /* \"blockscout-verified/11155111/0x4f4D8dFCebb3a78a9eBFd12dBa928197cFe78E78/Sale/Sale.sol\":2758:2802  require(success, \"Failed to withdraw funds\") */\n      tag_86\n      jumpi\n      mload(0x40)\n      0x08c379a000000000000000000000000000000000000000000000000000000000\n      dup2\n      mstore\n      0x04\n      add\n      tag_87\n      swap1\n      tag_88\n      jump\t// in\n    tag_87:\n      mload(0x40)\n      dup1\n      swap2\n      sub\n      swap1\n      revert\n    tag_86:\n        /* \"blockscout-verified/11155111/0x4f4D8dFCebb3a78a9eBFd12dBa928197cFe78E78/Sale/Sale.sol\":2672:2810  {... */\n      pop\n        /* \"blockscout-verified/11155111/0x4f4D8dFCebb3a78a9eBFd12dBa928197cFe78E78/Sale/Sale.sol\":2628:2810  function withdrawFunds() external onlyOwner {... */\n      jump\t// out\n        /* \"blockscout-verified/11155111/0x4f4D8dFCebb3a78a9eBFd12dBa928197cFe78E78/Sale/Sale.sol\":398:417  uint256 public rate */\n    tag_24:\n      sload(0x02)\n      dup2\n      jump\t// out\n        /* \"blockscout-verified/11155111/0x4f4D8dFCebb3a78a9eBFd12dBa928197cFe78E78/Sale/Sale.sol\":1423:1605  function withdrawTokens(uint256 _amount) external onlyOwner {... */\n    tag_31:\n        /* \"@openzeppelin/contracts/access/Ownable.sol\":1531:1544  _checkOwner() */\n      tag_90\n        /* \"@openzeppelin/contracts/access/Ownable.sol\":1531:1542  _checkOwner */\n      tag_79\n        /* \"@openzeppelin/contracts/access/Ownable.sol\":1531:1544  _checkOwner() */\n      jump\t// in\n    tag_90:\n        /* \"blockscout-verified/11155111/0x4f4D8dFCebb3a78a9eBFd12dBa928197cFe78E78/Sale/Sale.sol\":1512:1513  0 */\n      0x00\n        /* \"blockscout-verified/11155111/0x4f4D8dFCebb3a78a9eBFd12dBa928197cFe78E78/Sale/Sale.sol\":1502:1509  _amount */\n      dup2\n        /* \"blockscout-verified/11155111/0x4f4D8dFCebb3a78a9eBFd12dBa928197cFe78E78/Sale/Sale.sol\":1502:1513  _amount > 0 */\n      gt\n        /* \"blockscout-verified/11155111/0x4f4D8dFCebb3a78a9eBFd12dBa928197cFe78E78/Sale/Sale.sol\":1494:1547  require(_amount > 0, \"Amount must be greater than 0\") */\n      tag_92\n      jumpi\n      mload(0x40)\n      0x08c379a000000000000000000000000000000000000000000000000000000000\n      dup2\n      mstore\n      0x04\n      add\n      tag_93\n      swap1\n      tag_94\n      jump\t// in\n    tag_93:\n      mload(0x40)\n      dup1\n      swap2\n      sub\n      swap1\n      revert\n    tag_92:\n        /* \"blockscout-verified/11155111/0x4f4D8dFCebb3a78a9eBFd12dBa928197cFe78E78/Sale/Sale.sol\":1558:1567  starToken */\n      0x01\n      0x00\n      swap1\n      sload\n      swap1\n      0x0100\n      exp\n      swap1\n      div\n      0xffffffffffffffffffffffffffffffffffffffff\n      and\n        /* \"blockscout-verified/11155111/0x4f4D8dFCebb3a78a9eBFd12dBa928197cFe78E78/Sale/Sale.sol\":1558:1576  starToken.transfer */\n      0xffffffffffffffffffffffffffffffffffffffff\n      and\n      0xa9059cbb\n        /* \"blockscout-verified/11155111/0x4f4D8dFCebb3a78a9eBFd12dBa928197cFe78E78/Sale/Sale.sol\":1577:1587  msg.sender */\n      caller\n        /* \"blockscout-verified/11155111/0x4f4D8dFCebb3a78a9eBFd12dBa928197cFe78E78/Sale/Sale.sol\":1589:1596  _amount */\n      dup4\n        /* \"blockscout-verified/11155111/0x4f4D8dFCebb3a78a9eBFd12dBa928197cFe78E78/Sale/Sale.sol\":1558:1597  starToken.transfer(msg.sender, _amount) */\n      mload(0x40)\n      dup4\n      0xffffffff\n      and\n      0xe0\n      shl\n      dup2\n      mstore\n      0x04\n      add\n      tag_95\n      swap3\n      swap2\n      swap1\n      tag_96\n      jump\t// in\n    tag_95:\n      0x20\n      mload(0x40)\n      dup1\n      dup4\n      sub\n      dup2\n      0x00\n      dup8\n      gas\n      call\n      iszero\n      dup1\n      iszero\n      tag_98\n      jumpi\n      returndatacopy(0x00, 0x00, returndatasize)\n      revert(0x00, returndatasize)\n    tag_98:\n      pop\n      pop\n      pop\n      pop\n      mload(0x40)\n      returndatasize\n      not(0x1f)\n      0x1f\n      dup3\n      add\n      and\n      dup3\n      add\n      dup1\n      0x40\n      mstore\n      pop\n      dup2\n      add\n      swap1\n      tag_99\n      swap2\n      swap1\n      tag_100\n      jump\t// in\n    tag_99:\n      pop\n        /* \"blockscout-verified/11155111/0x4f4D8dFCebb3a78a9eBFd12dBa928197cFe78E78/Sale/Sale.sol\":1423:1605  function withdrawTokens(uint256 _amount) external onlyOwner {... */\n      pop\n      jump\t// out\n        /* \"blockscout-verified/11155111/0x4f4D8dFCebb3a78a9eBFd12dBa928197cFe78E78/Sale/Sale.sol\":1613:1769  function endSale() external onlyOwner {... */\n    tag_34:\n        /* \"@openzeppelin/contracts/access/Ownable.sol\":1531:1544  _checkOwner() */\n      tag_102\n        /* \"@openzeppelin/contracts/access/Ownable.sol\":1531:1542  _checkOwner */\n      tag_79\n        /* \"@openzeppelin/contracts/access/Ownable.sol\":1531:1544  _checkOwner() */\n      jump\t// in\n    tag_102:\n        /* \"blockscout-verified/11155111/0x4f4D8dFCebb3a78a9eBFd12dBa928197cFe78E78/Sale/Sale.sol\":1671:1680  saleEnded */\n      0x03\n      0x14\n      swap1\n      sload\n      swap1\n      0x0100\n      exp\n      swap1\n      div\n      0xff\n      and\n        /* \"blockscout-verified/11155111/0x4f4D8dFCebb3a78a9eBFd12dBa928197cFe78E78/Sale/Sale.sol\":1670:1680  !saleEnded */\n      iszero\n        /* \"blockscout-verified/11155111/0x4f4D8dFCebb3a78a9eBFd12dBa928197cFe78E78/Sale/Sale.sol\":1662:1707  require(!saleEnded, \"Sale has already ended\") */\n      tag_104\n      jumpi\n      mload(0x40)\n      0x08c379a000000000000000000000000000000000000000000000000000000000\n      dup2\n      mstore\n      0x04\n      add\n      tag_105\n      swap1\n      tag_106\n      jump\t// in\n    tag_105:\n      mload(0x40)\n      dup1\n      swap2\n      sub\n      swap1\n      revert\n    tag_104:\n        /* \"blockscout-verified/11155111/0x4f4D8dFCebb3a78a9eBFd12dBa928197cFe78E78/Sale/Sale.sol\":1730:1734  true */\n      0x01\n        /* \"blockscout-verified/11155111/0x4f4D8dFCebb3a78a9eBFd12dBa928197cFe78E78/Sale/Sale.sol\":1718:1727  saleEnded */\n      0x03\n      0x14\n        /* \"blockscout-verified/11155111/0x4f4D8dFCebb3a78a9eBFd12dBa928197cFe78E78/Sale/Sale.sol\":1718:1734  saleEnded = true */\n      0x0100\n      exp\n      dup2\n      sload\n      dup2\n      0xff\n      mul\n      not\n      and\n      swap1\n      dup4\n      iszero\n      iszero\n      mul\n      or\n      swap1\n      sstore\n      pop\n        /* \"blockscout-verified/11155111/0x4f4D8dFCebb3a78a9eBFd12dBa928197cFe78E78/Sale/Sale.sol\":1750:1761  SaleEnded() */\n      0x0bd8a3eb532e5fbcd3f5b00335f0fb42fdc11969e9af0fab7c9e71a36ae0d31a\n      mload(0x40)\n      mload(0x40)\n      dup1\n      swap2\n      sub\n      swap1\n      log1\n        /* \"blockscout-verified/11155111/0x4f4D8dFCebb3a78a9eBFd12dBa928197cFe78E78/Sale/Sale.sol\":1613:1769  function endSale() external onlyOwner {... */\n      jump\t// out\n        /* \"blockscout-verified/11155111/0x4f4D8dFCebb3a78a9eBFd12dBa928197cFe78E78/Sale/Sale.sol\":2248:2620  function claimTokens() external {... */\n    tag_37:\n        /* \"blockscout-verified/11155111/0x4f4D8dFCebb3a78a9eBFd12dBa928197cFe78E78/Sale/Sale.sol\":2299:2308  saleEnded */\n      0x03\n      0x14\n      swap1\n      sload\n      swap1\n      0x0100\n      exp\n      swap1\n      div\n      0xff\n      and\n        /* \"blockscout-verified/11155111/0x4f4D8dFCebb3a78a9eBFd12dBa928197cFe78E78/Sale/Sale.sol\":2291:2333  require(saleEnded, \"Sale is not over yet\") */\n      tag_108\n      jumpi\n      mload(0x40)\n      0x08c379a000000000000000000000000000000000000000000000000000000000\n      dup2\n      mstore\n      0x04\n      add\n      tag_109\n      swap1\n      tag_110\n      jump\t// in\n    tag_109:\n      mload(0x40)\n      dup1\n      swap2\n      sub\n      swap1\n      revert\n    tag_108:\n        /* \"blockscout-verified/11155111/0x4f4D8dFCebb3a78a9eBFd12dBa928197cFe78E78/Sale/Sale.sol\":2344:2365  uint256 tokensToClaim */\n      0x00\n        /* \"blockscout-verified/11155111/0x4f4D8dFCebb3a78a9eBFd12dBa928197cFe78E78/Sale/Sale.sol\":2368:2383  purchasedTokens */\n      0x04\n        /* \"blockscout-verified/11155111/0x4f4D8dFCebb3a78a9eBFd12dBa928197cFe78E78/Sale/Sale.sol\":2368:2395  purchasedTokens[msg.sender] */\n      0x00\n        /* \"blockscout-verified/11155111/0x4f4D8dFCebb3a78a9eBFd12dBa928197cFe78E78/Sale/Sale.sol\":2384:2394  msg.sender */\n      caller\n        /* \"blockscout-verified/11155111/0x4f4D8dFCebb3a78a9eBFd12dBa928197cFe78E78/Sale/Sale.sol\":2368:2395  purchasedTokens[msg.sender] */\n      0xffffffffffffffffffffffffffffffffffffffff\n      and\n      0xffffffffffffffffffffffffffffffffffffffff\n      and\n      dup2\n      mstore\n      0x20\n      add\n      swap1\n      dup2\n      mstore\n      0x20\n      add\n      0x00\n      keccak256\n      sload\n        /* \"blockscout-verified/11155111/0x4f4D8dFCebb3a78a9eBFd12dBa928197cFe78E78/Sale/Sale.sol\":2344:2395  uint256 tokensToClaim = purchasedTokens[msg.sender] */\n      swap1\n      pop\n        /* \"blockscout-verified/11155111/0x4f4D8dFCebb3a78a9eBFd12dBa928197cFe78E78/Sale/Sale.sol\":2430:2431  0 */\n      0x00\n        /* \"blockscout-verified/11155111/0x4f4D8dFCebb3a78a9eBFd12dBa928197cFe78E78/Sale/Sale.sol\":2414:2427  tokensToClaim */\n      dup2\n        /* \"blockscout-verified/11155111/0x4f4D8dFCebb3a78a9eBFd12dBa928197cFe78E78/Sale/Sale.sol\":2414:2431  tokensToClaim > 0 */\n      gt\n        /* \"blockscout-verified/11155111/0x4f4D8dFCebb3a78a9eBFd12dBa928197cFe78E78/Sale/Sale.sol\":2406:2454  require(tokensToClaim > 0, \"No tokens to claim\") */\n      tag_111\n      jumpi\n      mload(0x40)\n      0x08c379a000000000000000000000000000000000000000000000000000000000\n      dup2\n      mstore\n      0x04\n      add\n      tag_112\n      swap1\n      tag_113\n      jump\t// in\n    tag_112:\n      mload(0x40)\n      dup1\n      swap2\n      sub\n      swap1\n      revert\n    tag_111:\n        /* \"blockscout-verified/11155111/0x4f4D8dFCebb3a78a9eBFd12dBa928197cFe78E78/Sale/Sale.sol\":2497:2498  0 */\n      0x00\n        /* \"blockscout-verified/11155111/0x4f4D8dFCebb3a78a9eBFd12dBa928197cFe78E78/Sale/Sale.sol\":2467:2482  purchasedTokens */\n      0x04\n        /* \"blockscout-verified/11155111/0x4f4D8dFCebb3a78a9eBFd12dBa928197cFe78E78/Sale/Sale.sol\":2467:2494  purchasedTokens[msg.sender] */\n      0x00\n        /* \"blockscout-verified/11155111/0x4f4D8dFCebb3a78a9eBFd12dBa928197cFe78E78/Sale/Sale.sol\":2483:2493  msg.sender */\n      caller\n        /* \"blockscout-verified/11155111/0x4f4D8dFCebb3a78a9eBFd12dBa928197cFe78E78/Sale/Sale.sol\":2467:2494  purchasedTokens[msg.sender] */\n      0xffffffffffffffffffffffffffffffffffffffff\n      and\n      0xffffffffffffffffffffffffffffffffffffffff\n      and\n      dup2\n      mstore\n      0x20\n      add\n      swap1\n      dup2\n      mstore\n      0x20\n      add\n      0x00\n      keccak256\n        /* \"blockscout-verified/11155111/0x4f4D8dFCebb3a78a9eBFd12dBa928197cFe78E78/Sale/Sale.sol\":2467:2498  purchasedTokens[msg.sender] = 0 */\n      dup2\n      swap1\n      sstore\n      pop\n        /* \"blockscout-verified/11155111/0x4f4D8dFCebb3a78a9eBFd12dBa928197cFe78E78/Sale/Sale.sol\":2509:2518  starToken */\n      0x01\n      0x00\n      swap1\n      sload\n      swap1\n      0x0100\n      exp\n      swap1\n      div\n      0xffffffffffffffffffffffffffffffffffffffff\n      and\n        /* \"blockscout-verified/11155111/0x4f4D8dFCebb3a78a9eBFd12dBa928197cFe78E78/Sale/Sale.sol\":2509:2527  starToken.transfer */\n      0xffffffffffffffffffffffffffffffffffffffff\n      and\n      0xa9059cbb\n        /* \"blockscout-verified/11155111/0x4f4D8dFCebb3a78a9eBFd12dBa928197cFe78E78/Sale/Sale.sol\":2528:2538  msg.sender */\n      caller\n        /* \"blockscout-verified/11155111/0x4f4D8dFCebb3a78a9eBFd12dBa928197cFe78E78/Sale/Sale.sol\":2540:2553  tokensToClaim */\n      dup4\n        /* \"blockscout-verified/11155111/0x4f4D8dFCebb3a78a9eBFd12dBa928197cFe78E78/Sale/Sale.sol\":2509:2554  starToken.transfer(msg.sender, tokensToClaim) */\n      mload(0x40)\n      dup4\n      0xffffffff\n      and\n      0xe0\n      shl\n      dup2\n      mstore\n      0x04\n      add\n      tag_114\n      swap3\n      swap2\n      swap1\n      tag_96\n      jump\t// in\n    tag_114:\n      0x20\n      mload(0x40)\n      dup1\n      dup4\n      sub\n      dup2\n      0x00\n      dup8\n      gas\n      call\n      iszero\n      dup1\n      iszero\n      tag_116\n      jumpi\n      returndatacopy(0x00, 0x00, returndatasize)\n      revert(0x00, returndatasize)\n    tag_116:\n      pop\n      pop\n      pop\n      pop\n      mload(0x40)\n      returndatasize\n      not(0x1f)\n      0x1f\n      dup3\n      add\n      and\n      dup3\n      add\n      dup1\n      0x40\n      mstore\n      pop\n      dup2\n      add\n      swap1\n      tag_117\n      swap2\n      swap1\n      tag_100\n      jump\t// in\n    tag_117:\n      pop\n        /* \"blockscout-verified/11155111/0x4f4D8dFCebb3a78a9eBFd12dBa928197cFe78E78/Sale/Sale.sol\":2586:2596  msg.sender */\n      caller\n        /* \"blockscout-verified/11155111/0x4f4D8dFCebb3a78a9eBFd12dBa928197cFe78E78/Sale/Sale.sol\":2572:2612  TokensClaimed(msg.sender, tokensToClaim) */\n      0xffffffffffffffffffffffffffffffffffffffff\n      and\n      0x896e034966eaaf1adc54acc0f257056febbd300c9e47182cf761982cf1f5e430\n        /* \"blockscout-verified/11155111/0x4f4D8dFCebb3a78a9eBFd12dBa928197cFe78E78/Sale/Sale.sol\":2598:2611  tokensToClaim */\n      dup3\n        /* \"blockscout-verified/11155111/0x4f4D8dFCebb3a78a9eBFd12dBa928197cFe78E78/Sale/Sale.sol\":2572:2612  TokensClaimed(msg.sender, tokensToClaim) */\n      mload(0x40)\n      tag_118\n      swap2\n      swap1\n      tag_26\n      jump\t// in\n    tag_118:\n      mload(0x40)\n      dup1\n      swap2\n      sub\n      swap1\n      log2\n        /* \"blockscout-verified/11155111/0x4f4D8dFCebb3a78a9eBFd12dBa928197cFe78E78/Sale/Sale.sol\":2280:2620  {... */\n      pop\n        /* \"blockscout-verified/11155111/0x4f4D8dFCebb3a78a9eBFd12dBa928197cFe78E78/Sale/Sale.sol\":2248:2620  function claimTokens() external {... */\n      jump\t// out\n        /* \"blockscout-verified/11155111/0x4f4D8dFCebb3a78a9eBFd12dBa928197cFe78E78/Sale/Sale.sol\":490:540  mapping(address => uint256) public purchasedTokens */\n    tag_42:\n      mstore(0x20, 0x04)\n      dup1\n      0x00\n      mstore\n      keccak256(0x00, 0x40)\n      0x00\n      swap2\n      pop\n      swap1\n      pop\n      sload\n      dup2\n      jump\t// out\n        /* \"blockscout-verified/11155111/0x4f4D8dFCebb3a78a9eBFd12dBa928197cFe78E78/Sale/Sale.sol\":424:453  address payable public wallet */\n    tag_46:\n      0x03\n      0x00\n      swap1\n      sload\n      swap1\n      0x0100\n      exp\n      swap1\n      div\n      0xffffffffffffffffffffffffffffffffffffffff\n      and\n      dup2\n      jump\t// out\n        /* \"@openzeppelin/contracts/access/Ownable.sol\":2293:2394  function renounceOwnership() public virtual onlyOwner {... */\n    tag_51:\n        /* \"@openzeppelin/contracts/access/Ownable.sol\":1531:1544  _checkOwner() */\n      tag_120\n        /* \"@openzeppelin/contracts/access/Ownable.sol\":1531:1542  _checkOwner */\n      tag_79\n        /* \"@openzeppelin/contracts/access/Ownable.sol\":1531:1544  _checkOwner() */\n      jump\t// in\n    tag_120:\n        /* \"@openzeppelin/contracts/access/Ownable.sol\":2357:2387  _transferOwnership(address(0)) */\n      tag_122\n        /* \"@openzeppelin/contracts/access/Ownable.sol\":2384:2385  0 */\n      0x00\n        /* \"@openzeppelin/contracts/access/Ownable.sol\":2357:2375  _transferOwnership */\n      tag_123\n        /* \"@openzeppelin/contracts/access/Ownable.sol\":2357:2387  _transferOwnership(address(0)) */\n      jump\t// in\n    tag_122:\n        /* \"@openzeppelin/contracts/access/Ownable.sol\":2293:2394  function renounceOwnership() public virtual onlyOwner {... */\n      jump\t// out\n        /* \"@openzeppelin/contracts/access/Ownable.sol\":1638:1723  function owner() public view virtual returns (address) {... */\n    tag_54:\n        /* \"@openzeppelin/contracts/access/Ownable.sol\":1684:1691  address */\n      0x00\n        /* \"@openzeppelin/contracts/access/Ownable.sol\":1710:1716  _owner */\n      0x00\n      0x00\n      swap1\n      sload\n      swap1\n      0x0100\n      exp\n      swap1\n      div\n      0xffffffffffffffffffffffffffffffffffffffff\n      and\n        /* \"@openzeppelin/contracts/access/Ownable.sol\":1703:1716  return _owner */\n      swap1\n      pop\n        /* \"@openzeppelin/contracts/access/Ownable.sol\":1638:1723  function owner() public view virtual returns (address) {... */\n      swap1\n      jump\t// out\n        /* \"blockscout-verified/11155111/0x4f4D8dFCebb3a78a9eBFd12dBa928197cFe78E78/Sale/Sale.sol\":462:483  bool public saleEnded */\n    tag_59:\n      0x03\n      0x14\n      swap1\n      sload\n      swap1\n      0x0100\n      exp\n      swap1\n      div\n      0xff\n      and\n      dup2\n      jump\t// out\n        /* \"blockscout-verified/11155111/0x4f4D8dFCebb3a78a9eBFd12dBa928197cFe78E78/Sale/Sale.sol\":368:391  IERC20 public starToken */\n    tag_64:\n      0x01\n      0x00\n      swap1\n      sload\n      swap1\n      0x0100\n      exp\n      swap1\n      div\n      0xffffffffffffffffffffffffffffffffffffffff\n      and\n      dup2\n      jump\t// out\n        /* \"blockscout-verified/11155111/0x4f4D8dFCebb3a78a9eBFd12dBa928197cFe78E78/Sale/Sale.sol\":1777:2240  function buyTokens() external payable onlyWhenSaleActive {... */\n    tag_68:\n        /* \"blockscout-verified/11155111/0x4f4D8dFCebb3a78a9eBFd12dBa928197cFe78E78/Sale/Sale.sol\":764:773  saleEnded */\n      0x03\n      0x14\n      swap1\n      sload\n      swap1\n      0x0100\n      exp\n      swap1\n      div\n      0xff\n      and\n        /* \"blockscout-verified/11155111/0x4f4D8dFCebb3a78a9eBFd12dBa928197cFe78E78/Sale/Sale.sol\":763:773  !saleEnded */\n      iszero\n        /* \"blockscout-verified/11155111/0x4f4D8dFCebb3a78a9eBFd12dBa928197cFe78E78/Sale/Sale.sol\":755:796  require(!saleEnded, \"Sale is not active\") */\n      tag_126\n      jumpi\n      mload(0x40)\n      0x08c379a000000000000000000000000000000000000000000000000000000000\n      dup2\n      mstore\n      0x04\n      add\n      tag_127\n      swap1\n      tag_128\n      jump\t// in\n    tag_127:\n      mload(0x40)\n      dup1\n      swap2\n      sub\n      swap1\n      revert\n    tag_126:\n        /* \"blockscout-verified/11155111/0x4f4D8dFCebb3a78a9eBFd12dBa928197cFe78E78/Sale/Sale.sol\":1845:1862  uint256 ethAmount */\n      0x00\n        /* \"blockscout-verified/11155111/0x4f4D8dFCebb3a78a9eBFd12dBa928197cFe78E78/Sale/Sale.sol\":1865:1874  msg.value */\n      callvalue\n        /* \"blockscout-verified/11155111/0x4f4D8dFCebb3a78a9eBFd12dBa928197cFe78E78/Sale/Sale.sol\":1845:1874  uint256 ethAmount = msg.value */\n      swap1\n      pop\n        /* \"blockscout-verified/11155111/0x4f4D8dFCebb3a78a9eBFd12dBa928197cFe78E78/Sale/Sale.sol\":1905:1906  0 */\n      0x00\n        /* \"blockscout-verified/11155111/0x4f4D8dFCebb3a78a9eBFd12dBa928197cFe78E78/Sale/Sale.sol\":1893:1902  ethAmount */\n      dup2\n        /* \"blockscout-verified/11155111/0x4f4D8dFCebb3a78a9eBFd12dBa928197cFe78E78/Sale/Sale.sol\":1893:1906  ethAmount > 0 */\n      gt\n        /* \"blockscout-verified/11155111/0x4f4D8dFCebb3a78a9eBFd12dBa928197cFe78E78/Sale/Sale.sol\":1885:1944  require(ethAmount > 0, \"ETH amount must be greater than 0\") */\n      tag_130\n      jumpi\n      mload(0x40)\n      0x08c379a000000000000000000000000000000000000000000000000000000000\n      dup2\n      mstore\n      0x04\n      add\n      tag_131\n      swap1\n      tag_132\n      jump\t// in\n    tag_131:\n      mload(0x40)\n      dup1\n      swap2\n      sub\n      swap1\n      revert\n    tag_130:\n        /* \"blockscout-verified/11155111/0x4f4D8dFCebb3a78a9eBFd12dBa928197cFe78E78/Sale/Sale.sol\":1957:1971  uint256 tokens */\n      0x00\n        /* \"blockscout-verified/11155111/0x4f4D8dFCebb3a78a9eBFd12dBa928197cFe78E78/Sale/Sale.sol\":1974:1993  ethAmount.mul(rate) */\n      tag_133\n        /* \"blockscout-verified/11155111/0x4f4D8dFCebb3a78a9eBFd12dBa928197cFe78E78/Sale/Sale.sol\":1988:1992  rate */\n      sload(0x02)\n        /* \"blockscout-verified/11155111/0x4f4D8dFCebb3a78a9eBFd12dBa928197cFe78E78/Sale/Sale.sol\":1974:1983  ethAmount */\n      dup4\n        /* \"blockscout-verified/11155111/0x4f4D8dFCebb3a78a9eBFd12dBa928197cFe78E78/Sale/Sale.sol\":1974:1987  ethAmount.mul */\n      tag_134\n      swap1\n        /* \"blockscout-verified/11155111/0x4f4D8dFCebb3a78a9eBFd12dBa928197cFe78E78/Sale/Sale.sol\":1974:1993  ethAmount.mul(rate) */\n      swap2\n      swap1\n      0xffffffff\n      and\n      jump\t// in\n    tag_133:\n        /* \"blockscout-verified/11155111/0x4f4D8dFCebb3a78a9eBFd12dBa928197cFe78E78/Sale/Sale.sol\":1957:1993  uint256 tokens = ethAmount.mul(rate) */\n      swap1\n      pop\n        /* \"blockscout-verified/11155111/0x4f4D8dFCebb3a78a9eBFd12dBa928197cFe78E78/Sale/Sale.sol\":2050:2056  tokens */\n      dup1\n        /* \"blockscout-verified/11155111/0x4f4D8dFCebb3a78a9eBFd12dBa928197cFe78E78/Sale/Sale.sol\":2012:2021  starToken */\n      0x01\n      0x00\n      swap1\n      sload\n      swap1\n      0x0100\n      exp\n      swap1\n      div\n      0xffffffffffffffffffffffffffffffffffffffff\n      and\n        /* \"blockscout-verified/11155111/0x4f4D8dFCebb3a78a9eBFd12dBa928197cFe78E78/Sale/Sale.sol\":2012:2031  starToken.balanceOf */\n      0xffffffffffffffffffffffffffffffffffffffff\n      and\n      0x70a08231\n        /* \"blockscout-verified/11155111/0x4f4D8dFCebb3a78a9eBFd12dBa928197cFe78E78/Sale/Sale.sol\":2040:2044  this */\n      address\n        /* \"blockscout-verified/11155111/0x4f4D8dFCebb3a78a9eBFd12dBa928197cFe78E78/Sale/Sale.sol\":2012:2046  starToken.balanceOf(address(this)) */\n      mload(0x40)\n      dup3\n      0xffffffff\n      and\n      0xe0\n      shl\n      dup2\n      mstore\n      0x04\n      add\n      tag_135\n      swap2\n      swap1\n      tag_56\n      jump\t// in\n    tag_135:\n      0x20\n      mload(0x40)\n      dup1\n      dup4\n      sub\n      dup2\n      dup7\n      gas\n      staticcall\n      iszero\n      dup1\n      iszero\n      tag_137\n      jumpi\n      returndatacopy(0x00, 0x00, returndatasize)\n      revert(0x00, returndatasize)\n    tag_137:\n      pop\n      pop\n      pop\n      pop\n      mload(0x40)\n      returndatasize\n      not(0x1f)\n      0x1f\n      dup3\n      add\n      and\n      dup3\n      add\n      dup1\n      0x40\n      mstore\n      pop\n      dup2\n      add\n      swap1\n      tag_138\n      swap2\n      swap1\n      tag_139\n      jump\t// in\n    tag_138:\n        /* \"blockscout-verified/11155111/0x4f4D8dFCebb3a78a9eBFd12dBa928197cFe78E78/Sale/Sale.sol\":2012:2056  starToken.balanceOf(address(this)) >= tokens */\n      lt\n      iszero\n        /* \"blockscout-verified/11155111/0x4f4D8dFCebb3a78a9eBFd12dBa928197cFe78E78/Sale/Sale.sol\":2004:2089  require(starToken.balanceOf(address(this)) >= tokens, \"Insufficient tokens for sale\") */\n      tag_140\n      jumpi\n      mload(0x40)\n      0x08c379a000000000000000000000000000000000000000000000000000000000\n      dup2\n      mstore\n      0x04\n      add\n      tag_141\n      swap1\n      tag_142\n      jump\t// in\n    tag_141:\n      mload(0x40)\n      dup1\n      swap2\n      sub\n      swap1\n      revert\n    tag_140:\n        /* \"blockscout-verified/11155111/0x4f4D8dFCebb3a78a9eBFd12dBa928197cFe78E78/Sale/Sale.sol\":2140:2179  purchasedTokens[msg.sender].add(tokens) */\n      tag_143\n        /* \"blockscout-verified/11155111/0x4f4D8dFCebb3a78a9eBFd12dBa928197cFe78E78/Sale/Sale.sol\":2172:2178  tokens */\n      dup2\n        /* \"blockscout-verified/11155111/0x4f4D8dFCebb3a78a9eBFd12dBa928197cFe78E78/Sale/Sale.sol\":2140:2155  purchasedTokens */\n      0x04\n        /* \"blockscout-verified/11155111/0x4f4D8dFCebb3a78a9eBFd12dBa928197cFe78E78/Sale/Sale.sol\":2140:2167  purchasedTokens[msg.sender] */\n      0x00\n        /* \"blockscout-verified/11155111/0x4f4D8dFCebb3a78a9eBFd12dBa928197cFe78E78/Sale/Sale.sol\":2156:2166  msg.sender */\n      caller\n        /* \"blockscout-verified/11155111/0x4f4D8dFCebb3a78a9eBFd12dBa928197cFe78E78/Sale/Sale.sol\":2140:2167  purchasedTokens[msg.sender] */\n      0xffffffffffffffffffffffffffffffffffffffff\n      and\n      0xffffffffffffffffffffffffffffffffffffffff\n      and\n      dup2\n      mstore\n      0x20\n      add\n      swap1\n      dup2\n      mstore\n      0x20\n      add\n      0x00\n      keccak256\n      sload\n        /* \"blockscout-verified/11155111/0x4f4D8dFCebb3a78a9eBFd12dBa928197cFe78E78/Sale/Sale.sol\":2140:2171  purchasedTokens[msg.sender].add */\n      tag_144\n      swap1\n        /* \"blockscout-verified/11155111/0x4f4D8dFCebb3a78a9eBFd12dBa928197cFe78E78/Sale/Sale.sol\":2140:2179  purchasedTokens[msg.sender].add(tokens) */\n      swap2\n      swap1\n      0xffffffff\n      and\n      jump\t// in\n    tag_143:\n        /* \"blockscout-verified/11155111/0x4f4D8dFCebb3a78a9eBFd12dBa928197cFe78E78/Sale/Sale.sol\":2110:2125  purchasedTokens */\n      0x04\n        /* \"blockscout-verified/11155111/0x4f4D8dFCebb3a78a9eBFd12dBa928197cFe78E78/Sale/Sale.sol\":2110:2137  purchasedTokens[msg.sender] */\n      0x00\n        /* \"blockscout-verified/11155111/0x4f4D8dFCebb3a78a9eBFd12dBa928197cFe78E78/Sale/Sale.sol\":2126:2136  msg.sender */\n      caller\n        /* \"blockscout-verified/11155111/0x4f4D8dFCebb3a78a9eBFd12dBa928197cFe78E78/Sale/Sale.sol\":2110:2137  purchasedTokens[msg.sender] */\n      0xffffffffffffffffffffffffffffffffffffffff\n      and\n      0xffffffffffffffffffffffffffffffffffffffff\n      and\n      dup2\n      mstore\n      0x20\n      add\n      swap1\n      dup2\n      mstore\n      0x20\n      add\n      0x00\n      keccak256\n        /* \"blockscout-verified/11155111/0x4f4D8dFCebb3a78a9eBFd12dBa928197cFe78E78/Sale/Sale.sol\":2110:2179  purchasedTokens[msg.sender] = purchasedTokens[msg.sender].add(tokens) */\n      dup2\n      swap1\n      sstore\n      pop\n        /* \"blockscout-verified/11155111/0x4f4D8dFCebb3a78a9eBFd12dBa928197cFe78E78/Sale/Sale.sol\":2213:2223  msg.sender */\n      caller\n        /* \"blockscout-verified/11155111/0x4f4D8dFCebb3a78a9eBFd12dBa928197cFe78E78/Sale/Sale.sol\":2197:2232  TokensPurchased(msg.sender, tokens) */\n      0xffffffffffffffffffffffffffffffffffffffff\n      and\n      0x8f28852646c20cc973d3a8218f7eefed58c25c909f78f0265af4818c3d4dc271\n        /* \"blockscout-verified/11155111/0x4f4D8dFCebb3a78a9eBFd12dBa928197cFe78E78/Sale/Sale.sol\":2225:2231  tokens */\n      dup3\n        /* \"blockscout-verified/11155111/0x4f4D8dFCebb3a78a9eBFd12dBa928197cFe78E78/Sale/Sale.sol\":2197:2232  TokensPurchased(msg.sender, tokens) */\n      mload(0x40)\n      tag_145\n      swap2\n      swap1\n      tag_26\n      jump\t// in\n    tag_145:\n      mload(0x40)\n      dup1\n      swap2\n      sub\n      swap1\n      log2\n        /* \"blockscout-verified/11155111/0x4f4D8dFCebb3a78a9eBFd12dBa928197cFe78E78/Sale/Sale.sol\":1834:2240  {... */\n      pop\n      pop\n        /* \"blockscout-verified/11155111/0x4f4D8dFCebb3a78a9eBFd12dBa928197cFe78E78/Sale/Sale.sol\":1777:2240  function buyTokens() external payable onlyWhenSaleActive {... */\n      jump\t// out\n        /* \"blockscout-verified/11155111/0x4f4D8dFCebb3a78a9eBFd12dBa928197cFe78E78/Sale/Sale.sol\":1215:1415  function depositTokens(uint256 _amount) external onlyOwner {... */\n    tag_72:\n        /* \"@openzeppelin/contracts/access/Ownable.sol\":1531:1544  _checkOwner() */\n      tag_147\n        /* \"@openzeppelin/contracts/access/Ownable.sol\":1531:1542  _checkOwner */\n      tag_79\n        /* \"@openzeppelin/contracts/access/Ownable.sol\":1531:1544  _checkOwner() */\n      jump\t// in\n    tag_147:\n        /* \"blockscout-verified/11155111/0x4f4D8dFCebb3a78a9eBFd12dBa928197cFe78E78/Sale/Sale.sol\":1303:1304  0 */\n      0x00\n        /* \"blockscout-verified/11155111/0x4f4D8dFCebb3a78a9eBFd12dBa928197cFe78E78/Sale/Sale.sol\":1293:1300  _amount */\n      dup2\n        /* \"blockscout-verified/11155111/0x4f4D8dFCebb3a78a9eBFd12dBa928197cFe78E78/Sale/Sale.sol\":1293:1304  _amount > 0 */\n      gt\n        /* \"blockscout-verified/11155111/0x4f4D8dFCebb3a78a9eBFd12dBa928197cFe78E78/Sale/Sale.sol\":1285:1338  require(_amount > 0, \"Amount must be greater than 0\") */\n      tag_149\n      jumpi\n      mload(0x40)\n      0x08c379a000000000000000000000000000000000000000000000000000000000\n      dup2\n      mstore\n      0x04\n      add\n      tag_150\n      swap1\n      tag_94\n      jump\t// in\n    tag_150:\n      mload(0x40)\n      dup1\n      swap2\n      sub\n      swap1\n      revert\n    tag_149:\n        /* \"blockscout-verified/11155111/0x4f4D8dFCebb3a78a9eBFd12dBa928197cFe78E78/Sale/Sale.sol\":1349:1358  starToken */\n      0x01\n      0x00\n      swap1\n      sload\n      swap1\n      0x0100\n      exp\n      swap1\n      div\n      0xffffffffffffffffffffffffffffffffffffffff\n      and\n        /* \"blockscout-verified/11155111/0x4f4D8dFCebb3a78a9eBFd12dBa928197cFe78E78/Sale/Sale.sol\":1349:1371  starToken.transferFrom */\n      0xffffffffffffffffffffffffffffffffffffffff\n      and\n      0x23b872dd\n        /* \"blockscout-verified/11155111/0x4f4D8dFCebb3a78a9eBFd12dBa928197cFe78E78/Sale/Sale.sol\":1372:1382  msg.sender */\n      caller\n        /* \"blockscout-verified/11155111/0x4f4D8dFCebb3a78a9eBFd12dBa928197cFe78E78/Sale/Sale.sol\":1392:1396  this */\n      address\n        /* \"blockscout-verified/11155111/0x4f4D8dFCebb3a78a9eBFd12dBa928197cFe78E78/Sale/Sale.sol\":1399:1406  _amount */\n      dup5\n        /* \"blockscout-verified/11155111/0x4f4D8dFCebb3a78a9eBFd12dBa928197cFe78E78/Sale/Sale.sol\":1349:1407  starToken.transferFrom(msg.sender, address(this), _amount) */\n      mload(0x40)\n      dup5\n      0xffffffff\n      and\n      0xe0\n      shl\n      dup2\n      mstore\n      0x04\n      add\n      tag_151\n      swap4\n      swap3\n      swap2\n      swap1\n      tag_152\n      jump\t// in\n    tag_151:\n      0x20\n      mload(0x40)\n      dup1\n      dup4\n      sub\n      dup2\n      0x00\n      dup8\n      gas\n      call\n      iszero\n      dup1\n      iszero\n      tag_154\n      jumpi\n      returndatacopy(0x00, 0x00, returndatasize)\n      revert(0x00, returndatasize)\n    tag_154:\n      pop\n      pop\n      pop\n      pop\n      mload(0x40)\n      returndatasize\n      not(0x1f)\n      0x1f\n      dup3\n      add\n      and\n      dup3\n      add\n      dup1\n      0x40\n      mstore\n      pop\n      dup2\n      add\n      swap1\n      tag_155\n      swap2\n      swap1\n      tag_100\n      jump\t// in\n    tag_155:\n      pop\n        /* \"blockscout-verified/11155111/0x4f4D8dFCebb3a78a9eBFd12dBa928197cFe78E78/Sale/Sale.sol\":1215:1415  function depositTokens(uint256 _amount) external onlyOwner {... */\n      pop\n      jump\t// out\n        /* \"@openzeppelin/contracts/access/Ownable.sol\":2543:2758  function transferOwnership(address newOwner) public virtual onlyOwner {... */\n    tag_76:\n        /* \"@openzeppelin/contracts/access/Ownable.sol\":1531:1544  _checkOwner() */\n      tag_157\n        /* \"@openzeppelin/contracts/access/Ownable.sol\":1531:1542  _checkOwner */\n      tag_79\n        /* \"@openzeppelin/contracts/access/Ownable.sol\":1531:1544  _checkOwner() */\n      jump\t// in\n    tag_157:\n        /* \"@openzeppelin/contracts/access/Ownable.sol\":2647:2648  0 */\n      0x00\n        /* \"@openzeppelin/contracts/access/Ownable.sol\":2627:2649  newOwner == address(0) */\n      0xffffffffffffffffffffffffffffffffffffffff\n      and\n        /* \"@openzeppelin/contracts/access/Ownable.sol\":2627:2635  newOwner */\n      dup2\n        /* \"@openzeppelin/contracts/access/Ownable.sol\":2627:2649  newOwner == address(0) */\n      0xffffffffffffffffffffffffffffffffffffffff\n      and\n      sub\n        /* \"@openzeppelin/contracts/access/Ownable.sol\":2623:2714  if (newOwner == address(0)) {... */\n      tag_159\n      jumpi\n        /* \"@openzeppelin/contracts/access/Ownable.sol\":2700:2701  0 */\n      0x00\n        /* \"@openzeppelin/contracts/access/Ownable.sol\":2672:2703  OwnableInvalidOwner(address(0)) */\n      mload(0x40)\n      0x1e4fbdf700000000000000000000000000000000000000000000000000000000\n      dup2\n      mstore\n      0x04\n      add\n      tag_160\n      swap2\n      swap1\n      tag_56\n      jump\t// in\n    tag_160:\n      mload(0x40)\n      dup1\n      swap2\n      sub\n      swap1\n      revert\n        /* \"@openzeppelin/contracts/access/Ownable.sol\":2623:2714  if (newOwner == address(0)) {... */\n    tag_159:\n        /* \"@openzeppelin/contracts/access/Ownable.sol\":2723:2751  _transferOwnership(newOwner) */\n      tag_161\n        /* \"@openzeppelin/contracts/access/Ownable.sol\":2742:2750  newOwner */\n      dup2\n        /* \"@openzeppelin/contracts/access/Ownable.sol\":2723:2741  _transferOwnership */\n      tag_123\n        /* \"@openzeppelin/contracts/access/Ownable.sol\":2723:2751  _transferOwnership(newOwner) */\n      jump\t// in\n    tag_161:\n        /* \"@openzeppelin/contracts/access/Ownable.sol\":2543:2758  function transferOwnership(address newOwner) public virtual onlyOwner {... */\n      pop\n      jump\t// out\n        /* \"@openzeppelin/contracts/access/Ownable.sol\":1796:1958  function _checkOwner() internal view virtual {... */\n    tag_79:\n        /* \"@openzeppelin/contracts/access/Ownable.sol\":1866:1878  _msgSender() */\n      tag_163\n        /* \"@openzeppelin/contracts/access/Ownable.sol\":1866:1876  _msgSender */\n      tag_164\n        /* \"@openzeppelin/contracts/access/Ownable.sol\":1866:1878  _msgSender() */\n      jump\t// in\n    tag_163:\n        /* \"@openzeppelin/contracts/access/Ownable.sol\":1855:1878  owner() != _msgSender() */\n      0xffffffffffffffffffffffffffffffffffffffff\n      and\n        /* \"@openzeppelin/contracts/access/Ownable.sol\":1855:1862  owner() */\n      tag_165\n        /* \"@openzeppelin/contracts/access/Ownable.sol\":1855:1860  owner */\n      tag_54\n        /* \"@openzeppelin/contracts/access/Ownable.sol\":1855:1862  owner() */\n      jump\t// in\n    tag_165:\n        /* \"@openzeppelin/contracts/access/Ownable.sol\":1855:1878  owner() != _msgSender() */\n      0xffffffffffffffffffffffffffffffffffffffff\n      and\n      eq\n        /* \"@openzeppelin/contracts/access/Ownable.sol\":1851:1952  if (owner() != _msgSender()) {... */\n      tag_166\n      jumpi\n        /* \"@openzeppelin/contracts/access/Ownable.sol\":1928:1940  _msgSender() */\n      tag_167\n        /* \"@openzeppelin/contracts/access/Ownable.sol\":1928:1938  _msgSender */\n      tag_164\n        /* \"@openzeppelin/contracts/access/Ownable.sol\":1928:1940  _msgSender() */\n      jump\t// in\n    tag_167:\n        /* \"@openzeppelin/contracts/access/Ownable.sol\":1901:1941  OwnableUnauthorizedAccount(_msgSender()) */\n      mload(0x40)\n      0x118cdaa700000000000000000000000000000000000000000000000000000000\n      dup2\n      mstore\n      0x04\n      add\n      tag_168\n      swap2\n      swap1\n      tag_56\n      jump\t// in\n    tag_168:\n      mload(0x40)\n      dup1\n      swap2\n      sub\n      swap1\n      revert\n        /* \"@openzeppelin/contracts/access/Ownable.sol\":1851:1952  if (owner() != _msgSender()) {... */\n    tag_166:\n        /* \"@openzeppelin/contracts/access/Ownable.sol\":1796:1958  function _checkOwner() internal view virtual {... */\n      jump\t// out\n        /* \"@openzeppelin/contracts/access/Ownable.sol\":2912:3099  function _transferOwnership(address newOwner) internal virtual {... */\n    tag_123:\n        /* \"@openzeppelin/contracts/access/Ownable.sol\":2985:3001  address oldOwner */\n      0x00\n        /* \"@openzeppelin/contracts/access/Ownable.sol\":3004:3010  _owner */\n      0x00\n      0x00\n      swap1\n      sload\n      swap1\n      0x0100\n      exp\n      swap1\n      div\n      0xffffffffffffffffffffffffffffffffffffffff\n      and\n        /* \"@openzeppelin/contracts/access/Ownable.sol\":2985:3010  address oldOwner = _owner */\n      swap1\n      pop\n        /* \"@openzeppelin/contracts/access/Ownable.sol\":3029:3037  newOwner */\n      dup2\n        /* \"@openzeppelin/contracts/access/Ownable.sol\":3020:3026  _owner */\n      0x00\n      0x00\n        /* \"@openzeppelin/contracts/access/Ownable.sol\":3020:3037  _owner = newOwner */\n      0x0100\n      exp\n      dup2\n      sload\n      dup2\n      0xffffffffffffffffffffffffffffffffffffffff\n      mul\n      not\n      and\n      swap1\n      dup4\n      0xffffffffffffffffffffffffffffffffffffffff\n      and\n      mul\n      or\n      swap1\n      sstore\n      pop\n        /* \"@openzeppelin/contracts/access/Ownable.sol\":3083:3091  newOwner */\n      dup2\n        /* \"@openzeppelin/contracts/access/Ownable.sol\":3052:3092  OwnershipTransferred(oldOwner, newOwner) */\n      0xffffffffffffffffffffffffffffffffffffffff\n      and\n        /* \"@openzeppelin/contracts/access/Ownable.sol\":3073:3081  oldOwner */\n      dup2\n        /* \"@openzeppelin/contracts/access/Ownable.sol\":3052:3092  OwnershipTransferred(oldOwner, newOwner) */\n      0xffffffffffffffffffffffffffffffffffffffff\n      and\n      0x8be0079c531659141344cd1fd0a4f28419497f9722a3daafe3b4186f6b6457e0\n      mload(0x40)\n      mload(0x40)\n      dup1\n      swap2\n      sub\n      swap1\n      log3\n        /* \"@openzeppelin/contracts/access/Ownable.sol\":2975:3099  {... */\n      pop\n        /* \"@openzeppelin/contracts/access/Ownable.sol\":2912:3099  function _transferOwnership(address newOwner) internal virtual {... */\n      pop\n      jump\t// out\n        /* \"@openzeppelin/contracts/utils/math/SafeMath.sol\":3465:3561  function mul(uint256 a, uint256 b) internal pure returns (uint256) {... */\n    tag_134:\n        /* \"@openzeppelin/contracts/utils/math/SafeMath.sol\":3523:3530  uint256 */\n      0x00\n        /* \"@openzeppelin/contracts/utils/math/SafeMath.sol\":3553:3554  b */\n      dup2\n        /* \"@openzeppelin/contracts/utils/math/SafeMath.sol\":3549:3550  a */\n      dup4\n        /* \"@openzeppelin/contracts/utils/math/SafeMath.sol\":3549:3554  a * b */\n      tag_171\n      swap2\n      swap1\n      tag_172\n      jump\t// in\n    tag_171:\n        /* \"@openzeppelin/contracts/utils/math/SafeMath.sol\":3542:3554  return a * b */\n      swap1\n      pop\n        /* \"@openzeppelin/contracts/utils/math/SafeMath.sol\":3465:3561  function mul(uint256 a, uint256 b) internal pure returns (uint256) {... */\n      swap3\n      swap2\n      pop\n      pop\n      jump\t// out\n        /* \"@openzeppelin/contracts/utils/math/SafeMath.sol\":2755:2851  function add(uint256 a, uint256 b) internal pure returns (uint256) {... */\n    tag_144:\n        /* \"@openzeppelin/contracts/utils/math/SafeMath.sol\":2813:2820  uint256 */\n      0x00\n        /* \"@openzeppelin/contracts/utils/math/SafeMath.sol\":2843:2844  b */\n      dup2\n        /* \"@openzeppelin/contracts/utils/math/SafeMath.sol\":2839:2840  a */\n      dup4\n        /* \"@openzeppelin/contracts/utils/math/SafeMath.sol\":2839:2844  a + b */\n      tag_174\n      swap2\n      swap1\n      tag_175\n      jump\t// in\n    tag_174:\n        /* \"@openzeppelin/contracts/utils/math/SafeMath.sol\":2832:2844  return a + b */\n      swap1\n      pop\n        /* \"@openzeppelin/contracts/utils/math/SafeMath.sol\":2755:2851  function add(uint256 a, uint256 b) internal pure returns (uint256) {... */\n      swap3\n      swap2\n      pop\n      pop\n      jump\t// out\n        /* \"@openzeppelin/contracts/utils/Context.sol\":656:752  function _msgSender() internal view virtual returns (address) {... */\n    tag_164:\n        /* \"@openzeppelin/contracts/utils/Context.sol\":709:716  address */\n      0x00\n        /* \"@openzeppelin/contracts/utils/Context.sol\":735:745  msg.sender */\n      caller\n        /* \"@openzeppelin/contracts/utils/Context.sol\":728:745  return msg.sender */\n      swap1\n      pop\n        /* \"@openzeppelin/contracts/utils/Context.sol\":656:752  function _msgSender() internal view virtual returns (address) {... */\n      swap1\n      jump\t// out\n        /* \"#utility.yul\":7:84   */\n    tag_177:\n        /* \"#utility.yul\":44:51   */\n      0x00\n        /* \"#utility.yul\":73:78   */\n      dup2\n        /* \"#utility.yul\":62:78   */\n      swap1\n      pop\n        /* \"#utility.yul\":7:84   */\n      swap2\n      swap1\n      pop\n      jump\t// out\n        /* \"#utility.yul\":90:208   */\n    tag_178:\n        /* \"#utility.yul\":177:201   */\n      tag_225\n        /* \"#utility.yul\":195:200   */\n      dup2\n        /* \"#utility.yul\":177:201   */\n      tag_177\n      jump\t// in\n    tag_225:\n        /* \"#utility.yul\":172:175   */\n      dup3\n        /* \"#utility.yul\":165:202   */\n      mstore\n        /* \"#utility.yul\":90:208   */\n      pop\n      pop\n      jump\t// out\n        /* \"#utility.yul\":214:436   */\n    tag_26:\n        /* \"#utility.yul\":307:311   */\n      0x00\n        /* \"#utility.yul\":345:347   */\n      0x20\n        /* \"#utility.yul\":334:343   */\n      dup3\n        /* \"#utility.yul\":330:348   */\n      add\n        /* \"#utility.yul\":322:348   */\n      swap1\n      pop\n        /* \"#utility.yul\":358:429   */\n      tag_227\n        /* \"#utility.yul\":426:427   */\n      0x00\n        /* \"#utility.yul\":415:424   */\n      dup4\n        /* \"#utility.yul\":411:428   */\n      add\n        /* \"#utility.yul\":402:408   */\n      dup5\n        /* \"#utility.yul\":358:429   */\n      tag_178\n      jump\t// in\n    tag_227:\n        /* \"#utility.yul\":214:436   */\n      swap3\n      swap2\n      pop\n      pop\n      jump\t// out\n        /* \"#utility.yul\":523:640   */\n    tag_180:\n        /* \"#utility.yul\":632:633   */\n      0x00\n        /* \"#utility.yul\":629:630   */\n      0x00\n        /* \"#utility.yul\":622:634   */\n      revert\n        /* \"#utility.yul\":769:891   */\n    tag_182:\n        /* \"#utility.yul\":842:866   */\n      tag_232\n        /* \"#utility.yul\":860:865   */\n      dup2\n        /* \"#utility.yul\":842:866   */\n      tag_177\n      jump\t// in\n    tag_232:\n        /* \"#utility.yul\":835:840   */\n      dup2\n        /* \"#utility.yul\":832:867   */\n      eq\n        /* \"#utility.yul\":822:885   */\n      tag_233\n      jumpi\n        /* \"#utility.yul\":881:882   */\n      0x00\n        /* \"#utility.yul\":878:879   */\n      0x00\n        /* \"#utility.yul\":871:883   */\n      revert\n        /* \"#utility.yul\":822:885   */\n    tag_233:\n        /* \"#utility.yul\":769:891   */\n      pop\n      jump\t// out\n        /* \"#utility.yul\":897:1036   */\n    tag_183:\n        /* \"#utility.yul\":943:948   */\n      0x00\n        /* \"#utility.yul\":981:987   */\n      dup2\n        /* \"#utility.yul\":968:988   */\n      calldataload\n        /* \"#utility.yul\":959:988   */\n      swap1\n      pop\n        /* \"#utility.yul\":997:1030   */\n      tag_235\n        /* \"#utility.yul\":1024:1029   */\n      dup2\n        /* \"#utility.yul\":997:1030   */\n      tag_182\n      jump\t// in\n    tag_235:\n        /* \"#utility.yul\":897:1036   */\n      swap3\n      swap2\n      pop\n      pop\n      jump\t// out\n        /* \"#utility.yul\":1042:1371   */\n    tag_30:\n        /* \"#utility.yul\":1101:1107   */\n      0x00\n        /* \"#utility.yul\":1150:1152   */\n      0x20\n        /* \"#utility.yul\":1138:1147   */\n      dup3\n        /* \"#utility.yul\":1129:1136   */\n      dup5\n        /* \"#utility.yul\":1125:1148   */\n      sub\n        /* \"#utility.yul\":1121:1153   */\n      slt\n        /* \"#utility.yul\":1118:1237   */\n      iszero\n      tag_237\n      jumpi\n        /* \"#utility.yul\":1156:1235   */\n      tag_238\n      tag_180\n      jump\t// in\n    tag_238:\n        /* \"#utility.yul\":1118:1237   */\n    tag_237:\n        /* \"#utility.yul\":1276:1277   */\n      0x00\n        /* \"#utility.yul\":1301:1354   */\n      tag_239\n        /* \"#utility.yul\":1346:1353   */\n      dup5\n        /* \"#utility.yul\":1337:1343   */\n      dup3\n        /* \"#utility.yul\":1326:1335   */\n      dup6\n        /* \"#utility.yul\":1322:1344   */\n      add\n        /* \"#utility.yul\":1301:1354   */\n      tag_183\n      jump\t// in\n    tag_239:\n        /* \"#utility.yul\":1291:1354   */\n      swap2\n      pop\n        /* \"#utility.yul\":1247:1364   */\n      pop\n        /* \"#utility.yul\":1042:1371   */\n      swap3\n      swap2\n      pop\n      pop\n      jump\t// out\n        /* \"#utility.yul\":1377:1503   */\n    tag_184:\n        /* \"#utility.yul\":1414:1421   */\n      0x00\n        /* \"#utility.yul\":1454:1496   */\n      0xffffffffffffffffffffffffffffffffffffffff\n        /* \"#utility.yul\":1447:1452   */\n      dup3\n        /* \"#utility.yul\":1443:1497   */\n      and\n        /* \"#utility.yul\":1432:1497   */\n      swap1\n      pop\n        /* \"#utility.yul\":1377:1503   */\n      swap2\n      swap1\n      pop\n      jump\t// out\n        /* \"#utility.yul\":1509:1605   */\n    tag_185:\n        /* \"#utility.yul\":1546:1553   */\n      0x00\n        /* \"#utility.yul\":1575:1599   */\n      tag_242\n        /* \"#utility.yul\":1593:1598   */\n      dup3\n        /* \"#utility.yul\":1575:1599   */\n      tag_184\n      jump\t// in\n    tag_242:\n        /* \"#utility.yul\":1564:1599   */\n      swap1\n      pop\n        /* \"#utility.yul\":1509:1605   */\n      swap2\n      swap1\n      pop\n      jump\t// out\n        /* \"#utility.yul\":1611:1733   */\n    tag_186:\n        /* \"#utility.yul\":1684:1708   */\n      tag_244\n        /* \"#utility.yul\":1702:1707   */\n      dup2\n        /* \"#utility.yul\":1684:1708   */\n      tag_185\n      jump\t// in\n    tag_244:\n        /* \"#utility.yul\":1677:1682   */\n      dup2\n        /* \"#utility.yul\":1674:1709   */\n      eq\n        /* \"#utility.yul\":1664:1727   */\n      tag_245\n      jumpi\n        /* \"#utility.yul\":1723:1724   */\n      0x00\n        /* \"#utility.yul\":1720:1721   */\n      0x00\n        /* \"#utility.yul\":1713:1725   */\n      revert\n        /* \"#utility.yul\":1664:1727   */\n    tag_245:\n        /* \"#utility.yul\":1611:1733   */\n      pop\n      jump\t// out\n        /* \"#utility.yul\":1739:1878   */\n    tag_187:\n        /* \"#utility.yul\":1785:1790   */\n      0x00\n        /* \"#utility.yul\":1823:1829   */\n      dup2\n        /* \"#utility.yul\":1810:1830   */\n      calldataload\n        /* \"#utility.yul\":1801:1830   */\n      swap1\n      pop\n        /* \"#utility.yul\":1839:1872   */\n      tag_247\n        /* \"#utility.yul\":1866:1871   */\n      dup2\n        /* \"#utility.yul\":1839:1872   */\n      tag_186\n      jump\t// in\n    tag_247:\n        /* \"#utility.yul\":1739:1878   */\n      swap3\n      swap2\n      pop\n      pop\n      jump\t// out\n        /* \"#utility.yul\":1884:2213   */\n    tag_41:\n        /* \"#utility.yul\":1943:1949   */\n      0x00\n        /* \"#utility.yul\":1992:1994   */\n      0x20\n        /* \"#utility.yul\":1980:1989   */\n      dup3\n        /* \"#utility.yul\":1971:1978   */\n      dup5\n        /* \"#utility.yul\":1967:1990   */\n      sub\n        /* \"#utility.yul\":1963:1995   */\n      slt\n        /* \"#utility.yul\":1960:2079   */\n      iszero\n      tag_249\n      jumpi\n        /* \"#utility.yul\":1998:2077   */\n      tag_250\n      tag_180\n      jump\t// in\n    tag_250:\n        /* \"#utility.yul\":1960:2079   */\n    tag_249:\n        /* \"#utility.yul\":2118:2119   */\n      0x00\n        /* \"#utility.yul\":2143:2196   */\n      tag_251\n        /* \"#utility.yul\":2188:2195   */\n      dup5\n        /* \"#utility.yul\":2179:2185   */\n      dup3\n        /* \"#utility.yul\":2168:2177   */\n      dup6\n        /* \"#utility.yul\":2164:2186   */\n      add\n        /* \"#utility.yul\":2143:2196   */\n      tag_187\n      jump\t// in\n    tag_251:\n        /* \"#utility.yul\":2133:2196   */\n      swap2\n      pop\n        /* \"#utility.yul\":2089:2206   */\n      pop\n        /* \"#utility.yul\":1884:2213   */\n      swap3\n      swap2\n      pop\n      pop\n      jump\t// out\n        /* \"#utility.yul\":2219:2323   */\n    tag_188:\n        /* \"#utility.yul\":2264:2271   */\n      0x00\n        /* \"#utility.yul\":2293:2317   */\n      tag_253\n        /* \"#utility.yul\":2311:2316   */\n      dup3\n        /* \"#utility.yul\":2293:2317   */\n      tag_184\n      jump\t// in\n    tag_253:\n        /* \"#utility.yul\":2282:2317   */\n      swap1\n      pop\n        /* \"#utility.yul\":2219:2323   */\n      swap2\n      swap1\n      pop\n      jump\t// out\n        /* \"#utility.yul\":2329:2471   */\n    tag_189:\n        /* \"#utility.yul\":2432:2464   */\n      tag_255\n        /* \"#utility.yul\":2458:2463   */\n      dup2\n        /* \"#utility.yul\":2432:2464   */\n      tag_188\n      jump\t// in\n    tag_255:\n        /* \"#utility.yul\":2427:2430   */\n      dup3\n        /* \"#utility.yul\":2420:2465   */\n      mstore\n        /* \"#utility.yul\":2329:2471   */\n      pop\n      pop\n      jump\t// out\n        /* \"#utility.yul\":2477:2731   */\n    tag_48:\n        /* \"#utility.yul\":2586:2590   */\n      0x00\n        /* \"#utility.yul\":2624:2626   */\n      0x20\n        /* \"#utility.yul\":2613:2622   */\n      dup3\n        /* \"#utility.yul\":2609:2627   */\n      add\n        /* \"#utility.yul\":2601:2627   */\n      swap1\n      pop\n        /* \"#utility.yul\":2637:2724   */\n      tag_257\n        /* \"#utility.yul\":2721:2722   */\n      0x00\n        /* \"#utility.yul\":2710:2719   */\n      dup4\n        /* \"#utility.yul\":2706:2723   */\n      add\n        /* \"#utility.yul\":2697:2703   */\n      dup5\n        /* \"#utility.yul\":2637:2724   */\n      tag_189\n      jump\t// in\n    tag_257:\n        /* \"#utility.yul\":2477:2731   */\n      swap3\n      swap2\n      pop\n      pop\n      jump\t// out\n        /* \"#utility.yul\":2737:2855   */\n    tag_190:\n        /* \"#utility.yul\":2824:2848   */\n      tag_259\n        /* \"#utility.yul\":2842:2847   */\n      dup2\n        /* \"#utility.yul\":2824:2848   */\n      tag_185\n      jump\t// in\n    tag_259:\n        /* \"#utility.yul\":2819:2822   */\n      dup3\n        /* \"#utility.yul\":2812:2849   */\n      mstore\n        /* \"#utility.yul\":2737:2855   */\n      pop\n      pop\n      jump\t// out\n        /* \"#utility.yul\":2861:3083   */\n    tag_56:\n        /* \"#utility.yul\":2954:2958   */\n      0x00\n        /* \"#utility.yul\":2992:2994   */\n      0x20\n        /* \"#utility.yul\":2981:2990   */\n      dup3\n        /* \"#utility.yul\":2977:2995   */\n      add\n        /* \"#utility.yul\":2969:2995   */\n      swap1\n      pop\n        /* \"#utility.yul\":3005:3076   */\n      tag_261\n        /* \"#utility.yul\":3073:3074   */\n      0x00\n        /* \"#utility.yul\":3062:3071   */\n      dup4\n        /* \"#utility.yul\":3058:3075   */\n      add\n        /* \"#utility.yul\":3049:3055   */\n      dup5\n        /* \"#utility.yul\":3005:3076   */\n      tag_190\n      jump\t// in\n    tag_261:\n        /* \"#utility.yul\":2861:3083   */\n      swap3\n      swap2\n      pop\n      pop\n      jump\t// out\n        /* \"#utility.yul\":3089:3179   */\n    tag_191:\n        /* \"#utility.yul\":3123:3130   */\n      0x00\n        /* \"#utility.yul\":3166:3171   */\n      dup2\n        /* \"#utility.yul\":3159:3172   */\n      iszero\n        /* \"#utility.yul\":3152:3173   */\n      iszero\n        /* \"#utility.yul\":3141:3173   */\n      swap1\n      pop\n        /* \"#utility.yul\":3089:3179   */\n      swap2\n      swap1\n      pop\n      jump\t// out\n        /* \"#utility.yul\":3185:3294   */\n    tag_192:\n        /* \"#utility.yul\":3266:3287   */\n      tag_264\n        /* \"#utility.yul\":3281:3286   */\n      dup2\n        /* \"#utility.yul\":3266:3287   */\n      tag_191\n      jump\t// in\n    tag_264:\n        /* \"#utility.yul\":3261:3264   */\n      dup3\n        /* \"#utility.yul\":3254:3288   */\n      mstore\n        /* \"#utility.yul\":3185:3294   */\n      pop\n      pop\n      jump\t// out\n        /* \"#utility.yul\":3300:3510   */\n    tag_61:\n        /* \"#utility.yul\":3387:3391   */\n      0x00\n        /* \"#utility.yul\":3425:3427   */\n      0x20\n        /* \"#utility.yul\":3414:3423   */\n      dup3\n        /* \"#utility.yul\":3410:3428   */\n      add\n        /* \"#utility.yul\":3402:3428   */\n      swap1\n      pop\n        /* \"#utility.yul\":3438:3503   */\n      tag_266\n        /* \"#utility.yul\":3500:3501   */\n      0x00\n        /* \"#utility.yul\":3489:3498   */\n      dup4\n        /* \"#utility.yul\":3485:3502   */\n      add\n        /* \"#utility.yul\":3476:3482   */\n      dup5\n        /* \"#utility.yul\":3438:3503   */\n      tag_192\n      jump\t// in\n    tag_266:\n        /* \"#utility.yul\":3300:3510   */\n      swap3\n      swap2\n      pop\n      pop\n      jump\t// out\n        /* \"#utility.yul\":3516:3576   */\n    tag_193:\n        /* \"#utility.yul\":3544:3547   */\n      0x00\n        /* \"#utility.yul\":3565:3570   */\n      dup2\n        /* \"#utility.yul\":3558:3570   */\n      swap1\n      pop\n        /* \"#utility.yul\":3516:3576   */\n      swap2\n      swap1\n      pop\n      jump\t// out\n        /* \"#utility.yul\":3582:3724   */\n    tag_194:\n        /* \"#utility.yul\":3632:3641   */\n      0x00\n        /* \"#utility.yul\":3665:3718   */\n      tag_269\n        /* \"#utility.yul\":3683:3717   */\n      tag_270\n        /* \"#utility.yul\":3692:3716   */\n      tag_271\n        /* \"#utility.yul\":3710:3715   */\n      dup5\n        /* \"#utility.yul\":3692:3716   */\n      tag_184\n      jump\t// in\n    tag_271:\n        /* \"#utility.yul\":3683:3717   */\n      tag_193\n      jump\t// in\n    tag_270:\n        /* \"#utility.yul\":3665:3718   */\n      tag_184\n      jump\t// in\n    tag_269:\n        /* \"#utility.yul\":3652:3718   */\n      swap1\n      pop\n        /* \"#utility.yul\":3582:3724   */\n      swap2\n      swap1\n      pop\n      jump\t// out\n        /* \"#utility.yul\":3730:3856   */\n    tag_195:\n        /* \"#utility.yul\":3780:3789   */\n      0x00\n        /* \"#utility.yul\":3813:3850   */\n      tag_273\n        /* \"#utility.yul\":3844:3849   */\n      dup3\n        /* \"#utility.yul\":3813:3850   */\n      tag_194\n      jump\t// in\n    tag_273:\n        /* \"#utility.yul\":3800:3850   */\n      swap1\n      pop\n        /* \"#utility.yul\":3730:3856   */\n      swap2\n      swap1\n      pop\n      jump\t// out\n        /* \"#utility.yul\":3862:4002   */\n    tag_196:\n        /* \"#utility.yul\":3926:3935   */\n      0x00\n        /* \"#utility.yul\":3959:3996   */\n      tag_275\n        /* \"#utility.yul\":3990:3995   */\n      dup3\n        /* \"#utility.yul\":3959:3996   */\n      tag_195\n      jump\t// in\n    tag_275:\n        /* \"#utility.yul\":3946:3996   */\n      swap1\n      pop\n        /* \"#utility.yul\":3862:4002   */\n      swap2\n      swap1\n      pop\n      jump\t// out\n        /* \"#utility.yul\":4008:4167   */\n    tag_197:\n        /* \"#utility.yul\":4109:4160   */\n      tag_277\n        /* \"#utility.yul\":4154:4159   */\n      dup2\n        /* \"#utility.yul\":4109:4160   */\n      tag_196\n      jump\t// in\n    tag_277:\n        /* \"#utility.yul\":4104:4107   */\n      dup3\n        /* \"#utility.yul\":4097:4161   */\n      mstore\n        /* \"#utility.yul\":4008:4167   */\n      pop\n      pop\n      jump\t// out\n        /* \"#utility.yul\":4173:4423   */\n    tag_66:\n        /* \"#utility.yul\":4280:4284   */\n      0x00\n        /* \"#utility.yul\":4318:4320   */\n      0x20\n        /* \"#utility.yul\":4307:4316   */\n      dup3\n        /* \"#utility.yul\":4303:4321   */\n      add\n        /* \"#utility.yul\":4295:4321   */\n      swap1\n      pop\n        /* \"#utility.yul\":4331:4416   */\n      tag_279\n        /* \"#utility.yul\":4413:4414   */\n      0x00\n        /* \"#utility.yul\":4402:4411   */\n      dup4\n        /* \"#utility.yul\":4398:4415   */\n      add\n        /* \"#utility.yul\":4389:4395   */\n      dup5\n        /* \"#utility.yul\":4331:4416   */\n      tag_197\n      jump\t// in\n    tag_279:\n        /* \"#utility.yul\":4173:4423   */\n      swap3\n      swap2\n      pop\n      pop\n      jump\t// out\n        /* \"#utility.yul\":4429:4576   */\n    tag_198:\n        /* \"#utility.yul\":4530:4541   */\n      0x00\n        /* \"#utility.yul\":4567:4570   */\n      dup2\n        /* \"#utility.yul\":4552:4570   */\n      swap1\n      pop\n        /* \"#utility.yul\":4429:4576   */\n      swap3\n      swap2\n      pop\n      pop\n      jump\t// out\n        /* \"#utility.yul\":4582:4696   */\n    tag_199:\n      pop\n      jump\t// out\n        /* \"#utility.yul\":4702:5100   */\n    tag_200:\n        /* \"#utility.yul\":4861:4864   */\n      0x00\n        /* \"#utility.yul\":4882:4965   */\n      tag_283\n        /* \"#utility.yul\":4963:4964   */\n      0x00\n        /* \"#utility.yul\":4958:4961   */\n      dup4\n        /* \"#utility.yul\":4882:4965   */\n      tag_198\n      jump\t// in\n    tag_283:\n        /* \"#utility.yul\":4875:4965   */\n      swap2\n      pop\n        /* \"#utility.yul\":4974:5067   */\n      tag_284\n        /* \"#utility.yul\":5063:5066   */\n      dup3\n        /* \"#utility.yul\":4974:5067   */\n      tag_199\n      jump\t// in\n    tag_284:\n        /* \"#utility.yul\":5092:5093   */\n      0x00\n        /* \"#utility.yul\":5087:5090   */\n      dup3\n        /* \"#utility.yul\":5083:5094   */\n      add\n        /* \"#utility.yul\":5076:5094   */\n      swap1\n      pop\n        /* \"#utility.yul\":4702:5100   */\n      swap2\n      swap1\n      pop\n      jump\t// out\n        /* \"#utility.yul\":5106:5485   */\n    tag_82:\n        /* \"#utility.yul\":5290:5293   */\n      0x00\n        /* \"#utility.yul\":5312:5459   */\n      tag_286\n        /* \"#utility.yul\":5455:5458   */\n      dup3\n        /* \"#utility.yul\":5312:5459   */\n      tag_200\n      jump\t// in\n    tag_286:\n        /* \"#utility.yul\":5305:5459   */\n      swap2\n      pop\n        /* \"#utility.yul\":5476:5479   */\n      dup2\n        /* \"#utility.yul\":5469:5479   */\n      swap1\n      pop\n        /* \"#utility.yul\":5106:5485   */\n      swap2\n      swap1\n      pop\n      jump\t// out\n        /* \"#utility.yul\":5491:5660   */\n    tag_201:\n        /* \"#utility.yul\":5575:5586   */\n      0x00\n        /* \"#utility.yul\":5609:5615   */\n      dup3\n        /* \"#utility.yul\":5604:5607   */\n      dup3\n        /* \"#utility.yul\":5597:5616   */\n      mstore\n        /* \"#utility.yul\":5649:5653   */\n      0x20\n        /* \"#utility.yul\":5644:5647   */\n      dup3\n        /* \"#utility.yul\":5640:5654   */\n      add\n        /* \"#utility.yul\":5625:5654   */\n      swap1\n      pop\n        /* \"#utility.yul\":5491:5660   */\n      swap3\n      swap2\n      pop\n      pop\n      jump\t// out\n        /* \"#utility.yul\":5666:5840   */\n    tag_202:\n        /* \"#utility.yul\":5806:5832   */\n      0x4661696c656420746f2077697468647261772066756e64730000000000000000\n        /* \"#utility.yul\":5802:5803   */\n      0x00\n        /* \"#utility.yul\":5794:5800   */\n      dup3\n        /* \"#utility.yul\":5790:5804   */\n      add\n        /* \"#utility.yul\":5783:5833   */\n      mstore\n        /* \"#utility.yul\":5666:5840   */\n      pop\n      jump\t// out\n        /* \"#utility.yul\":5846:6212   */\n    tag_203:\n        /* \"#utility.yul\":5988:5991   */\n      0x00\n        /* \"#utility.yul\":6009:6076   */\n      tag_290\n        /* \"#utility.yul\":6073:6075   */\n      0x18\n        /* \"#utility.yul\":6068:6071   */\n      dup4\n        /* \"#utility.yul\":6009:6076   */\n      tag_201\n      jump\t// in\n    tag_290:\n        /* \"#utility.yul\":6002:6076   */\n      swap2\n      pop\n        /* \"#utility.yul\":6085:6178   */\n      tag_291\n        /* \"#utility.yul\":6174:6177   */\n      dup3\n        /* \"#utility.yul\":6085:6178   */\n      tag_202\n      jump\t// in\n    tag_291:\n        /* \"#utility.yul\":6203:6205   */\n      0x20\n        /* \"#utility.yul\":6198:6201   */\n      dup3\n        /* \"#utility.yul\":6194:6206   */\n      add\n        /* \"#utility.yul\":6187:6206   */\n      swap1\n      pop\n        /* \"#utility.yul\":5846:6212   */\n      swap2\n      swap1\n      pop\n      jump\t// out\n        /* \"#utility.yul\":6218:6637   */\n    tag_88:\n        /* \"#utility.yul\":6384:6388   */\n      0x00\n        /* \"#utility.yul\":6422:6424   */\n      0x20\n        /* \"#utility.yul\":6411:6420   */\n      dup3\n        /* \"#utility.yul\":6407:6425   */\n      add\n        /* \"#utility.yul\":6399:6425   */\n      swap1\n      pop\n        /* \"#utility.yul\":6471:6480   */\n      dup2\n        /* \"#utility.yul\":6465:6469   */\n      dup2\n        /* \"#utility.yul\":6461:6481   */\n      sub\n        /* \"#utility.yul\":6457:6458   */\n      0x00\n        /* \"#utility.yul\":6446:6455   */\n      dup4\n        /* \"#utility.yul\":6442:6459   */\n      add\n        /* \"#utility.yul\":6435:6482   */\n      mstore\n        /* \"#utility.yul\":6499:6630   */\n      tag_293\n        /* \"#utility.yul\":6625:6629   */\n      dup2\n        /* \"#utility.yul\":6499:6630   */\n      tag_203\n      jump\t// in\n    tag_293:\n        /* \"#utility.yul\":6491:6630   */\n      swap1\n      pop\n        /* \"#utility.yul\":6218:6637   */\n      swap2\n      swap1\n      pop\n      jump\t// out\n        /* \"#utility.yul\":6643:6822   */\n    tag_204:\n        /* \"#utility.yul\":6783:6814   */\n      0x416d6f756e74206d7573742062652067726561746572207468616e2030000000\n        /* \"#utility.yul\":6779:6780   */\n      0x00\n        /* \"#utility.yul\":6771:6777   */\n      dup3\n        /* \"#utility.yul\":6767:6781   */\n      add\n        /* \"#utility.yul\":6760:6815   */\n      mstore\n        /* \"#utility.yul\":6643:6822   */\n      pop\n      jump\t// out\n        /* \"#utility.yul\":6828:7194   */\n    tag_205:\n        /* \"#utility.yul\":6970:6973   */\n      0x00\n        /* \"#utility.yul\":6991:7058   */\n      tag_296\n        /* \"#utility.yul\":7055:7057   */\n      0x1d\n        /* \"#utility.yul\":7050:7053   */\n      dup4\n        /* \"#utility.yul\":6991:7058   */\n      tag_201\n      jump\t// in\n    tag_296:\n        /* \"#utility.yul\":6984:7058   */\n      swap2\n      pop\n        /* \"#utility.yul\":7067:7160   */\n      tag_297\n        /* \"#utility.yul\":7156:7159   */\n      dup3\n        /* \"#utility.yul\":7067:7160   */\n      tag_204\n      jump\t// in\n    tag_297:\n        /* \"#utility.yul\":7185:7187   */\n      0x20\n        /* \"#utility.yul\":7180:7183   */\n      dup3\n        /* \"#utility.yul\":7176:7188   */\n      add\n        /* \"#utility.yul\":7169:7188   */\n      swap1\n      pop\n        /* \"#utility.yul\":6828:7194   */\n      swap2\n      swap1\n      pop\n      jump\t// out\n        /* \"#utility.yul\":7200:7619   */\n    tag_94:\n        /* \"#utility.yul\":7366:7370   */\n      0x00\n        /* \"#utility.yul\":7404:7406   */\n      0x20\n        /* \"#utility.yul\":7393:7402   */\n      dup3\n        /* \"#utility.yul\":7389:7407   */\n      add\n        /* \"#utility.yul\":7381:7407   */\n      swap1\n      pop\n        /* \"#utility.yul\":7453:7462   */\n      dup2\n        /* \"#utility.yul\":7447:7451   */\n      dup2\n        /* \"#utility.yul\":7443:7463   */\n      sub\n        /* \"#utility.yul\":7439:7440   */\n      0x00\n        /* \"#utility.yul\":7428:7437   */\n      dup4\n        /* \"#utility.yul\":7424:7441   */\n      add\n        /* \"#utility.yul\":7417:7464   */\n      mstore\n        /* \"#utility.yul\":7481:7612   */\n      tag_299\n        /* \"#utility.yul\":7607:7611   */\n      dup2\n        /* \"#utility.yul\":7481:7612   */\n      tag_205\n      jump\t// in\n    tag_299:\n        /* \"#utility.yul\":7473:7612   */\n      swap1\n      pop\n        /* \"#utility.yul\":7200:7619   */\n      swap2\n      swap1\n      pop\n      jump\t// out\n        /* \"#utility.yul\":7625:7957   */\n    tag_96:\n        /* \"#utility.yul\":7746:7750   */\n      0x00\n        /* \"#utility.yul\":7784:7786   */\n      0x40\n        /* \"#utility.yul\":7773:7782   */\n      dup3\n        /* \"#utility.yul\":7769:7787   */\n      add\n        /* \"#utility.yul\":7761:7787   */\n      swap1\n      pop\n        /* \"#utility.yul\":7797:7868   */\n      tag_301\n        /* \"#utility.yul\":7865:7866   */\n      0x00\n        /* \"#utility.yul\":7854:7863   */\n      dup4\n        /* \"#utility.yul\":7850:7867   */\n      add\n        /* \"#utility.yul\":7841:7847   */\n      dup6\n        /* \"#utility.yul\":7797:7868   */\n      tag_190\n      jump\t// in\n    tag_301:\n        /* \"#utility.yul\":7878:7950   */\n      tag_302\n        /* \"#utility.yul\":7946:7948   */\n      0x20\n        /* \"#utility.yul\":7935:7944   */\n      dup4\n        /* \"#utility.yul\":7931:7949   */\n      add\n        /* \"#utility.yul\":7922:7928   */\n      dup5\n        /* \"#utility.yul\":7878:7950   */\n      tag_178\n      jump\t// in\n    tag_302:\n        /* \"#utility.yul\":7625:7957   */\n      swap4\n      swap3\n      pop\n      pop\n      pop\n      jump\t// out\n        /* \"#utility.yul\":7963:8079   */\n    tag_206:\n        /* \"#utility.yul\":8033:8054   */\n      tag_304\n        /* \"#utility.yul\":8048:8053   */\n      dup2\n        /* \"#utility.yul\":8033:8054   */\n      tag_191\n      jump\t// in\n    tag_304:\n        /* \"#utility.yul\":8026:8031   */\n      dup2\n        /* \"#utility.yul\":8023:8055   */\n      eq\n        /* \"#utility.yul\":8013:8073   */\n      tag_305\n      jumpi\n        /* \"#utility.yul\":8069:8070   */\n      0x00\n        /* \"#utility.yul\":8066:8067   */\n      0x00\n        /* \"#utility.yul\":8059:8071   */\n      revert\n        /* \"#utility.yul\":8013:8073   */\n    tag_305:\n        /* \"#utility.yul\":7963:8079   */\n      pop\n      jump\t// out\n        /* \"#utility.yul\":8085:8222   */\n    tag_207:\n        /* \"#utility.yul\":8139:8144   */\n      0x00\n        /* \"#utility.yul\":8170:8176   */\n      dup2\n        /* \"#utility.yul\":8164:8177   */\n      mload\n        /* \"#utility.yul\":8155:8177   */\n      swap1\n      pop\n        /* \"#utility.yul\":8186:8216   */\n      tag_307\n        /* \"#utility.yul\":8210:8215   */\n      dup2\n        /* \"#utility.yul\":8186:8216   */\n      tag_206\n      jump\t// in\n    tag_307:\n        /* \"#utility.yul\":8085:8222   */\n      swap3\n      swap2\n      pop\n      pop\n      jump\t// out\n        /* \"#utility.yul\":8228:8573   */\n    tag_100:\n        /* \"#utility.yul\":8295:8301   */\n      0x00\n        /* \"#utility.yul\":8344:8346   */\n      0x20\n        /* \"#utility.yul\":8332:8341   */\n      dup3\n        /* \"#utility.yul\":8323:8330   */\n      dup5\n        /* \"#utility.yul\":8319:8342   */\n      sub\n        /* \"#utility.yul\":8315:8347   */\n      slt\n        /* \"#utility.yul\":8312:8431   */\n      iszero\n      tag_309\n      jumpi\n        /* \"#utility.yul\":8350:8429   */\n      tag_310\n      tag_180\n      jump\t// in\n    tag_310:\n        /* \"#utility.yul\":8312:8431   */\n    tag_309:\n        /* \"#utility.yul\":8470:8471   */\n      0x00\n        /* \"#utility.yul\":8495:8556   */\n      tag_311\n        /* \"#utility.yul\":8548:8555   */\n      dup5\n        /* \"#utility.yul\":8539:8545   */\n      dup3\n        /* \"#utility.yul\":8528:8537   */\n      dup6\n        /* \"#utility.yul\":8524:8546   */\n      add\n        /* \"#utility.yul\":8495:8556   */\n      tag_207\n      jump\t// in\n    tag_311:\n        /* \"#utility.yul\":8485:8556   */\n      swap2\n      pop\n        /* \"#utility.yul\":8441:8566   */\n      pop\n        /* \"#utility.yul\":8228:8573   */\n      swap3\n      swap2\n      pop\n      pop\n      jump\t// out\n        /* \"#utility.yul\":8579:8751   */\n    tag_208:\n        /* \"#utility.yul\":8719:8743   */\n      0x53616c652068617320616c726561647920656e64656400000000000000000000\n        /* \"#utility.yul\":8715:8716   */\n      0x00\n        /* \"#utility.yul\":8707:8713   */\n      dup3\n        /* \"#utility.yul\":8703:8717   */\n      add\n        /* \"#utility.yul\":8696:8744   */\n      mstore\n        /* \"#utility.yul\":8579:8751   */\n      pop\n      jump\t// out\n        /* \"#utility.yul\":8757:9123   */\n    tag_209:\n        /* \"#utility.yul\":8899:8902   */\n      0x00\n        /* \"#utility.yul\":8920:8987   */\n      tag_314\n        /* \"#utility.yul\":8984:8986   */\n      0x16\n        /* \"#utility.yul\":8979:8982   */\n      dup4\n        /* \"#utility.yul\":8920:8987   */\n      tag_201\n      jump\t// in\n    tag_314:\n        /* \"#utility.yul\":8913:8987   */\n      swap2\n      pop\n        /* \"#utility.yul\":8996:9089   */\n      tag_315\n        /* \"#utility.yul\":9085:9088   */\n      dup3\n        /* \"#utility.yul\":8996:9089   */\n      tag_208\n      jump\t// in\n    tag_315:\n        /* \"#utility.yul\":9114:9116   */\n      0x20\n        /* \"#utility.yul\":9109:9112   */\n      dup3\n        /* \"#utility.yul\":9105:9117   */\n      add\n        /* \"#utility.yul\":9098:9117   */\n      swap1\n      pop\n        /* \"#utility.yul\":8757:9123   */\n      swap2\n      swap1\n      pop\n      jump\t// out\n        /* \"#utility.yul\":9129:9548   */\n    tag_106:\n        /* \"#utility.yul\":9295:9299   */\n      0x00\n        /* \"#utility.yul\":9333:9335   */\n      0x20\n        /* \"#utility.yul\":9322:9331   */\n      dup3\n        /* \"#utility.yul\":9318:9336   */\n      add\n        /* \"#utility.yul\":9310:9336   */\n      swap1\n      pop\n        /* \"#utility.yul\":9382:9391   */\n      dup2\n        /* \"#utility.yul\":9376:9380   */\n      dup2\n        /* \"#utility.yul\":9372:9392   */\n      sub\n        /* \"#utility.yul\":9368:9369   */\n      0x00\n        /* \"#utility.yul\":9357:9366   */\n      dup4\n        /* \"#utility.yul\":9353:9370   */\n      add\n        /* \"#utility.yul\":9346:9393   */\n      mstore\n        /* \"#utility.yul\":9410:9541   */\n      tag_317\n        /* \"#utility.yul\":9536:9540   */\n      dup2\n        /* \"#utility.yul\":9410:9541   */\n      tag_209\n      jump\t// in\n    tag_317:\n        /* \"#utility.yul\":9402:9541   */\n      swap1\n      pop\n        /* \"#utility.yul\":9129:9548   */\n      swap2\n      swap1\n      pop\n      jump\t// out\n        /* \"#utility.yul\":9554:9724   */\n    tag_210:\n        /* \"#utility.yul\":9694:9716   */\n      0x53616c65206973206e6f74206f76657220796574000000000000000000000000\n        /* \"#utility.yul\":9690:9691   */\n      0x00\n        /* \"#utility.yul\":9682:9688   */\n      dup3\n        /* \"#utility.yul\":9678:9692   */\n      add\n        /* \"#utility.yul\":9671:9717   */\n      mstore\n        /* \"#utility.yul\":9554:9724   */\n      pop\n      jump\t// out\n        /* \"#utility.yul\":9730:10096   */\n    tag_211:\n        /* \"#utility.yul\":9872:9875   */\n      0x00\n        /* \"#utility.yul\":9893:9960   */\n      tag_320\n        /* \"#utility.yul\":9957:9959   */\n      0x14\n        /* \"#utility.yul\":9952:9955   */\n      dup4\n        /* \"#utility.yul\":9893:9960   */\n      tag_201\n      jump\t// in\n    tag_320:\n        /* \"#utility.yul\":9886:9960   */\n      swap2\n      pop\n        /* \"#utility.yul\":9969:10062   */\n      tag_321\n        /* \"#utility.yul\":10058:10061   */\n      dup3\n        /* \"#utility.yul\":9969:10062   */\n      tag_210\n      jump\t// in\n    tag_321:\n        /* \"#utility.yul\":10087:10089   */\n      0x20\n        /* \"#utility.yul\":10082:10085   */\n      dup3\n        /* \"#utility.yul\":10078:10090   */\n      add\n        /* \"#utility.yul\":10071:10090   */\n      swap1\n      pop\n        /* \"#utility.yul\":9730:10096   */\n      swap2\n      swap1\n      pop\n      jump\t// out\n        /* \"#utility.yul\":10102:10521   */\n    tag_110:\n        /* \"#utility.yul\":10268:10272   */\n      0x00\n        /* \"#utility.yul\":10306:10308   */\n      0x20\n        /* \"#utility.yul\":10295:10304   */\n      dup3\n        /* \"#utility.yul\":10291:10309   */\n      add\n        /* \"#utility.yul\":10283:10309   */\n      swap1\n      pop\n        /* \"#utility.yul\":10355:10364   */\n      dup2\n        /* \"#utility.yul\":10349:10353   */\n      dup2\n        /* \"#utility.yul\":10345:10365   */\n      sub\n        /* \"#utility.yul\":10341:10342   */\n      0x00\n        /* \"#utility.yul\":10330:10339   */\n      dup4\n        /* \"#utility.yul\":10326:10343   */\n      add\n        /* \"#utility.yul\":10319:10366   */\n      mstore\n        /* \"#utility.yul\":10383:10514   */\n      tag_323\n        /* \"#utility.yul\":10509:10513   */\n      dup2\n        /* \"#utility.yul\":10383:10514   */\n      tag_211\n      jump\t// in\n    tag_323:\n        /* \"#utility.yul\":10375:10514   */\n      swap1\n      pop\n        /* \"#utility.yul\":10102:10521   */\n      swap2\n      swap1\n      pop\n      jump\t// out\n        /* \"#utility.yul\":10527:10695   */\n    tag_212:\n        /* \"#utility.yul\":10667:10687   */\n      0x4e6f20746f6b656e7320746f20636c61696d0000000000000000000000000000\n        /* \"#utility.yul\":10663:10664   */\n      0x00\n        /* \"#utility.yul\":10655:10661   */\n      dup3\n        /* \"#utility.yul\":10651:10665   */\n      add\n        /* \"#utility.yul\":10644:10688   */\n      mstore\n        /* \"#utility.yul\":10527:10695   */\n      pop\n      jump\t// out\n        /* \"#utility.yul\":10701:11067   */\n    tag_213:\n        /* \"#utility.yul\":10843:10846   */\n      0x00\n        /* \"#utility.yul\":10864:10931   */\n      tag_326\n        /* \"#utility.yul\":10928:10930   */\n      0x12\n        /* \"#utility.yul\":10923:10926   */\n      dup4\n        /* \"#utility.yul\":10864:10931   */\n      tag_201\n      jump\t// in\n    tag_326:\n        /* \"#utility.yul\":10857:10931   */\n      swap2\n      pop\n        /* \"#utility.yul\":10940:11033   */\n      tag_327\n        /* \"#utility.yul\":11029:11032   */\n      dup3\n        /* \"#utility.yul\":10940:11033   */\n      tag_212\n      jump\t// in\n    tag_327:\n        /* \"#utility.yul\":11058:11060   */\n      0x20\n        /* \"#utility.yul\":11053:11056   */\n      dup3\n        /* \"#utility.yul\":11049:11061   */\n      add\n        /* \"#utility.yul\":11042:11061   */\n      swap1\n      pop\n        /* \"#utility.yul\":10701:11067   */\n      swap2\n      swap1\n      pop\n      jump\t// out\n        /* \"#utility.yul\":11073:11492   */\n    tag_113:\n        /* \"#utility.yul\":11239:11243   */\n      0x00\n        /* \"#utility.yul\":11277:11279   */\n      0x20\n        /* \"#utility.yul\":11266:11275   */\n      dup3\n        /* \"#utility.yul\":11262:11280   */\n      add\n        /* \"#utility.yul\":11254:11280   */\n      swap1\n      pop\n        /* \"#utility.yul\":11326:11335   */\n      dup2\n        /* \"#utility.yul\":11320:11324   */\n      dup2\n        /* \"#utility.yul\":11316:11336   */\n      sub\n        /* \"#utility.yul\":11312:11313   */\n      0x00\n        /* \"#utility.yul\":11301:11310   */\n      dup4\n        /* \"#utility.yul\":11297:11314   */\n      add\n        /* \"#utility.yul\":11290:11337   */\n      mstore\n        /* \"#utility.yul\":11354:11485   */\n      tag_329\n        /* \"#utility.yul\":11480:11484   */\n      dup2\n        /* \"#utility.yul\":11354:11485   */\n      tag_213\n      jump\t// in\n    tag_329:\n        /* \"#utility.yul\":11346:11485   */\n      swap1\n      pop\n        /* \"#utility.yul\":11073:11492   */\n      swap2\n      swap1\n      pop\n      jump\t// out\n        /* \"#utility.yul\":11498:11666   */\n    tag_214:\n        /* \"#utility.yul\":11638:11658   */\n      0x53616c65206973206e6f74206163746976650000000000000000000000000000\n        /* \"#utility.yul\":11634:11635   */\n      0x00\n        /* \"#utility.yul\":11626:11632   */\n      dup3\n        /* \"#utility.yul\":11622:11636   */\n      add\n        /* \"#utility.yul\":11615:11659   */\n      mstore\n        /* \"#utility.yul\":11498:11666   */\n      pop\n      jump\t// out\n        /* \"#utility.yul\":11672:12038   */\n    tag_215:\n        /* \"#utility.yul\":11814:11817   */\n      0x00\n        /* \"#utility.yul\":11835:11902   */\n      tag_332\n        /* \"#utility.yul\":11899:11901   */\n      0x12\n        /* \"#utility.yul\":11894:11897   */\n      dup4\n        /* \"#utility.yul\":11835:11902   */\n      tag_201\n      jump\t// in\n    tag_332:\n        /* \"#utility.yul\":11828:11902   */\n      swap2\n      pop\n        /* \"#utility.yul\":11911:12004   */\n      tag_333\n        /* \"#utility.yul\":12000:12003   */\n      dup3\n        /* \"#utility.yul\":11911:12004   */\n      tag_214\n      jump\t// in\n    tag_333:\n        /* \"#utility.yul\":12029:12031   */\n      0x20\n        /* \"#utility.yul\":12024:12027   */\n      dup3\n        /* \"#utility.yul\":12020:12032   */\n      add\n        /* \"#utility.yul\":12013:12032   */\n      swap1\n      pop\n        /* \"#utility.yul\":11672:12038   */\n      swap2\n      swap1\n      pop\n      jump\t// out\n        /* \"#utility.yul\":12044:12463   */\n    tag_128:\n        /* \"#utility.yul\":12210:12214   */\n      0x00\n        /* \"#utility.yul\":12248:12250   */\n      0x20\n        /* \"#utility.yul\":12237:12246   */\n      dup3\n        /* \"#utility.yul\":12233:12251   */\n      add\n        /* \"#utility.yul\":12225:12251   */\n      swap1\n      pop\n        /* \"#utility.yul\":12297:12306   */\n      dup2\n        /* \"#utility.yul\":12291:12295   */\n      dup2\n        /* \"#utility.yul\":12287:12307   */\n      sub\n        /* \"#utility.yul\":12283:12284   */\n      0x00\n        /* \"#utility.yul\":12272:12281   */\n      dup4\n        /* \"#utility.yul\":12268:12285   */\n      add\n        /* \"#utility.yul\":12261:12308   */\n      mstore\n        /* \"#utility.yul\":12325:12456   */\n      tag_335\n        /* \"#utility.yul\":12451:12455   */\n      dup2\n        /* \"#utility.yul\":12325:12456   */\n      tag_215\n      jump\t// in\n    tag_335:\n        /* \"#utility.yul\":12317:12456   */\n      swap1\n      pop\n        /* \"#utility.yul\":12044:12463   */\n      swap2\n      swap1\n      pop\n      jump\t// out\n        /* \"#utility.yul\":12469:12689   */\n    tag_216:\n        /* \"#utility.yul\":12609:12643   */\n      0x45544820616d6f756e74206d7573742062652067726561746572207468616e20\n        /* \"#utility.yul\":12605:12606   */\n      0x00\n        /* \"#utility.yul\":12597:12603   */\n      dup3\n        /* \"#utility.yul\":12593:12607   */\n      add\n        /* \"#utility.yul\":12586:12644   */\n      mstore\n        /* \"#utility.yul\":12678:12681   */\n      0x3000000000000000000000000000000000000000000000000000000000000000\n        /* \"#utility.yul\":12673:12675   */\n      0x20\n        /* \"#utility.yul\":12665:12671   */\n      dup3\n        /* \"#utility.yul\":12661:12676   */\n      add\n        /* \"#utility.yul\":12654:12682   */\n      mstore\n        /* \"#utility.yul\":12469:12689   */\n      pop\n      jump\t// out\n        /* \"#utility.yul\":12695:13061   */\n    tag_217:\n        /* \"#utility.yul\":12837:12840   */\n      0x00\n        /* \"#utility.yul\":12858:12925   */\n      tag_338\n        /* \"#utility.yul\":12922:12924   */\n      0x21\n        /* \"#utility.yul\":12917:12920   */\n      dup4\n        /* \"#utility.yul\":12858:12925   */\n      tag_201\n      jump\t// in\n    tag_338:\n        /* \"#utility.yul\":12851:12925   */\n      swap2\n      pop\n        /* \"#utility.yul\":12934:13027   */\n      tag_339\n        /* \"#utility.yul\":13023:13026   */\n      dup3\n        /* \"#utility.yul\":12934:13027   */\n      tag_216\n      jump\t// in\n    tag_339:\n        /* \"#utility.yul\":13052:13054   */\n      0x40\n        /* \"#utility.yul\":13047:13050   */\n      dup3\n        /* \"#utility.yul\":13043:13055   */\n      add\n        /* \"#utility.yul\":13036:13055   */\n      swap1\n      pop\n        /* \"#utility.yul\":12695:13061   */\n      swap2\n      swap1\n      pop\n      jump\t// out\n        /* \"#utility.yul\":13067:13486   */\n    tag_132:\n        /* \"#utility.yul\":13233:13237   */\n      0x00\n        /* \"#utility.yul\":13271:13273   */\n      0x20\n        /* \"#utility.yul\":13260:13269   */\n      dup3\n        /* \"#utility.yul\":13256:13274   */\n      add\n        /* \"#utility.yul\":13248:13274   */\n      swap1\n      pop\n        /* \"#utility.yul\":13320:13329   */\n      dup2\n        /* \"#utility.yul\":13314:13318   */\n      dup2\n        /* \"#utility.yul\":13310:13330   */\n      sub\n        /* \"#utility.yul\":13306:13307   */\n      0x00\n        /* \"#utility.yul\":13295:13304   */\n      dup4\n        /* \"#utility.yul\":13291:13308   */\n      add\n        /* \"#utility.yul\":13284:13331   */\n      mstore\n        /* \"#utility.yul\":13348:13479   */\n      tag_341\n        /* \"#utility.yul\":13474:13478   */\n      dup2\n        /* \"#utility.yul\":13348:13479   */\n      tag_217\n      jump\t// in\n    tag_341:\n        /* \"#utility.yul\":13340:13479   */\n      swap1\n      pop\n        /* \"#utility.yul\":13067:13486   */\n      swap2\n      swap1\n      pop\n      jump\t// out\n        /* \"#utility.yul\":13492:13635   */\n    tag_218:\n        /* \"#utility.yul\":13549:13554   */\n      0x00\n        /* \"#utility.yul\":13580:13586   */\n      dup2\n        /* \"#utility.yul\":13574:13587   */\n      mload\n        /* \"#utility.yul\":13565:13587   */\n      swap1\n      pop\n        /* \"#utility.yul\":13596:13629   */\n      tag_343\n        /* \"#utility.yul\":13623:13628   */\n      dup2\n        /* \"#utility.yul\":13596:13629   */\n      tag_182\n      jump\t// in\n    tag_343:\n        /* \"#utility.yul\":13492:13635   */\n      swap3\n      swap2\n      pop\n      pop\n      jump\t// out\n        /* \"#utility.yul\":13641:13992   */\n    tag_139:\n        /* \"#utility.yul\":13711:13717   */\n      0x00\n        /* \"#utility.yul\":13760:13762   */\n      0x20\n        /* \"#utility.yul\":13748:13757   */\n      dup3\n        /* \"#utility.yul\":13739:13746   */\n      dup5\n        /* \"#utility.yul\":13735:13758   */\n      sub\n        /* \"#utility.yul\":13731:13763   */\n      slt\n        /* \"#utility.yul\":13728:13847   */\n      iszero\n      tag_345\n      jumpi\n        /* \"#utility.yul\":13766:13845   */\n      tag_346\n      tag_180\n      jump\t// in\n    tag_346:\n        /* \"#utility.yul\":13728:13847   */\n    tag_345:\n        /* \"#utility.yul\":13886:13887   */\n      0x00\n        /* \"#utility.yul\":13911:13975   */\n      tag_347\n        /* \"#utility.yul\":13967:13974   */\n      dup5\n        /* \"#utility.yul\":13958:13964   */\n      dup3\n        /* \"#utility.yul\":13947:13956   */\n      dup6\n        /* \"#utility.yul\":13943:13965   */\n      add\n        /* \"#utility.yul\":13911:13975   */\n      tag_218\n      jump\t// in\n    tag_347:\n        /* \"#utility.yul\":13901:13975   */\n      swap2\n      pop\n        /* \"#utility.yul\":13857:13985   */\n      pop\n        /* \"#utility.yul\":13641:13992   */\n      swap3\n      swap2\n      pop\n      pop\n      jump\t// out\n        /* \"#utility.yul\":13998:14176   */\n    tag_219:\n        /* \"#utility.yul\":14138:14168   */\n      0x496e73756666696369656e7420746f6b656e7320666f722073616c6500000000\n        /* \"#utility.yul\":14134:14135   */\n      0x00\n        /* \"#utility.yul\":14126:14132   */\n      dup3\n        /* \"#utility.yul\":14122:14136   */\n      add\n        /* \"#utility.yul\":14115:14169   */\n      mstore\n        /* \"#utility.yul\":13998:14176   */\n      pop\n      jump\t// out\n        /* \"#utility.yul\":14182:14548   */\n    tag_220:\n        /* \"#utility.yul\":14324:14327   */\n      0x00\n        /* \"#utility.yul\":14345:14412   */\n      tag_350\n        /* \"#utility.yul\":14409:14411   */\n      0x1c\n        /* \"#utility.yul\":14404:14407   */\n      dup4\n        /* \"#utility.yul\":14345:14412   */\n      tag_201\n      jump\t// in\n    tag_350:\n        /* \"#utility.yul\":14338:14412   */\n      swap2\n      pop\n        /* \"#utility.yul\":14421:14514   */\n      tag_351\n        /* \"#utility.yul\":14510:14513   */\n      dup3\n        /* \"#utility.yul\":14421:14514   */\n      tag_219\n      jump\t// in\n    tag_351:\n        /* \"#utility.yul\":14539:14541   */\n      0x20\n        /* \"#utility.yul\":14534:14537   */\n      dup3\n        /* \"#utility.yul\":14530:14542   */\n      add\n        /* \"#utility.yul\":14523:14542   */\n      swap1\n      pop\n        /* \"#utility.yul\":14182:14548   */\n      swap2\n      swap1\n      pop\n      jump\t// out\n        /* \"#utility.yul\":14554:14973   */\n    tag_142:\n        /* \"#utility.yul\":14720:14724   */\n      0x00\n        /* \"#utility.yul\":14758:14760   */\n      0x20\n        /* \"#utility.yul\":14747:14756   */\n      dup3\n        /* \"#utility.yul\":14743:14761   */\n      add\n        /* \"#utility.yul\":14735:14761   */\n      swap1\n      pop\n        /* \"#utility.yul\":14807:14816   */\n      dup2\n        /* \"#utility.yul\":14801:14805   */\n      dup2\n        /* \"#utility.yul\":14797:14817   */\n      sub\n        /* \"#utility.yul\":14793:14794   */\n      0x00\n        /* \"#utility.yul\":14782:14791   */\n      dup4\n        /* \"#utility.yul\":14778:14795   */\n      add\n        /* \"#utility.yul\":14771:14818   */\n      mstore\n        /* \"#utility.yul\":14835:14966   */\n      tag_353\n        /* \"#utility.yul\":14961:14965   */\n      dup2\n        /* \"#utility.yul\":14835:14966   */\n      tag_220\n      jump\t// in\n    tag_353:\n        /* \"#utility.yul\":14827:14966   */\n      swap1\n      pop\n        /* \"#utility.yul\":14554:14973   */\n      swap2\n      swap1\n      pop\n      jump\t// out\n        /* \"#utility.yul\":14979:15421   */\n    tag_152:\n        /* \"#utility.yul\":15128:15132   */\n      0x00\n        /* \"#utility.yul\":15166:15168   */\n      0x60\n        /* \"#utility.yul\":15155:15164   */\n      dup3\n        /* \"#utility.yul\":15151:15169   */\n      add\n        /* \"#utility.yul\":15143:15169   */\n      swap1\n      pop\n        /* \"#utility.yul\":15179:15250   */\n      tag_355\n        /* \"#utility.yul\":15247:15248   */\n      0x00\n        /* \"#utility.yul\":15236:15245   */\n      dup4\n        /* \"#utility.yul\":15232:15249   */\n      add\n        /* \"#utility.yul\":15223:15229   */\n      dup7\n        /* \"#utility.yul\":15179:15250   */\n      tag_190\n      jump\t// in\n    tag_355:\n        /* \"#utility.yul\":15260:15332   */\n      tag_356\n        /* \"#utility.yul\":15328:15330   */\n      0x20\n        /* \"#utility.yul\":15317:15326   */\n      dup4\n        /* \"#utility.yul\":15313:15331   */\n      add\n        /* \"#utility.yul\":15304:15310   */\n      dup6\n        /* \"#utility.yul\":15260:15332   */\n      tag_190\n      jump\t// in\n    tag_356:\n        /* \"#utility.yul\":15342:15414   */\n      tag_357\n        /* \"#utility.yul\":15410:15412   */\n      0x40\n        /* \"#utility.yul\":15399:15408   */\n      dup4\n        /* \"#utility.yul\":15395:15413   */\n      add\n        /* \"#utility.yul\":15386:15392   */\n      dup5\n        /* \"#utility.yul\":15342:15414   */\n      tag_178\n      jump\t// in\n    tag_357:\n        /* \"#utility.yul\":14979:15421   */\n      swap5\n      swap4\n      pop\n      pop\n      pop\n      pop\n      jump\t// out\n        /* \"#utility.yul\":15427:15607   */\n    tag_221:\n        /* \"#utility.yul\":15475:15552   */\n      0x4e487b7100000000000000000000000000000000000000000000000000000000\n        /* \"#utility.yul\":15472:15473   */\n      0x00\n        /* \"#utility.yul\":15465:15553   */\n      mstore\n        /* \"#utility.yul\":15572:15576   */\n      0x11\n        /* \"#utility.yul\":15569:15570   */\n      0x04\n        /* \"#utility.yul\":15562:15577   */\n      mstore\n        /* \"#utility.yul\":15596:15600   */\n      0x24\n        /* \"#utility.yul\":15593:15594   */\n      0x00\n        /* \"#utility.yul\":15586:15601   */\n      revert\n        /* \"#utility.yul\":15613:16023   */\n    tag_172:\n        /* \"#utility.yul\":15653:15660   */\n      0x00\n        /* \"#utility.yul\":15676:15696   */\n      tag_360\n        /* \"#utility.yul\":15694:15695   */\n      dup3\n        /* \"#utility.yul\":15676:15696   */\n      tag_177\n      jump\t// in\n    tag_360:\n        /* \"#utility.yul\":15671:15696   */\n      swap2\n      pop\n        /* \"#utility.yul\":15710:15730   */\n      tag_361\n        /* \"#utility.yul\":15728:15729   */\n      dup4\n        /* \"#utility.yul\":15710:15730   */\n      tag_177\n      jump\t// in\n    tag_361:\n        /* \"#utility.yul\":15705:15730   */\n      swap3\n      pop\n        /* \"#utility.yul\":15765:15766   */\n      dup3\n        /* \"#utility.yul\":15762:15763   */\n      dup3\n        /* \"#utility.yul\":15758:15767   */\n      mul\n        /* \"#utility.yul\":15787:15817   */\n      tag_362\n        /* \"#utility.yul\":15805:15816   */\n      dup2\n        /* \"#utility.yul\":15787:15817   */\n      tag_177\n      jump\t// in\n    tag_362:\n        /* \"#utility.yul\":15776:15817   */\n      swap2\n      pop\n        /* \"#utility.yul\":15966:15967   */\n      dup3\n        /* \"#utility.yul\":15957:15964   */\n      dup3\n        /* \"#utility.yul\":15953:15968   */\n      div\n        /* \"#utility.yul\":15950:15951   */\n      dup5\n        /* \"#utility.yul\":15947:15969   */\n      eq\n        /* \"#utility.yul\":15927:15928   */\n      dup4\n        /* \"#utility.yul\":15920:15929   */\n      iszero\n        /* \"#utility.yul\":15900:15983   */\n      or\n        /* \"#utility.yul\":15877:16016   */\n      tag_363\n      jumpi\n        /* \"#utility.yul\":15996:16014   */\n      tag_364\n      tag_221\n      jump\t// in\n    tag_364:\n        /* \"#utility.yul\":15877:16016   */\n    tag_363:\n        /* \"#utility.yul\":15661:16023   */\n      pop\n        /* \"#utility.yul\":15613:16023   */\n      swap3\n      swap2\n      pop\n      pop\n      jump\t// out\n        /* \"#utility.yul\":16029:16220   */\n    tag_175:\n        /* \"#utility.yul\":16069:16072   */\n      0x00\n        /* \"#utility.yul\":16088:16108   */\n      tag_366\n        /* \"#utility.yul\":16106:16107   */\n      dup3\n        /* \"#utility.yul\":16088:16108   */\n      tag_177\n      jump\t// in\n    tag_366:\n        /* \"#utility.yul\":16083:16108   */\n      swap2\n      pop\n        /* \"#utility.yul\":16122:16142   */\n      tag_367\n        /* \"#utility.yul\":16140:16141   */\n      dup4\n        /* \"#utility.yul\":16122:16142   */\n      tag_177\n      jump\t// in\n    tag_367:\n        /* \"#utility.yul\":16117:16142   */\n      swap3\n      pop\n        /* \"#utility.yul\":16165:16166   */\n      dup3\n        /* \"#utility.yul\":16162:16163   */\n      dup3\n        /* \"#utility.yul\":16158:16167   */\n      add\n        /* \"#utility.yul\":16151:16167   */\n      swap1\n      pop\n        /* \"#utility.yul\":16186:16189   */\n      dup1\n        /* \"#utility.yul\":16183:16184   */\n      dup3\n        /* \"#utility.yul\":16180:16190   */\n      gt\n        /* \"#utility.yul\":16177:16213   */\n      iszero\n      tag_368\n      jumpi\n        /* \"#utility.yul\":16193:16211   */\n      tag_369\n      tag_221\n      jump\t// in\n    tag_369:\n        /* \"#utility.yul\":16177:16213   */\n    tag_368:\n        /* \"#utility.yul\":16029:16220   */\n      swap3\n      swap2\n      pop\n      pop\n      jump\t// out\n\n    auxdata: 0xa2646970667358221220b607a8af7d021b6532932b8cbde5f9d617c980785d39893b8241f4c9e872cc0064736f6c634300081e0033\n}\n",
				"bytecode": {
					"linkReferences": {},
					"object": "608060405234801561000f575f5ffd5b506040516119bb3803806119bb833981810160405281019061003191906103a3565b335f73ffffffffffffffffffffffffffffffffffffffff168173ffffffffffffffffffffffffffffffffffffffff16036100a2575f6040517f1e4fbdf700000000000000000000000000000000000000000000000000000000815260040161009991906103f0565b60405180910390fd5b6100b18161023860201b60201c565b505f73ffffffffffffffffffffffffffffffffffffffff168273ffffffffffffffffffffffffffffffffffffffff1603610120576040517f08c379a000000000000000000000000000000000000000000000000000000000815260040161011790610463565b60405180910390fd5b5f73ffffffffffffffffffffffffffffffffffffffff168173ffffffffffffffffffffffffffffffffffffffff160361018e576040517f08c379a0000000000000000000000000000000000000000000000000000000008152600401610185906104cb565b60405180910390fd5b8160035f6101000a81548173ffffffffffffffffffffffffffffffffffffffff021916908373ffffffffffffffffffffffffffffffffffffffff1602179055508060015f6101000a81548173ffffffffffffffffffffffffffffffffffffffff021916908373ffffffffffffffffffffffffffffffffffffffff1602179055506127106002819055505f600360146101000a81548160ff02191690831515021790555050506104e9565b5f5f5f9054906101000a900473ffffffffffffffffffffffffffffffffffffffff169050815f5f6101000a81548173ffffffffffffffffffffffffffffffffffffffff021916908373ffffffffffffffffffffffffffffffffffffffff1602179055508173ffffffffffffffffffffffffffffffffffffffff168173ffffffffffffffffffffffffffffffffffffffff167f8be0079c531659141344cd1fd0a4f28419497f9722a3daafe3b4186f6b6457e060405160405180910390a35050565b5f5ffd5b5f73ffffffffffffffffffffffffffffffffffffffff82169050919050565b5f610326826102fd565b9050919050565b6103368161031c565b8114610340575f5ffd5b50565b5f815190506103518161032d565b92915050565b5f610361826102fd565b9050919050565b5f61037282610357565b9050919050565b61038281610368565b811461038c575f5ffd5b50565b5f8151905061039d81610379565b92915050565b5f5f604083850312156103b9576103b86102f9565b5b5f6103c685828601610343565b92505060206103d78582860161038f565b9150509250929050565b6103ea81610357565b82525050565b5f6020820190506104035f8301846103e1565b92915050565b5f82825260208201905092915050565b7f57616c6c65742061646472657373206d757374206e6f74206265207a65726f005f82015250565b5f61044d601f83610409565b915061045882610419565b602082019050919050565b5f6020820190508181035f83015261047a81610441565b9050919050565b7f546f6b656e2061646472657373206d757374206e6f74206265207a65726f00005f82015250565b5f6104b5601e83610409565b91506104c082610481565b602082019050919050565b5f6020820190508181035f8301526104e2816104a9565b9050919050565b6114c5806104f65f395ff3fe6080604052600436106100dc575f3560e01c8063715018a61161007e578063b7ca51e811610058578063b7ca51e814610244578063d0febe4c1461026e578063dd49756e14610278578063f2fde38b146102a0576100dc565b8063715018a6146101da5780638da5cb5b146101f05780639b8906ae1461021a576100dc565b8063380d831b116100ba578063380d831b1461014857806348c54b9d1461015e5780634bae6f3f14610174578063521eb273146101b0576100dc565b806324600fc3146100e05780632c4e722e146100f6578063315a095d14610120575b5f5ffd5b3480156100eb575f5ffd5b506100f46102c8565b005b348015610101575f5ffd5b5061010a61039c565b6040516101179190610d48565b60405180910390f35b34801561012b575f5ffd5b5061014660048036038101906101419190610d8f565b6103a2565b005b348015610153575f5ffd5b5061015c61048c565b005b348015610169575f5ffd5b5061017261052d565b005b34801561017f575f5ffd5b5061019a60048036038101906101959190610e14565b61072f565b6040516101a79190610d48565b60405180910390f35b3480156101bb575f5ffd5b506101c4610744565b6040516101d19190610e5f565b60405180910390f35b3480156101e5575f5ffd5b506101ee610769565b005b3480156101fb575f5ffd5b5061020461077c565b6040516102119190610e87565b60405180910390f35b348015610225575f5ffd5b5061022e6107a3565b60405161023b9190610eba565b60405180910390f35b34801561024f575f5ffd5b506102586107b6565b6040516102659190610f2e565b60405180910390f35b6102766107db565b005b348015610283575f5ffd5b5061029e60048036038101906102999190610d8f565b610a47565b005b3480156102ab575f5ffd5b506102c660048036038101906102c19190610e14565b610b33565b005b6102d0610bb7565b5f60035f9054906101000a900473ffffffffffffffffffffffffffffffffffffffff1673ffffffffffffffffffffffffffffffffffffffff164760405161031690610f74565b5f6040518083038185875af1925050503d805f8114610350576040519150601f19603f3d011682016040523d82523d5f602084013e610355565b606091505b5050905080610399576040517f08c379a000000000000000000000000000000000000000000000000000000000815260040161039090610fe2565b60405180910390fd5b50565b60025481565b6103aa610bb7565b5f81116103ec576040517f08c379a00000000000000000000000000000000000000000000000000000000081526004016103e39061104a565b60405180910390fd5b60015f9054906101000a900473ffffffffffffffffffffffffffffffffffffffff1673ffffffffffffffffffffffffffffffffffffffff1663a9059cbb33836040518363ffffffff1660e01b8152600401610448929190611068565b6020604051808303815f875af1158015610464573d5f5f3e3d5ffd5b505050506040513d601f19601f8201168201806040525081019061048891906110b9565b5050565b610494610bb7565b600360149054906101000a900460ff16156104e4576040517f08c379a00000000000000000000000000000000000000000000000000000000081526004016104db9061112e565b60405180910390fd5b6001600360146101000a81548160ff0219169083151502179055507f0bd8a3eb532e5fbcd3f5b00335f0fb42fdc11969e9af0fab7c9e71a36ae0d31a60405160405180910390a1565b600360149054906101000a900460ff1661057c576040517f08c379a000000000000000000000000000000000000000000000000000000000815260040161057390611196565b60405180910390fd5b5f60045f3373ffffffffffffffffffffffffffffffffffffffff1673ffffffffffffffffffffffffffffffffffffffff1681526020019081526020015f205490505f81116105ff576040517f08c379a00000000000000000000000000000000000000000000000000000000081526004016105f6906111fe565b60405180910390fd5b5f60045f3373ffffffffffffffffffffffffffffffffffffffff1673ffffffffffffffffffffffffffffffffffffffff1681526020019081526020015f208190555060015f9054906101000a900473ffffffffffffffffffffffffffffffffffffffff1673ffffffffffffffffffffffffffffffffffffffff1663a9059cbb33836040518363ffffffff1660e01b815260040161069d929190611068565b6020604051808303815f875af11580156106b9573d5f5f3e3d5ffd5b505050506040513d601f19601f820116820180604052508101906106dd91906110b9565b503373ffffffffffffffffffffffffffffffffffffffff167f896e034966eaaf1adc54acc0f257056febbd300c9e47182cf761982cf1f5e430826040516107249190610d48565b60405180910390a250565b6004602052805f5260405f205f915090505481565b60035f9054906101000a900473ffffffffffffffffffffffffffffffffffffffff1681565b610771610bb7565b61077a5f610c3e565b565b5f5f5f9054906101000a900473ffffffffffffffffffffffffffffffffffffffff16905090565b600360149054906101000a900460ff1681565b60015f9054906101000a900473ffffffffffffffffffffffffffffffffffffffff1681565b600360149054906101000a900460ff161561082b576040517f08c379a000000000000000000000000000000000000000000000000000000000815260040161082290611266565b60405180910390fd5b5f3490505f8111610871576040517f08c379a0000000000000000000000000000000000000000000000000000000008152600401610868906112f4565b60405180910390fd5b5f61088760025483610cff90919063ffffffff16565b90508060015f9054906101000a900473ffffffffffffffffffffffffffffffffffffffff1673ffffffffffffffffffffffffffffffffffffffff166370a08231306040518263ffffffff1660e01b81526004016108e49190610e87565b602060405180830381865afa1580156108ff573d5f5f3e3d5ffd5b505050506040513d601f19601f820116820180604052508101906109239190611326565b1015610964576040517f08c379a000000000000000000000000000000000000000000000000000000000815260040161095b9061139b565b60405180910390fd5b6109b48160045f3373ffffffffffffffffffffffffffffffffffffffff1673ffffffffffffffffffffffffffffffffffffffff1681526020019081526020015f2054610d1490919063ffffffff16565b60045f3373ffffffffffffffffffffffffffffffffffffffff1673ffffffffffffffffffffffffffffffffffffffff1681526020019081526020015f20819055503373ffffffffffffffffffffffffffffffffffffffff167f8f28852646c20cc973d3a8218f7eefed58c25c909f78f0265af4818c3d4dc27182604051610a3b9190610d48565b60405180910390a25050565b610a4f610bb7565b5f8111610a91576040517f08c379a0000000000000000000000000000000000000000000000000000000008152600401610a889061104a565b60405180910390fd5b60015f9054906101000a900473ffffffffffffffffffffffffffffffffffffffff1673ffffffffffffffffffffffffffffffffffffffff166323b872dd3330846040518463ffffffff1660e01b8152600401610aef939291906113b9565b6020604051808303815f875af1158015610b0b573d5f5f3e3d5ffd5b505050506040513d601f19601f82011682018060405250810190610b2f91906110b9565b5050565b610b3b610bb7565b5f73ffffffffffffffffffffffffffffffffffffffff168173ffffffffffffffffffffffffffffffffffffffff1603610bab575f6040517f1e4fbdf7000000000000000000000000000000000000000000000000000000008152600401610ba29190610e87565b60405180910390fd5b610bb481610c3e565b50565b610bbf610d29565b73ffffffffffffffffffffffffffffffffffffffff16610bdd61077c565b73ffffffffffffffffffffffffffffffffffffffff1614610c3c57610c00610d29565b6040517f118cdaa7000000000000000000000000000000000000000000000000000000008152600401610c339190610e87565b60405180910390fd5b565b5f5f5f9054906101000a900473ffffffffffffffffffffffffffffffffffffffff169050815f5f6101000a81548173ffffffffffffffffffffffffffffffffffffffff021916908373ffffffffffffffffffffffffffffffffffffffff1602179055508173ffffffffffffffffffffffffffffffffffffffff168173ffffffffffffffffffffffffffffffffffffffff167f8be0079c531659141344cd1fd0a4f28419497f9722a3daafe3b4186f6b6457e060405160405180910390a35050565b5f8183610d0c919061141b565b905092915050565b5f8183610d21919061145c565b905092915050565b5f33905090565b5f819050919050565b610d4281610d30565b82525050565b5f602082019050610d5b5f830184610d39565b92915050565b5f5ffd5b610d6e81610d30565b8114610d78575f5ffd5b50565b5f81359050610d8981610d65565b92915050565b5f60208284031215610da457610da3610d61565b5b5f610db184828501610d7b565b91505092915050565b5f73ffffffffffffffffffffffffffffffffffffffff82169050919050565b5f610de382610dba565b9050919050565b610df381610dd9565b8114610dfd575f5ffd5b50565b5f81359050610e0e81610dea565b92915050565b5f60208284031215610e2957610e28610d61565b5b5f610e3684828501610e00565b91505092915050565b5f610e4982610dba565b9050919050565b610e5981610e3f565b82525050565b5f602082019050610e725f830184610e50565b92915050565b610e8181610dd9565b82525050565b5f602082019050610e9a5f830184610e78565b92915050565b5f8115159050919050565b610eb481610ea0565b82525050565b5f602082019050610ecd5f830184610eab565b92915050565b5f819050919050565b5f610ef6610ef1610eec84610dba565b610ed3565b610dba565b9050919050565b5f610f0782610edc565b9050919050565b5f610f1882610efd565b9050919050565b610f2881610f0e565b82525050565b5f602082019050610f415f830184610f1f565b92915050565b5f81905092915050565b50565b5f610f5f5f83610f47565b9150610f6a82610f51565b5f82019050919050565b5f610f7e82610f54565b9150819050919050565b5f82825260208201905092915050565b7f4661696c656420746f2077697468647261772066756e647300000000000000005f82015250565b5f610fcc601883610f88565b9150610fd782610f98565b602082019050919050565b5f6020820190508181035f830152610ff981610fc0565b9050919050565b7f416d6f756e74206d7573742062652067726561746572207468616e20300000005f82015250565b5f611034601d83610f88565b915061103f82611000565b602082019050919050565b5f6020820190508181035f83015261106181611028565b9050919050565b5f60408201905061107b5f830185610e78565b6110886020830184610d39565b9392505050565b61109881610ea0565b81146110a2575f5ffd5b50565b5f815190506110b38161108f565b92915050565b5f602082840312156110ce576110cd610d61565b5b5f6110db848285016110a5565b91505092915050565b7f53616c652068617320616c726561647920656e646564000000000000000000005f82015250565b5f611118601683610f88565b9150611123826110e4565b602082019050919050565b5f6020820190508181035f8301526111458161110c565b9050919050565b7f53616c65206973206e6f74206f766572207965740000000000000000000000005f82015250565b5f611180601483610f88565b915061118b8261114c565b602082019050919050565b5f6020820190508181035f8301526111ad81611174565b9050919050565b7f4e6f20746f6b656e7320746f20636c61696d00000000000000000000000000005f82015250565b5f6111e8601283610f88565b91506111f3826111b4565b602082019050919050565b5f6020820190508181035f830152611215816111dc565b9050919050565b7f53616c65206973206e6f742061637469766500000000000000000000000000005f82015250565b5f611250601283610f88565b915061125b8261121c565b602082019050919050565b5f6020820190508181035f83015261127d81611244565b9050919050565b7f45544820616d6f756e74206d7573742062652067726561746572207468616e205f8201527f3000000000000000000000000000000000000000000000000000000000000000602082015250565b5f6112de602183610f88565b91506112e982611284565b604082019050919050565b5f6020820190508181035f83015261130b816112d2565b9050919050565b5f8151905061132081610d65565b92915050565b5f6020828403121561133b5761133a610d61565b5b5f61134884828501611312565b91505092915050565b7f496e73756666696369656e7420746f6b656e7320666f722073616c65000000005f82015250565b5f611385601c83610f88565b915061139082611351565b602082019050919050565b5f6020820190508181035f8301526113b281611379565b9050919050565b5f6060820190506113cc5f830186610e78565b6113d96020830185610e78565b6113e66040830184610d39565b949350505050565b7f4e487b71000000000000000000000000000000000000000000000000000000005f52601160045260245ffd5b5f61142582610d30565b915061143083610d30565b925082820261143e81610d30565b91508282048414831517611455576114546113ee565b5b5092915050565b5f61146682610d30565b915061147183610d30565b9250828201905080821115611489576114886113ee565b5b9291505056fea2646970667358221220b607a8af7d021b6532932b8cbde5f9d617c980785d39893b8241f4c9e872cc0064736f6c634300081e0033",
					"opcodes": "PUSH1 0x80 PUSH1 0x40 MSTORE CALLVALUE DUP1 ISZERO PUSH2 0xF JUMPI PUSH0 PUSH0 REVERT JUMPDEST POP PUSH1 0x40 MLOAD PUSH2 0x19BB CODESIZE SUB DUP1 PUSH2 0x19BB DUP4 CODECOPY DUP2 DUP2 ADD PUSH1 0x40 MSTORE DUP2 ADD SWAP1 PUSH2 0x31 SWAP2 SWAP1 PUSH2 0x3A3 JUMP JUMPDEST CALLER PUSH0 PUSH20 0xFFFFFFFFFFFFFFFFFFFFFFFFFFFFFFFFFFFFFFFF AND DUP2 PUSH20 0xFFFFFFFFFFFFFFFFFFFFFFFFFFFFFFFFFFFFFFFF AND SUB PUSH2 0xA2 JUMPI PUSH0 PUSH1 0x40 MLOAD PUSH32 0x1E4FBDF700000000000000000000000000000000000000000000000000000000 DUP2 MSTORE PUSH1 0x4 ADD PUSH2 0x99 SWAP2 SWAP1 PUSH2 0x3F0 JUMP JUMPDEST PUSH1 0x40 MLOAD DUP1 SWAP2 SUB SWAP1 REVERT JUMPDEST PUSH2 0xB1 DUP2 PUSH2 0x238 PUSH1 0x20 SHL PUSH1 0x20 SHR JUMP JUMPDEST POP PUSH0 PUSH20 0xFFFFFFFFFFFFFFFFFFFFFFFFFFFFFFFFFFFFFFFF AND DUP3 PUSH20 0xFFFFFFFFFFFFFFFFFFFFFFFFFFFFFFFFFFFFFFFF AND SUB PUSH2 0x120 JUMPI PUSH1 0x40 MLOAD PUSH32 0x8C379A000000000000000000000000000000000000000000000000000000000 DUP2 MSTORE PUSH1 0x4 ADD PUSH2 0x117 SWAP1 PUSH2 0x463 JUMP JUMPDEST PUSH1 0x40 MLOAD DUP1 SWAP2 SUB SWAP1 REVERT JUMPDEST PUSH0 PUSH20 0xFFFFFFFFFFFFFFFFFFFFFFFFFFFFFFFFFFFFFFFF AND DUP2 PUSH20 0xFFFFFFFFFFFFFFFFFFFFFFFFFFFFFFFFFFFFFFFF AND SUB PUSH2 0x18E JUMPI PUSH1 0x40 MLOAD PUSH32 0x8C379A000000000000000000000000000000000000000000000000000000000 DUP2 MSTORE PUSH1 0x4 ADD PUSH2 0x185 SWAP1 PUSH2 0x4CB JUMP JUMPDEST PUSH1 0x40 MLOAD DUP1 SWAP2 SUB SWAP1 REVERT JUMPDEST DUP2 PUSH1 0x3 PUSH0 PUSH2 0x100 EXP DUP2 SLOAD DUP2 PUSH20 0xFFFFFFFFFFFFFFFFFFFFFFFFFFFFFFFFFFFFFFFF MUL NOT AND SWAP1 DUP4 PUSH20 0xFFFFFFFFFFFFFFFFFFFFFFFFFFFFFFFFFFFFFFFF AND MUL OR SWAP1 SSTORE POP DUP1 PUSH1 0x1 PUSH0 PUSH2 0x100 EXP DUP2 SLOAD DUP2 PUSH20 0xFFFFFFFFFFFFFFFFFFFFFFFFFFFFFFFFFFFFFFFF MUL NOT AND SWAP1 DUP4 PUSH20 0xFFFFFFFFFFFFFFFFFFFFFFFFFFFFFFFFFFFFFFFF AND MUL OR SWAP1 SSTORE POP PUSH2 0x2710 PUSH1 0x2 DUP2 SWAP1 SSTORE POP PUSH0 PUSH1 0x3 PUSH1 0x14 PUSH2 0x100 EXP DUP2 SLOAD DUP2 PUSH1 0xFF MUL NOT AND SWAP1 DUP4 ISZERO ISZERO MUL OR SWAP1 SSTORE POP POP POP PUSH2 0x4E9 JUMP JUMPDEST PUSH0 PUSH0 PUSH0 SWAP1 SLOAD SWAP1 PUSH2 0x100 EXP SWAP1 DIV PUSH20 0xFFFFFFFFFFFFFFFFFFFFFFFFFFFFFFFFFFFFFFFF AND SWAP1 POP DUP2 PUSH0 PUSH0 PUSH2 0x100 EXP DUP2 SLOAD DUP2 PUSH20 0xFFFFFFFFFFFFFFFFFFFFFFFFFFFFFFFFFFFFFFFF MUL NOT AND SWAP1 DUP4 PUSH20 0xFFFFFFFFFFFFFFFFFFFFFFFFFFFFFFFFFFFFFFFF AND MUL OR SWAP1 SSTORE POP DUP2 PUSH20 0xFFFFFFFFFFFFFFFFFFFFFFFFFFFFFFFFFFFFFFFF AND DUP2 PUSH20 0xFFFFFFFFFFFFFFFFFFFFFFFFFFFFFFFFFFFFFFFF AND PUSH32 0x8BE0079C531659141344CD1FD0A4F28419497F9722A3DAAFE3B4186F6B6457E0 PUSH1 0x40 MLOAD PUSH1 0x40 MLOAD DUP1 SWAP2 SUB SWAP1 LOG3 POP POP JUMP JUMPDEST PUSH0 PUSH0 REVERT JUMPDEST PUSH0 PUSH20 0xFFFFFFFFFFFFFFFFFFFFFFFFFFFFFFFFFFFFFFFF DUP3 AND SWAP1 POP SWAP2 SWAP1 POP JUMP JUMPDEST PUSH0 PUSH2 0x326 DUP3 PUSH2 0x2FD JUMP JUMPDEST SWAP1 POP SWAP2 SWAP1 POP JUMP JUMPDEST PUSH2 0x336 DUP2 PUSH2 0x31C JUMP JUMPDEST DUP2 EQ PUSH2 0x340 JUMPI PUSH0 PUSH0 REVERT JUMPDEST POP JUMP JUMPDEST PUSH0 DUP2 MLOAD SWAP1 POP PUSH2 0x351 DUP2 PUSH2 0x32D JUMP JUMPDEST SWAP3 SWAP2 POP POP JUMP JUMPDEST PUSH0 PUSH2 0x361 DUP3 PUSH2 0x2FD JUMP JUMPDEST SWAP1 POP SWAP2 SWAP1 POP JUMP JUMPDEST PUSH0 PUSH2 0x372 DUP3 PUSH2 0x357 JUMP JUMPDEST SWAP1 POP SWAP2 SWAP1 POP JUMP JUMPDEST PUSH2 0x382 DUP2 PUSH2 0x368 JUMP JUMPDEST DUP2 EQ PUSH2 0x38C JUMPI PUSH0 PUSH0 REVERT JUMPDEST POP JUMP JUMPDEST PUSH0 DUP2 MLOAD SWAP1 POP PUSH2 0x39D DUP2 PUSH2 0x379 JUMP JUMPDEST SWAP3 SWAP2 POP POP JUMP JUMPDEST PUSH0 PUSH0 PUSH1 0x40 DUP4 DUP6 SUB SLT ISZERO PUSH2 0x3B9 JUMPI PUSH2 0x3B8 PUSH2 0x2F9 JUMP JUMPDEST JUMPDEST PUSH0 PUSH2 0x3C6 DUP6 DUP3 DUP7 ADD PUSH2 0x343 JUMP JUMPDEST SWAP3 POP POP PUSH1 0x20 PUSH2 0x3D7 DUP6 DUP3 DUP7 ADD PUSH2 0x38F JUMP JUMPDEST SWAP2 POP POP SWAP3 POP SWAP3 SWAP1 POP JUMP JUMPDEST PUSH2 0x3EA DUP2 PUSH2 0x357 JUMP JUMPDEST DUP3 MSTORE POP POP JUMP JUMPDEST PUSH0 PUSH1 0x20 DUP3 ADD SWAP1 POP PUSH2 0x403 PUSH0 DUP4 ADD DUP5 PUSH2 0x3E1 JUMP JUMPDEST SWAP3 SWAP2 POP POP JUMP JUMPDEST PUSH0 DUP3 DUP3 MSTORE PUSH1 0x20 DUP3 ADD SWAP1 POP SWAP3 SWAP2 POP POP JUMP JUMPDEST PUSH32 0x57616C6C65742061646472657373206D757374206E6F74206265207A65726F00 PUSH0 DUP3 ADD MSTORE POP JUMP JUMPDEST PUSH0 PUSH2 0x44D PUSH1 0x1F DUP4 PUSH2 0x409 JUMP JUMPDEST SWAP2 POP PUSH2 0x458 DUP3 PUSH2 0x419 JUMP JUMPDEST PUSH1 0x20 DUP3 ADD SWAP1 POP SWAP2 SWAP1 POP JUMP JUMPDEST PUSH0 PUSH1 0x20 DUP3 ADD SWAP1 POP DUP2 DUP2 SUB PUSH0 DUP4 ADD MSTORE PUSH2 0x47A DUP2 PUSH2 0x441 JUMP JUMPDEST SWAP1 POP SWAP2 SWAP1 POP JUMP JUMPDEST PUSH32 0x546F6B656E2061646472657373206D757374206E6F74206265207A65726F0000 PUSH0 DUP3 ADD MSTORE POP JUMP JUMPDEST PUSH0 PUSH2 0x4B5 PUSH1 0x1E DUP4 PUSH2 0x409 JUMP JUMPDEST SWAP2 POP PUSH2 0x4C0 DUP3 PUSH2 0x481 JUMP JUMPDEST PUSH1 0x20 DUP3 ADD SWAP1 POP SWAP2 SWAP1 POP JUMP JUMPDEST PUSH0 PUSH1 0x20 DUP3 ADD SWAP1 POP DUP2 DUP2 SUB PUSH0 DUP4 ADD MSTORE PUSH2 0x4E2 DUP2 PUSH2 0x4A9 JUMP JUMPDEST SWAP1 POP SWAP2 SWAP1 POP JUMP JUMPDEST PUSH2 0x14C5 DUP1 PUSH2 0x4F6 PUSH0 CODECOPY PUSH0 RETURN INVALID PUSH1 0x80 PUSH1 0x40 MSTORE PUSH1 0x4 CALLDATASIZE LT PUSH2 0xDC JUMPI PUSH0 CALLDATALOAD PUSH1 0xE0 SHR DUP1 PUSH4 0x715018A6 GT PUSH2 0x7E JUMPI DUP1 PUSH4 0xB7CA51E8 GT PUSH2 0x58 JUMPI DUP1 PUSH4 0xB7CA51E8 EQ PUSH2 0x244 JUMPI DUP1 PUSH4 0xD0FEBE4C EQ PUSH2 0x26E JUMPI DUP1 PUSH4 0xDD49756E EQ PUSH2 0x278 JUMPI DUP1 PUSH4 0xF2FDE38B EQ PUSH2 0x2A0 JUMPI PUSH2 0xDC JUMP JUMPDEST DUP1 PUSH4 0x715018A6 EQ PUSH2 0x1DA JUMPI DUP1 PUSH4 0x8DA5CB5B EQ PUSH2 0x1F0 JUMPI DUP1 PUSH4 0x9B8906AE EQ PUSH2 0x21A JUMPI PUSH2 0xDC JUMP JUMPDEST DUP1 PUSH4 0x380D831B GT PUSH2 0xBA JUMPI DUP1 PUSH4 0x380D831B EQ PUSH2 0x148 JUMPI DUP1 PUSH4 0x48C54B9D EQ PUSH2 0x15E JUMPI DUP1 PUSH4 0x4BAE6F3F EQ PUSH2 0x174 JUMPI DUP1 PUSH4 0x521EB273 EQ PUSH2 0x1B0 JUMPI PUSH2 0xDC JUMP JUMPDEST DUP1 PUSH4 0x24600FC3 EQ PUSH2 0xE0 JUMPI DUP1 PUSH4 0x2C4E722E EQ PUSH2 0xF6 JUMPI DUP1 PUSH4 0x315A095D EQ PUSH2 0x120 JUMPI JUMPDEST PUSH0 PUSH0 REVERT JUMPDEST CALLVALUE DUP1 ISZERO PUSH2 0xEB JUMPI PUSH0 PUSH0 REVERT JUMPDEST POP PUSH2 0xF4 PUSH2 0x2C8 JUMP JUMPDEST STOP JUMPDEST CALLVALUE DUP1 ISZERO PUSH2 0x101 JUMPI PUSH0 PUSH0 REVERT JUMPDEST POP PUSH2 0x10A PUSH2 0x39C JUMP JUMPDEST PUSH1 0x40 MLOAD PUSH2 0x117 SWAP2 SWAP1 PUSH2 0xD48 JUMP JUMPDEST PUSH1 0x40 MLOAD DUP1 SWAP2 SUB SWAP1 RETURN JUMPDEST CALLVALUE DUP1 ISZERO PUSH2 0x12B JUMPI PUSH0 PUSH0 REVERT JUMPDEST POP PUSH2 0x146 PUSH1 0x4 DUP1 CALLDATASIZE SUB DUP2 ADD SWAP1 PUSH2 0x141 SWAP2 SWAP1 PUSH2 0xD8F JUMP JUMPDEST PUSH2 0x3A2 JUMP JUMPDEST STOP JUMPDEST CALLVALUE DUP1 ISZERO PUSH2 0x153 JUMPI PUSH0 PUSH0 REVERT JUMPDEST POP PUSH2 0x15C PUSH2 0x48C JUMP JUMPDEST STOP JUMPDEST CALLVALUE DUP1 ISZERO PUSH2 0x169 JUMPI PUSH0 PUSH0 REVERT JUMPDEST POP PUSH2 0x172 PUSH2 0x52D JUMP JUMPDEST STOP JUMPDEST CALLVALUE DUP1 ISZERO PUSH2 0x17F JUMPI PUSH0 PUSH0 REVERT JUMPDEST POP PUSH2 0x19A PUSH1 0x4 DUP1 CALLDATASIZE SUB DUP2 ADD SWAP1 PUSH2 0x195 SWAP2 SWAP1 PUSH2 0xE14 JUMP JUMPDEST PUSH2 0x72F JUMP JUMPDEST PUSH1 0x40 MLOAD PUSH2 0x1A7 SWAP2 SWAP1 PUSH2 0xD48 JUMP JUMPDEST PUSH1 0x40 MLOAD DUP1 SWAP2 SUB SWAP1 RETURN JUMPDEST CALLVALUE DUP1 ISZERO PUSH2 0x1BB JUMPI PUSH0 PUSH0 REVERT JUMPDEST POP PUSH2 0x1C4 PUSH2 0x744 JUMP JUMPDEST PUSH1 0x40 MLOAD PUSH2 0x1D1 SWAP2 SWAP1 PUSH2 0xE5F JUMP JUMPDEST PUSH1 0x40 MLOAD DUP1 SWAP2 SUB SWAP1 RETURN JUMPDEST CALLVALUE DUP1 ISZERO PUSH2 0x1E5 JUMPI PUSH0 PUSH0 REVERT JUMPDEST POP PUSH2 0x1EE PUSH2 0x769 JUMP JUMPDEST STOP JUMPDEST CALLVALUE DUP1 ISZERO PUSH2 0x1FB JUMPI PUSH0 PUSH0 REVERT JUMPDEST POP PUSH2 0x204 PUSH2 0x77C JUMP JUMPDEST PUSH1 0x40 MLOAD PUSH2 0x211 SWAP2 SWAP1 PUSH2 0xE87 JUMP JUMPDEST PUSH1 0x40 MLOAD DUP1 SWAP2 SUB SWAP1 RETURN JUMPDEST CALLVALUE DUP1 ISZERO PUSH2 0x225 JUMPI PUSH0 PUSH0 REVERT JUMPDEST POP PUSH2 0x22E PUSH2 0x7A3 JUMP JUMPDEST PUSH1 0x40 MLOAD PUSH2 0x23B SWAP2 SWAP1 PUSH2 0xEBA JUMP JUMPDEST PUSH1 0x40 MLOAD DUP1 SWAP2 SUB SWAP1 RETURN JUMPDEST CALLVALUE DUP1 ISZERO PUSH2 0x24F JUMPI PUSH0 PUSH0 REVERT JUMPDEST POP PUSH2 0x258 PUSH2 0x7B6 JUMP JUMPDEST PUSH1 0x40 MLOAD PUSH2 0x265 SWAP2 SWAP1 PUSH2 0xF2E JUMP JUMPDEST PUSH1 0x40 MLOAD DUP1 SWAP2 SUB SWAP1 RETURN JUMPDEST PUSH2 0x276 PUSH2 0x7DB JUMP JUMPDEST STOP JUMPDEST CALLVALUE DUP1 ISZERO PUSH2 0x283 JUMPI PUSH0 PUSH0 REVERT JUMPDEST POP PUSH2 0x29E PUSH1 0x4 DUP1 CALLDATASIZE SUB DUP2 ADD SWAP1 PUSH2 0x299 SWAP2 SWAP1 PUSH2 0xD8F JUMP JUMPDEST PUSH2 0xA47 JUMP JUMPDEST STOP JUMPDEST CALLVALUE DUP1 ISZERO PUSH2 0x2AB JUMPI PUSH0 PUSH0 REVERT JUMPDEST POP PUSH2 0x2C6 PUSH1 0x4 DUP1 CALLDATASIZE SUB DUP2 ADD SWAP1 PUSH2 0x2C1 SWAP2 SWAP1 PUSH2 0xE14 JUMP JUMPDEST PUSH2 0xB33 JUMP JUMPDEST STOP JUMPDEST PUSH2 0x2D0 PUSH2 0xBB7 JUMP JUMPDEST PUSH0 PUSH1 0x3 PUSH0 SWAP1 SLOAD SWAP1 PUSH2 0x100 EXP SWAP1 DIV PUSH20 0xFFFFFFFFFFFFFFFFFFFFFFFFFFFFFFFFFFFFFFFF AND PUSH20 0xFFFFFFFFFFFFFFFFFFFFFFFFFFFFFFFFFFFFFFFF AND SELFBALANCE PUSH1 0x40 MLOAD PUSH2 0x316 SWAP1 PUSH2 0xF74 JUMP JUMPDEST PUSH0 PUSH1 0x40 MLOAD DUP1 DUP4 SUB DUP2 DUP6 DUP8 GAS CALL SWAP3 POP POP POP RETURNDATASIZE DUP1 PUSH0 DUP2 EQ PUSH2 0x350 JUMPI PUSH1 0x40 MLOAD SWAP2 POP PUSH1 0x1F NOT PUSH1 0x3F RETURNDATASIZE ADD AND DUP3 ADD PUSH1 0x40 MSTORE RETURNDATASIZE DUP3 MSTORE RETURNDATASIZE PUSH0 PUSH1 0x20 DUP5 ADD RETURNDATACOPY PUSH2 0x355 JUMP JUMPDEST PUSH1 0x60 SWAP2 POP JUMPDEST POP POP SWAP1 POP DUP1 PUSH2 0x399 JUMPI PUSH1 0x40 MLOAD PUSH32 0x8C379A000000000000000000000000000000000000000000000000000000000 DUP2 MSTORE PUSH1 0x4 ADD PUSH2 0x390 SWAP1 PUSH2 0xFE2 JUMP JUMPDEST PUSH1 0x40 MLOAD DUP1 SWAP2 SUB SWAP1 REVERT JUMPDEST POP JUMP JUMPDEST PUSH1 0x2 SLOAD DUP2 JUMP JUMPDEST PUSH2 0x3AA PUSH2 0xBB7 JUMP JUMPDEST PUSH0 DUP2 GT PUSH2 0x3EC JUMPI PUSH1 0x40 MLOAD PUSH32 0x8C379A000000000000000000000000000000000000000000000000000000000 DUP2 MSTORE PUSH1 0x4 ADD PUSH2 0x3E3 SWAP1 PUSH2 0x104A JUMP JUMPDEST PUSH1 0x40 MLOAD DUP1 SWAP2 SUB SWAP1 REVERT JUMPDEST PUSH1 0x1 PUSH0 SWAP1 SLOAD SWAP1 PUSH2 0x100 EXP SWAP1 DIV PUSH20 0xFFFFFFFFFFFFFFFFFFFFFFFFFFFFFFFFFFFFFFFF AND PUSH20 0xFFFFFFFFFFFFFFFFFFFFFFFFFFFFFFFFFFFFFFFF AND PUSH4 0xA9059CBB CALLER DUP4 PUSH1 0x40 MLOAD DUP4 PUSH4 0xFFFFFFFF AND PUSH1 0xE0 SHL DUP2 MSTORE PUSH1 0x4 ADD PUSH2 0x448 SWAP3 SWAP2 SWAP1 PUSH2 0x1068 JUMP JUMPDEST PUSH1 0x20 PUSH1 0x40 MLOAD DUP1 DUP4 SUB DUP2 PUSH0 DUP8 GAS CALL ISZERO DUP1 ISZERO PUSH2 0x464 JUMPI RETURNDATASIZE PUSH0 PUSH0 RETURNDATACOPY RETURNDATASIZE PUSH0 REVERT JUMPDEST POP POP POP POP PUSH1 0x40 MLOAD RETURNDATASIZE PUSH1 0x1F NOT PUSH1 0x1F DUP3 ADD AND DUP3 ADD DUP1 PUSH1 0x40 MSTORE POP DUP2 ADD SWAP1 PUSH2 0x488 SWAP2 SWAP1 PUSH2 0x10B9 JUMP JUMPDEST POP POP JUMP JUMPDEST PUSH2 0x494 PUSH2 0xBB7 JUMP JUMPDEST PUSH1 0x3 PUSH1 0x14 SWAP1 SLOAD SWAP1 PUSH2 0x100 EXP SWAP1 DIV PUSH1 0xFF AND ISZERO PUSH2 0x4E4 JUMPI PUSH1 0x40 MLOAD PUSH32 0x8C379A000000000000000000000000000000000000000000000000000000000 DUP2 MSTORE PUSH1 0x4 ADD PUSH2 0x4DB SWAP1 PUSH2 0x112E JUMP JUMPDEST PUSH1 0x40 MLOAD DUP1 SWAP2 SUB SWAP1 REVERT JUMPDEST PUSH1 0x1 PUSH1 0x3 PUSH1 0x14 PUSH2 0x100 EXP DUP2 SLOAD DUP2 PUSH1 0xFF MUL NOT AND SWAP1 DUP4 ISZERO ISZERO MUL OR SWAP1 SSTORE POP PUSH32 0xBD8A3EB532E5FBCD3F5B00335F0FB42FDC11969E9AF0FAB7C9E71A36AE0D31A PUSH1 0x40 MLOAD PUSH1 0x40 MLOAD DUP1 SWAP2 SUB SWAP1 LOG1 JUMP JUMPDEST PUSH1 0x3 PUSH1 0x14 SWAP1 SLOAD SWAP1 PUSH2 0x100 EXP SWAP1 DIV PUSH1 0xFF AND PUSH2 0x57C JUMPI PUSH1 0x40 MLOAD PUSH32 0x8C379A000000000000000000000000000000000000000000000000000000000 DUP2 MSTORE PUSH1 0x4 ADD PUSH2 0x573 SWAP1 PUSH2 0x1196 JUMP JUMPDEST PUSH1 0x40 MLOAD DUP1 SWAP2 SUB SWAP1 REVERT JUMPDEST PUSH0 PUSH1 0x4 PUSH0 CALLER PUSH20 0xFFFFFFFFFFFFFFFFFFFFFFFFFFFFFFFFFFFFFFFF AND PUSH20 0xFFFFFFFFFFFFFFFFFFFFFFFFFFFFFFFFFFFFFFFF AND DUP2 MSTORE PUSH1 0x20 ADD SWAP1 DUP2 MSTORE PUSH1 0x20 ADD PUSH0 KECCAK256 SLOAD SWAP1 POP PUSH0 DUP2 GT PUSH2 0x5FF JUMPI PUSH1 0x40 MLOAD PUSH32 0x8C379A000000000000000000000000000000000000000000000000000000000 DUP2 MSTORE PUSH1 0x4 ADD PUSH2 0x5F6 SWAP1 PUSH2 0x11FE JUMP JUMPDEST PUSH1 0x40 MLOAD DUP1 SWAP2 SUB SWAP1 REVERT JUMPDEST PUSH0 PUSH1 0x4 PUSH0 CALLER PUSH20 0xFFFFFFFFFFFFFFFFFFFFFFFFFFFFFFFFFFFFFFFF AND PUSH20 0xFFFFFFFFFFFFFFFFFFFFFFFFFFFFFFFFFFFFFFFF AND DUP2 MSTORE PUSH1 0x20 ADD SWAP1 DUP2 MSTORE PUSH1 0x20 ADD PUSH0 KECCAK256 DUP2 SWAP1 SSTORE POP PUSH1 0x1 PUSH0 SWAP1 SLOAD SWAP1 PUSH2 0x100 EXP SWAP1 DIV PUSH20 0xFFFFFFFFFFFFFFFFFFFFFFFFFFFFFFFFFFFFFFFF AND PUSH20 0xFFFFFFFFFFFFFFFFFFFFFFFFFFFFFFFFFFFFFFFF AND PUSH4 0xA9059CBB CALLER DUP4 PUSH1 0x40 MLOAD DUP4 PUSH4 0xFFFFFFFF AND PUSH1 0xE0 SHL DUP2 MSTORE PUSH1 0x4 ADD PUSH2 0x69D SWAP3 SWAP2 SWAP1 PUSH2 0x1068 JUMP JUMPDEST PUSH1 0x20 PUSH1 0x40 MLOAD DUP1 DUP4 SUB DUP2 PUSH0 DUP8 GAS CALL ISZERO DUP1 ISZERO PUSH2 0x6B9 JUMPI RETURNDATASIZE PUSH0 PUSH0 RETURNDATACOPY RETURNDATASIZE PUSH0 REVERT JUMPDEST POP POP POP POP PUSH1 0x40 MLOAD RETURNDATASIZE PUSH1 0x1F NOT PUSH1 0x1F DUP3 ADD AND DUP3 ADD DUP1 PUSH1 0x40 MSTORE POP DUP2 ADD SWAP1 PUSH2 0x6DD SWAP2 SWAP1 PUSH2 0x10B9 JUMP JUMPDEST POP CALLER PUSH20 0xFFFFFFFFFFFFFFFFFFFFFFFFFFFFFFFFFFFFFFFF AND PUSH32 0x896E034966EAAF1ADC54ACC0F257056FEBBD300C9E47182CF761982CF1F5E430 DUP3 PUSH1 0x40 MLOAD PUSH2 0x724 SWAP2 SWAP1 PUSH2 0xD48 JUMP JUMPDEST PUSH1 0x40 MLOAD DUP1 SWAP2 SUB SWAP1 LOG2 POP JUMP JUMPDEST PUSH1 0x4 PUSH1 0x20 MSTORE DUP1 PUSH0 MSTORE PUSH1 0x40 PUSH0 KECCAK256 PUSH0 SWAP2 POP SWAP1 POP SLOAD DUP2 JUMP JUMPDEST PUSH1 0x3 PUSH0 SWAP1 SLOAD SWAP1 PUSH2 0x100 EXP SWAP1 DIV PUSH20 0xFFFFFFFFFFFFFFFFFFFFFFFFFFFFFFFFFFFFFFFF AND DUP2 JUMP JUMPDEST PUSH2 0x771 PUSH2 0xBB7 JUMP JUMPDEST PUSH2 0x77A PUSH0 PUSH2 0xC3E JUMP JUMPDEST JUMP JUMPDEST PUSH0 PUSH0 PUSH0 SWAP1 SLOAD SWAP1 PUSH2 0x100 EXP SWAP1 DIV PUSH20 0xFFFFFFFFFFFFFFFFFFFFFFFFFFFFFFFFFFFFFFFF AND SWAP1 POP SWAP1 JUMP JUMPDEST PUSH1 0x3 PUSH1 0x14 SWAP1 SLOAD SWAP1 PUSH2 0x100 EXP SWAP1 DIV PUSH1 0xFF AND DUP2 JUMP JUMPDEST PUSH1 0x1 PUSH0 SWAP1 SLOAD SWAP1 PUSH2 0x100 EXP SWAP1 DIV PUSH20 0xFFFFFFFFFFFFFFFFFFFFFFFFFFFFFFFFFFFFFFFF AND DUP2 JUMP JUMPDEST PUSH1 0x3 PUSH1 0x14 SWAP1 SLOAD SWAP1 PUSH2 0x100 EXP SWAP1 DIV PUSH1 0xFF AND ISZERO PUSH2 0x82B JUMPI PUSH1 0x40 MLOAD PUSH32 0x8C379A000000000000000000000000000000000000000000000000000000000 DUP2 MSTORE PUSH1 0x4 ADD PUSH2 0x822 SWAP1 PUSH2 0x1266 JUMP JUMPDEST PUSH1 0x40 MLOAD DUP1 SWAP2 SUB SWAP1 REVERT JUMPDEST PUSH0 CALLVALUE SWAP1 POP PUSH0 DUP2 GT PUSH2 0x871 JUMPI PUSH1 0x40 MLOAD PUSH32 0x8C379A000000000000000000000000000000000000000000000000000000000 DUP2 MSTORE PUSH1 0x4 ADD PUSH2 0x868 SWAP1 PUSH2 0x12F4 JUMP JUMPDEST PUSH1 0x40 MLOAD DUP1 SWAP2 SUB SWAP1 REVERT JUMPDEST PUSH0 PUSH2 0x887 PUSH1 0x2 SLOAD DUP4 PUSH2 0xCFF SWAP1 SWAP2 SWAP1 PUSH4 0xFFFFFFFF AND JUMP JUMPDEST SWAP1 POP DUP1 PUSH1 0x1 PUSH0 SWAP1 SLOAD SWAP1 PUSH2 0x100 EXP SWAP1 DIV PUSH20 0xFFFFFFFFFFFFFFFFFFFFFFFFFFFFFFFFFFFFFFFF AND PUSH20 0xFFFFFFFFFFFFFFFFFFFFFFFFFFFFFFFFFFFFFFFF AND PUSH4 0x70A08231 ADDRESS PUSH1 0x40 MLOAD DUP3 PUSH4 0xFFFFFFFF AND PUSH1 0xE0 SHL DUP2 MSTORE PUSH1 0x4 ADD PUSH2 0x8E4 SWAP2 SWAP1 PUSH2 0xE87 JUMP JUMPDEST PUSH1 0x20 PUSH1 0x40 MLOAD DUP1 DUP4 SUB DUP2 DUP7 GAS STATICCALL ISZERO DUP1 ISZERO PUSH2 0x8FF JUMPI RETURNDATASIZE PUSH0 PUSH0 RETURNDATACOPY RETURNDATASIZE PUSH0 REVERT JUMPDEST POP POP POP POP PUSH1 0x40 MLOAD RETURNDATASIZE PUSH1 0x1F NOT PUSH1 0x1F DUP3 ADD AND DUP3 ADD DUP1 PUSH1 0x40 MSTORE POP DUP2 ADD SWAP1 PUSH2 0x923 SWAP2 SWAP1 PUSH2 0x1326 JUMP JUMPDEST LT ISZERO PUSH2 0x964 JUMPI PUSH1 0x40 MLOAD PUSH32 0x8C379A000000000000000000000000000000000000000000000000000000000 DUP2 MSTORE PUSH1 0x4 ADD PUSH2 0x95B SWAP1 PUSH2 0x139B JUMP JUMPDEST PUSH1 0x40 MLOAD DUP1 SWAP2 SUB SWAP1 REVERT JUMPDEST PUSH2 0x9B4 DUP2 PUSH1 0x4 PUSH0 CALLER PUSH20 0xFFFFFFFFFFFFFFFFFFFFFFFFFFFFFFFFFFFFFFFF AND PUSH20 0xFFFFFFFFFFFFFFFFFFFFFFFFFFFFFFFFFFFFFFFF AND DUP2 MSTORE PUSH1 0x20 ADD SWAP1 DUP2 MSTORE PUSH1 0x20 ADD PUSH0 KECCAK256 SLOAD PUSH2 0xD14 SWAP1 SWAP2 SWAP1 PUSH4 0xFFFFFFFF AND JUMP JUMPDEST PUSH1 0x4 PUSH0 CALLER PUSH20 0xFFFFFFFFFFFFFFFFFFFFFFFFFFFFFFFFFFFFFFFF AND PUSH20 0xFFFFFFFFFFFFFFFFFFFFFFFFFFFFFFFFFFFFFFFF AND DUP2 MSTORE PUSH1 0x20 ADD SWAP1 DUP2 MSTORE PUSH1 0x20 ADD PUSH0 KECCAK256 DUP2 SWAP1 SSTORE POP CALLER PUSH20 0xFFFFFFFFFFFFFFFFFFFFFFFFFFFFFFFFFFFFFFFF AND PUSH32 0x8F28852646C20CC973D3A8218F7EEFED58C25C909F78F0265AF4818C3D4DC271 DUP3 PUSH1 0x40 MLOAD PUSH2 0xA3B SWAP2 SWAP1 PUSH2 0xD48 JUMP JUMPDEST PUSH1 0x40 MLOAD DUP1 SWAP2 SUB SWAP1 LOG2 POP POP JUMP JUMPDEST PUSH2 0xA4F PUSH2 0xBB7 JUMP JUMPDEST PUSH0 DUP2 GT PUSH2 0xA91 JUMPI PUSH1 0x40 MLOAD PUSH32 0x8C379A000000000000000000000000000000000000000000000000000000000 DUP2 MSTORE PUSH1 0x4 ADD PUSH2 0xA88 SWAP1 PUSH2 0x104A JUMP JUMPDEST PUSH1 0x40 MLOAD DUP1 SWAP2 SUB SWAP1 REVERT JUMPDEST PUSH1 0x1 PUSH0 SWAP1 SLOAD SWAP1 PUSH2 0x100 EXP SWAP1 DIV PUSH20 0xFFFFFFFFFFFFFFFFFFFFFFFFFFFFFFFFFFFFFFFF AND PUSH20 0xFFFFFFFFFFFFFFFFFFFFFFFFFFFFFFFFFFFFFFFF AND PUSH4 0x23B872DD CALLER ADDRESS DUP5 PUSH1 0x40 MLOAD DUP5 PUSH4 0xFFFFFFFF AND PUSH1 0xE0 SHL DUP2 MSTORE PUSH1 0x4 ADD PUSH2 0xAEF SWAP4 SWAP3 SWAP2 SWAP1 PUSH2 0x13B9 JUMP JUMPDEST PUSH1 0x20 PUSH1 0x40 MLOAD DUP1 DUP4 SUB DUP2 PUSH0 DUP8 GAS CALL ISZERO DUP1 ISZERO PUSH2 0xB0B JUMPI RETURNDATASIZE PUSH0 PUSH0 RETURNDATACOPY RETURNDATASIZE PUSH0 REVERT JUMPDEST POP POP POP POP PUSH1 0x40 MLOAD RETURNDATASIZE PUSH1 0x1F NOT PUSH1 0x1F DUP3 ADD AND DUP3 ADD DUP1 PUSH1 0x40 MSTORE POP DUP2 ADD SWAP1 PUSH2 0xB2F SWAP2 SWAP1 PUSH2 0x10B9 JUMP JUMPDEST POP POP JUMP JUMPDEST PUSH2 0xB3B PUSH2 0xBB7 JUMP JUMPDEST PUSH0 PUSH20 0xFFFFFFFFFFFFFFFFFFFFFFFFFFFFFFFFFFFFFFFF AND DUP2 PUSH20 0xFFFFFFFFFFFFFFFFFFFFFFFFFFFFFFFFFFFFFFFF AND SUB PUSH2 0xBAB JUMPI PUSH0 PUSH1 0x40 MLOAD PUSH32 0x1E4FBDF700000000000000000000000000000000000000000000000000000000 DUP2 MSTORE PUSH1 0x4 ADD PUSH2 0xBA2 SWAP2 SWAP1 PUSH2 0xE87 JUMP JUMPDEST PUSH1 0x40 MLOAD DUP1 SWAP2 SUB SWAP1 REVERT JUMPDEST PUSH2 0xBB4 DUP2 PUSH2 0xC3E JUMP JUMPDEST POP JUMP JUMPDEST PUSH2 0xBBF PUSH2 0xD29 JUMP JUMPDEST PUSH20 0xFFFFFFFFFFFFFFFFFFFFFFFFFFFFFFFFFFFFFFFF AND PUSH2 0xBDD PUSH2 0x77C JUMP JUMPDEST PUSH20 0xFFFFFFFFFFFFFFFFFFFFFFFFFFFFFFFFFFFFFFFF AND EQ PUSH2 0xC3C JUMPI PUSH2 0xC00 PUSH2 0xD29 JUMP JUMPDEST PUSH1 0x40 MLOAD PUSH32 0x118CDAA700000000000000000000000000000000000000000000000000000000 DUP2 MSTORE PUSH1 0x4 ADD PUSH2 0xC33 SWAP2 SWAP1 PUSH2 0xE87 JUMP JUMPDEST PUSH1 0x40 MLOAD DUP1 SWAP2 SUB SWAP1 REVERT JUMPDEST JUMP JUMPDEST PUSH0 PUSH0 PUSH0 SWAP1 SLOAD SWAP1 PUSH2 0x100 EXP SWAP1 DIV PUSH20 0xFFFFFFFFFFFFFFFFFFFFFFFFFFFFFFFFFFFFFFFF AND SWAP1 POP DUP2 PUSH0 PUSH0 PUSH2 0x100 EXP DUP2 SLOAD DUP2 PUSH20 0xFFFFFFFFFFFFFFFFFFFFFFFFFFFFFFFFFFFFFFFF MUL NOT AND SWAP1 DUP4 PUSH20 0xFFFFFFFFFFFFFFFFFFFFFFFFFFFFFFFFFFFFFFFF AND MUL OR SWAP1 SSTORE POP DUP2 PUSH20 0xFFFFFFFFFFFFFFFFFFFFFFFFFFFFFFFFFFFFFFFF AND DUP2 PUSH20 0xFFFFFFFFFFFFFFFFFFFFFFFFFFFFFFFFFFFFFFFF AND PUSH32 0x8BE0079C531659141344CD1FD0A4F28419497F9722A3DAAFE3B4186F6B6457E0 PUSH1 0x40 MLOAD PUSH1 0x40 MLOAD DUP1 SWAP2 SUB SWAP1 LOG3 POP POP JUMP JUMPDEST PUSH0 DUP2 DUP4 PUSH2 0xD0C SWAP2 SWAP1 PUSH2 0x141B JUMP JUMPDEST SWAP1 POP SWAP3 SWAP2 POP POP JUMP JUMPDEST PUSH0 DUP2 DUP4 PUSH2 0xD21 SWAP2 SWAP1 PUSH2 0x145C JUMP JUMPDEST SWAP1 POP SWAP3 SWAP2 POP POP JUMP JUMPDEST PUSH0 CALLER SWAP1 POP SWAP1 JUMP JUMPDEST PUSH0 DUP2 SWAP1 POP SWAP2 SWAP1 POP JUMP JUMPDEST PUSH2 0xD42 DUP2 PUSH2 0xD30 JUMP JUMPDEST DUP3 MSTORE POP POP JUMP JUMPDEST PUSH0 PUSH1 0x20 DUP3 ADD SWAP1 POP PUSH2 0xD5B PUSH0 DUP4 ADD DUP5 PUSH2 0xD39 JUMP JUMPDEST SWAP3 SWAP2 POP POP JUMP JUMPDEST PUSH0 PUSH0 REVERT JUMPDEST PUSH2 0xD6E DUP2 PUSH2 0xD30 JUMP JUMPDEST DUP2 EQ PUSH2 0xD78 JUMPI PUSH0 PUSH0 REVERT JUMPDEST POP JUMP JUMPDEST PUSH0 DUP2 CALLDATALOAD SWAP1 POP PUSH2 0xD89 DUP2 PUSH2 0xD65 JUMP JUMPDEST SWAP3 SWAP2 POP POP JUMP JUMPDEST PUSH0 PUSH1 0x20 DUP3 DUP5 SUB SLT ISZERO PUSH2 0xDA4 JUMPI PUSH2 0xDA3 PUSH2 0xD61 JUMP JUMPDEST JUMPDEST PUSH0 PUSH2 0xDB1 DUP5 DUP3 DUP6 ADD PUSH2 0xD7B JUMP JUMPDEST SWAP2 POP POP SWAP3 SWAP2 POP POP JUMP JUMPDEST PUSH0 PUSH20 0xFFFFFFFFFFFFFFFFFFFFFFFFFFFFFFFFFFFFFFFF DUP3 AND SWAP1 POP SWAP2 SWAP1 POP JUMP JUMPDEST PUSH0 PUSH2 0xDE3 DUP3 PUSH2 0xDBA JUMP JUMPDEST SWAP1 POP SWAP2 SWAP1 POP JUMP JUMPDEST PUSH2 0xDF3 DUP2 PUSH2 0xDD9 JUMP JUMPDEST DUP2 EQ PUSH2 0xDFD JUMPI PUSH0 PUSH0 REVERT JUMPDEST POP JUMP JUMPDEST PUSH0 DUP2 CALLDATALOAD SWAP1 POP PUSH2 0xE0E DUP2 PUSH2 0xDEA JUMP JUMPDEST SWAP3 SWAP2 POP POP JUMP JUMPDEST PUSH0 PUSH1 0x20 DUP3 DUP5 SUB SLT ISZERO PUSH2 0xE29 JUMPI PUSH2 0xE28 PUSH2 0xD61 JUMP JUMPDEST JUMPDEST PUSH0 PUSH2 0xE36 DUP5 DUP3 DUP6 ADD PUSH2 0xE00 JUMP JUMPDEST SWAP2 POP POP SWAP3 SWAP2 POP POP JUMP JUMPDEST PUSH0 PUSH2 0xE49 DUP3 PUSH2 0xDBA JUMP JUMPDEST SWAP1 POP SWAP2 SWAP1 POP JUMP JUMPDEST PUSH2 0xE59 DUP2 PUSH2 0xE3F JUMP JUMPDEST DUP3 MSTORE POP POP JUMP JUMPDEST PUSH0 PUSH1 0x20 DUP3 ADD SWAP1 POP PUSH2 0xE72 PUSH0 DUP4 ADD DUP5 PUSH2 0xE50 JUMP JUMPDEST SWAP3 SWAP2 POP POP JUMP JUMPDEST PUSH2 0xE81 DUP2 PUSH2 0xDD9 JUMP JUMPDEST DUP3 MSTORE POP POP JUMP JUMPDEST PUSH0 PUSH1 0x20 DUP3 ADD SWAP1 POP PUSH2 0xE9A PUSH0 DUP4 ADD DUP5 PUSH2 0xE78 JUMP JUMPDEST SWAP3 SWAP2 POP POP JUMP JUMPDEST PUSH0 DUP2 ISZERO ISZERO SWAP1 POP SWAP2 SWAP1 POP JUMP JUMPDEST PUSH2 0xEB4 DUP2 PUSH2 0xEA0 JUMP JUMPDEST DUP3 MSTORE POP POP JUMP JUMPDEST PUSH0 PUSH1 0x20 DUP3 ADD SWAP1 POP PUSH2 0xECD PUSH0 DUP4 ADD DUP5 PUSH2 0xEAB JUMP JUMPDEST SWAP3 SWAP2 POP POP JUMP JUMPDEST PUSH0 DUP2 SWAP1 POP SWAP2 SWAP1 POP JUMP JUMPDEST PUSH0 PUSH2 0xEF6 PUSH2 0xEF1 PUSH2 0xEEC DUP5 PUSH2 0xDBA JUMP JUMPDEST PUSH2 0xED3 JUMP JUMPDEST PUSH2 0xDBA JUMP JUMPDEST SWAP1 POP SWAP2 SWAP1 POP JUMP JUMPDEST PUSH0 PUSH2 0xF07 DUP3 PUSH2 0xEDC JUMP JUMPDEST SWAP1 POP SWAP2 SWAP1 POP JUMP JUMPDEST PUSH0 PUSH2 0xF18 DUP3 PUSH2 0xEFD JUMP JUMPDEST SWAP1 POP SWAP2 SWAP1 POP JUMP JUMPDEST PUSH2 0xF28 DUP2 PUSH2 0xF0E JUMP JUMPDEST DUP3 MSTORE POP POP JUMP JUMPDEST PUSH0 PUSH1 0x20 DUP3 ADD SWAP1 POP PUSH2 0xF41 PUSH0 DUP4 ADD DUP5 PUSH2 0xF1F JUMP JUMPDEST SWAP3 SWAP2 POP POP JUMP JUMPDEST PUSH0 DUP2 SWAP1 POP SWAP3 SWAP2 POP POP JUMP JUMPDEST POP JUMP JUMPDEST PUSH0 PUSH2 0xF5F PUSH0 DUP4 PUSH2 0xF47 JUMP JUMPDEST SWAP2 POP PUSH2 0xF6A DUP3 PUSH2 0xF51 JUMP JUMPDEST PUSH0 DUP3 ADD SWAP1 POP SWAP2 SWAP1 POP JUMP JUMPDEST PUSH0 PUSH2 0xF7E DUP3 PUSH2 0xF54 JUMP JUMPDEST SWAP2 POP DUP2 SWAP1 POP SWAP2 SWAP1 POP JUMP JUMPDEST PUSH0 DUP3 DUP3 MSTORE PUSH1 0x20 DUP3 ADD SWAP1 POP SWAP3 SWAP2 POP POP JUMP JUMPDEST PUSH32 0x4661696C656420746F2077697468647261772066756E64730000000000000000 PUSH0 DUP3 ADD MSTORE POP JUMP JUMPDEST PUSH0 PUSH2 0xFCC PUSH1 0x18 DUP4 PUSH2 0xF88 JUMP JUMPDEST SWAP2 POP PUSH2 0xFD7 DUP3 PUSH2 0xF98 JUMP JUMPDEST PUSH1 0x20 DUP3 ADD SWAP1 POP SWAP2 SWAP1 POP JUMP JUMPDEST PUSH0 PUSH1 0x20 DUP3 ADD SWAP1 POP DUP2 DUP2 SUB PUSH0 DUP4 ADD MSTORE PUSH2 0xFF9 DUP2 PUSH2 0xFC0 JUMP JUMPDEST SWAP1 POP SWAP2 SWAP1 POP JUMP JUMPDEST PUSH32 0x416D6F756E74206D7573742062652067726561746572207468616E2030000000 PUSH0 DUP3 ADD MSTORE POP JUMP JUMPDEST PUSH0 PUSH2 0x1034 PUSH1 0x1D DUP4 PUSH2 0xF88 JUMP JUMPDEST SWAP2 POP PUSH2 0x103F DUP3 PUSH2 0x1000 JUMP JUMPDEST PUSH1 0x20 DUP3 ADD SWAP1 POP SWAP2 SWAP1 POP JUMP JUMPDEST PUSH0 PUSH1 0x20 DUP3 ADD SWAP1 POP DUP2 DUP2 SUB PUSH0 DUP4 ADD MSTORE PUSH2 0x1061 DUP2 PUSH2 0x1028 JUMP JUMPDEST SWAP1 POP SWAP2 SWAP1 POP JUMP JUMPDEST PUSH0 PUSH1 0x40 DUP3 ADD SWAP1 POP PUSH2 0x107B PUSH0 DUP4 ADD DUP6 PUSH2 0xE78 JUMP JUMPDEST PUSH2 0x1088 PUSH1 0x20 DUP4 ADD DUP5 PUSH2 0xD39 JUMP JUMPDEST SWAP4 SWAP3 POP POP POP JUMP JUMPDEST PUSH2 0x1098 DUP2 PUSH2 0xEA0 JUMP JUMPDEST DUP2 EQ PUSH2 0x10A2 JUMPI PUSH0 PUSH0 REVERT JUMPDEST POP JUMP JUMPDEST PUSH0 DUP2 MLOAD SWAP1 POP PUSH2 0x10B3 DUP2 PUSH2 0x108F JUMP JUMPDEST SWAP3 SWAP2 POP POP JUMP JUMPDEST PUSH0 PUSH1 0x20 DUP3 DUP5 SUB SLT ISZERO PUSH2 0x10CE JUMPI PUSH2 0x10CD PUSH2 0xD61 JUMP JUMPDEST JUMPDEST PUSH0 PUSH2 0x10DB DUP5 DUP3 DUP6 ADD PUSH2 0x10A5 JUMP JUMPDEST SWAP2 POP POP SWAP3 SWAP2 POP POP JUMP JUMPDEST PUSH32 0x53616C652068617320616C726561647920656E64656400000000000000000000 PUSH0 DUP3 ADD MSTORE POP JUMP JUMPDEST PUSH0 PUSH2 0x1118 PUSH1 0x16 DUP4 PUSH2 0xF88 JUMP JUMPDEST SWAP2 POP PUSH2 0x1123 DUP3 PUSH2 0x10E4 JUMP JUMPDEST PUSH1 0x20 DUP3 ADD SWAP1 POP SWAP2 SWAP1 POP JUMP JUMPDEST PUSH0 PUSH1 0x20 DUP3 ADD SWAP1 POP DUP2 DUP2 SUB PUSH0 DUP4 ADD MSTORE PUSH2 0x1145 DUP2 PUSH2 0x110C JUMP JUMPDEST SWAP1 POP SWAP2 SWAP1 POP JUMP JUMPDEST PUSH32 0x53616C65206973206E6F74206F76657220796574000000000000000000000000 PUSH0 DUP3 ADD MSTORE POP JUMP JUMPDEST PUSH0 PUSH2 0x1180 PUSH1 0x14 DUP4 PUSH2 0xF88 JUMP JUMPDEST SWAP2 POP PUSH2 0x118B DUP3 PUSH2 0x114C JUMP JUMPDEST PUSH1 0x20 DUP3 ADD SWAP1 POP SWAP2 SWAP1 POP JUMP JUMPDEST PUSH0 PUSH1 0x20 DUP3 ADD SWAP1 POP DUP2 DUP2 SUB PUSH0 DUP4 ADD MSTORE PUSH2 0x11AD DUP2 PUSH2 0x1174 JUMP JUMPDEST SWAP1 POP SWAP2 SWAP1 POP JUMP JUMPDEST PUSH32 0x4E6F20746F6B656E7320746F20636C61696D0000000000000000000000000000 PUSH0 DUP3 ADD MSTORE POP JUMP JUMPDEST PUSH0 PUSH2 0x11E8 PUSH1 0x12 DUP4 PUSH2 0xF88 JUMP JUMPDEST SWAP2 POP PUSH2 0x11F3 DUP3 PUSH2 0x11B4 JUMP JUMPDEST PUSH1 0x20 DUP3 ADD SWAP1 POP SWAP2 SWAP1 POP JUMP JUMPDEST PUSH0 PUSH1 0x20 DUP3 ADD SWAP1 POP DUP2 DUP2 SUB PUSH0 DUP4 ADD MSTORE PUSH2 0x1215 DUP2 PUSH2 0x11DC JUMP JUMPDEST SWAP1 POP SWAP2 SWAP1 POP JUMP JUMPDEST PUSH32 0x53616C65206973206E6F74206163746976650000000000000000000000000000 PUSH0 DUP3 ADD MSTORE POP JUMP JUMPDEST PUSH0 PUSH2 0x1250 PUSH1 0x12 DUP4 PUSH2 0xF88 JUMP JUMPDEST SWAP2 POP PUSH2 0x125B DUP3 PUSH2 0x121C JUMP JUMPDEST PUSH1 0x20 DUP3 ADD SWAP1 POP SWAP2 SWAP1 POP JUMP JUMPDEST PUSH0 PUSH1 0x20 DUP3 ADD SWAP1 POP DUP2 DUP2 SUB PUSH0 DUP4 ADD MSTORE PUSH2 0x127D DUP2 PUSH2 0x1244 JUMP JUMPDEST SWAP1 POP SWAP2 SWAP1 POP JUMP JUMPDEST PUSH32 0x45544820616D6F756E74206D7573742062652067726561746572207468616E20 PUSH0 DUP3 ADD MSTORE PUSH32 0x3000000000000000000000000000000000000000000000000000000000000000 PUSH1 0x20 DUP3 ADD MSTORE POP JUMP JUMPDEST PUSH0 PUSH2 0x12DE PUSH1 0x21 DUP4 PUSH2 0xF88 JUMP JUMPDEST SWAP2 POP PUSH2 0x12E9 DUP3 PUSH2 0x1284 JUMP JUMPDEST PUSH1 0x40 DUP3 ADD SWAP1 POP SWAP2 SWAP1 POP JUMP JUMPDEST PUSH0 PUSH1 0x20 DUP3 ADD SWAP1 POP DUP2 DUP2 SUB PUSH0 DUP4 ADD MSTORE PUSH2 0x130B DUP2 PUSH2 0x12D2 JUMP JUMPDEST SWAP1 POP SWAP2 SWAP1 POP JUMP JUMPDEST PUSH0 DUP2 MLOAD SWAP1 POP PUSH2 0x1320 DUP2 PUSH2 0xD65 JUMP JUMPDEST SWAP3 SWAP2 POP POP JUMP JUMPDEST PUSH0 PUSH1 0x20 DUP3 DUP5 SUB SLT ISZERO PUSH2 0x133B JUMPI PUSH2 0x133A PUSH2 0xD61 JUMP JUMPDEST JUMPDEST PUSH0 PUSH2 0x1348 DUP5 DUP3 DUP6 ADD PUSH2 0x1312 JUMP JUMPDEST SWAP2 POP POP SWAP3 SWAP2 POP POP JUMP JUMPDEST PUSH32 0x496E73756666696369656E7420746F6B656E7320666F722073616C6500000000 PUSH0 DUP3 ADD MSTORE POP JUMP JUMPDEST PUSH0 PUSH2 0x1385 PUSH1 0x1C DUP4 PUSH2 0xF88 JUMP JUMPDEST SWAP2 POP PUSH2 0x1390 DUP3 PUSH2 0x1351 JUMP JUMPDEST PUSH1 0x20 DUP3 ADD SWAP1 POP SWAP2 SWAP1 POP JUMP JUMPDEST PUSH0 PUSH1 0x20 DUP3 ADD SWAP1 POP DUP2 DUP2 SUB PUSH0 DUP4 ADD MSTORE PUSH2 0x13B2 DUP2 PUSH2 0x1379 JUMP JUMPDEST SWAP1 POP SWAP2 SWAP1 POP JUMP JUMPDEST PUSH0 PUSH1 0x60 DUP3 ADD SWAP1 POP PUSH2 0x13CC PUSH0 DUP4 ADD DUP7 PUSH2 0xE78 JUMP JUMPDEST PUSH2 0x13D9 PUSH1 0x20 DUP4 ADD DUP6 PUSH2 0xE78 JUMP JUMPDEST PUSH2 0x13E6 PUSH1 0x40 DUP4 ADD DUP5 PUSH2 0xD39 JUMP JUMPDEST SWAP5 SWAP4 POP POP POP POP JUMP JUMPDEST PUSH32 0x4E487B7100000000000000000000000000000000000000000000000000000000 PUSH0 MSTORE PUSH1 0x11 PUSH1 0x4 MSTORE PUSH1 0x24 PUSH0 REVERT JUMPDEST PUSH0 PUSH2 0x1425 DUP3 PUSH2 0xD30 JUMP JUMPDEST SWAP2 POP PUSH2 0x1430 DUP4 PUSH2 0xD30 JUMP JUMPDEST SWAP3 POP DUP3 DUP3 MUL PUSH2 0x143E DUP2 PUSH2 0xD30 JUMP JUMPDEST SWAP2 POP DUP3 DUP3 DIV DUP5 EQ DUP4 ISZERO OR PUSH2 0x1455 JUMPI PUSH2 0x1454 PUSH2 0x13EE JUMP JUMPDEST JUMPDEST POP SWAP3 SWAP2 POP POP JUMP JUMPDEST PUSH0 PUSH2 0x1466 DUP3 PUSH2 0xD30 JUMP JUMPDEST SWAP2 POP PUSH2 0x1471 DUP4 PUSH2 0xD30 JUMP JUMPDEST SWAP3 POP DUP3 DUP3 ADD SWAP1 POP DUP1 DUP3 GT ISZERO PUSH2 0x1489 JUMPI PUSH2 0x1488 PUSH2 0x13EE JUMP JUMPDEST JUMPDEST SWAP3 SWAP2 POP POP JUMP INVALID LOG2 PUSH5 0x6970667358 0x22 SLT KECCAK256 0xB6 SMOD 0xA8 0xAF PUSH30 0x21B6532932B8CBDE5F9D617C980785D39893B8241F4C9E872CC0064736F PUSH13 0x634300081E0033000000000000 "
				},
				"gasEstimates": {
					"creation": {
						"codeDepositCost": "1063400",
						"executionCost": "infinite",
						"totalCost": "infinite"
					},
					"external": {
						"buyTokens()": "infinite",
						"claimTokens()": "infinite",
						"depositTokens(uint256)": "infinite",
						"endSale()": "infinite",
						"owner()": "2559",
						"purchasedTokens(address)": "2869",
						"rate()": "2471",
						"renounceOwnership()": "infinite",
						"saleEnded()": "2584",
						"starToken()": "infinite",
						"transferOwnership(address)": "infinite",
						"wallet()": "2597",
						"withdrawFunds()": "infinite",
						"withdrawTokens(uint256)": "infinite"
					}
				},
				"methodIdentifiers": {
					"buyTokens()": "d0febe4c",
					"claimTokens()": "48c54b9d",
					"depositTokens(uint256)": "dd49756e",
					"endSale()": "380d831b",
					"owner()": "8da5cb5b",
					"purchasedTokens(address)": "4bae6f3f",
					"rate()": "2c4e722e",
					"renounceOwnership()": "715018a6",
					"saleEnded()": "9b8906ae",
					"starToken()": "b7ca51e8",
					"transferOwnership(address)": "f2fde38b",
					"wallet()": "521eb273",
					"withdrawFunds()": "24600fc3",
					"withdrawTokens(uint256)": "315a095d"
				}
			},
			"storageLayout": {
				"storage": [
					{
						"astId": 8,
						"contract": "blockscout-verified/11155111/0x4f4D8dFCebb3a78a9eBFd12dBa928197cFe78E78/Sale/Sale.sol:SuperStarTokenSale",
						"label": "_owner",
						"offset": 0,
						"slot": "0",
						"type": "t_address"
					},
					{
						"astId": 581,
						"contract": "blockscout-verified/11155111/0x4f4D8dFCebb3a78a9eBFd12dBa928197cFe78E78/Sale/Sale.sol:SuperStarTokenSale",
						"label": "starToken",
						"offset": 0,
						"slot": "1",
						"type": "t_contract(IERC20)225"
					},
					{
						"astId": 583,
						"contract": "blockscout-verified/11155111/0x4f4D8dFCebb3a78a9eBFd12dBa928197cFe78E78/Sale/Sale.sol:SuperStarTokenSale",
						"label": "rate",
						"offset": 0,
						"slot": "2",
						"type": "t_uint256"
					},
					{
						"astId": 585,
						"contract": "blockscout-verified/11155111/0x4f4D8dFCebb3a78a9eBFd12dBa928197cFe78E78/Sale/Sale.sol:SuperStarTokenSale",
						"label": "wallet",
						"offset": 0,
						"slot": "3",
						"type": "t_address_payable"
					},
					{
						"astId": 587,
						"contract": "blockscout-verified/11155111/0x4f4D8dFCebb3a78a9eBFd12dBa928197cFe78E78/Sale/Sale.sol:SuperStarTokenSale",
						"label": "saleEnded",
						"offset": 20,
						"slot": "3",
						"type": "t_bool"
					},
					{
						"astId": 591,
						"contract": "blockscout-verified/11155111/0x4f4D8dFCebb3a78a9eBFd12dBa928197cFe78E78/Sale/Sale.sol:SuperStarTokenSale",
						"label": "purchasedTokens",
						"offset": 0,
						"slot": "4",
						"type": "t_mapping(t_address,t_uint256)"
					}
				],
				"types": {
					"t_address": {
						"encoding": "inplace",
						"label": "address",
						"numberOfBytes": "20"
					},
					"t_address_payable": {
						"encoding": "inplace",
						"label": "address payable",
						"numberOfBytes": "20"
					},
					"t_bool": {
						"encoding": "inplace",
						"label": "bool",
						"numberOfBytes": "1"
					},
					"t_contract(IERC20)225": {
						"encoding": "inplace",
						"label": "contract IERC20",
						"numberOfBytes": "20"
					},
					"t_mapping(t_address,t_uint256)": {
						"encoding": "mapping",
						"key": "t_address",
						"label": "mapping(address => uint256)",
						"numberOfBytes": "32",
						"value": "t_uint256"
					},
					"t_uint256": {
						"encoding": "inplace",
						"label": "uint256",
						"numberOfBytes": "32"
					}
				}
			},
			"userdoc": {
				"kind": "user",
				"methods": {},
				"version": 1
			}
		}
	}
}